{"contracts/Metaspace.sol":{"Metaspace":{"abi":[{"inputs":[],"stateMutability":"nonpayable","type":"constructor"},{"anonymous":false,"inputs":[{"indexed":true,"internalType":"address","name":"owner","type":"address"},{"indexed":true,"internalType":"address","name":"approved","type":"address"},{"indexed":true,"internalType":"uint256","name":"tokenId","type":"uint256"}],"name":"Approval","type":"event"},{"anonymous":false,"inputs":[{"indexed":true,"internalType":"address","name":"owner","type":"address"},{"indexed":true,"internalType":"address","name":"operator","type":"address"},{"indexed":false,"internalType":"bool","name":"approved","type":"bool"}],"name":"ApprovalForAll","type":"event"},{"anonymous":false,"inputs":[{"indexed":true,"internalType":"address","name":"from","type":"address"},{"indexed":true,"internalType":"address","name":"to","type":"address"},{"indexed":true,"internalType":"uint256","name":"tokenId","type":"uint256"}],"name":"Transfer","type":"event"},{"inputs":[{"internalType":"address","name":"","type":"address"}],"name":"UserAlbumCount","outputs":[{"internalType":"uint256","name":"","type":"uint256"}],"stateMutability":"view","type":"function"},{"inputs":[{"internalType":"address","name":"","type":"address"},{"internalType":"uint256","name":"","type":"uint256"}],"name":"UserMusicCount","outputs":[{"internalType":"uint256","name":"","type":"uint256"}],"stateMutability":"view","type":"function"},{"inputs":[{"internalType":"uint256","name":"_albumId","type":"uint256"},{"internalType":"uint256","name":"_artistId","type":"uint256"},{"internalType":"string","name":"_hash","type":"string"},{"internalType":"string","name":"_cover","type":"string"},{"internalType":"bool","name":"_isPodcast","type":"bool"},{"internalType":"string","name":"_title","type":"string"}],"name":"addArt","outputs":[],"stateMutability":"nonpayable","type":"function"},{"inputs":[{"internalType":"uint256","name":"","type":"uint256"}],"name":"album","outputs":[{"internalType":"uint256","name":"albumId","type":"uint256"},{"internalType":"string","name":"name","type":"string"},{"internalType":"string","name":"cover","type":"string"},{"internalType":"string","name":"title","type":"string"},{"internalType":"string","name":"description","type":"string"},{"components":[{"internalType":"uint256","name":"musicId","type":"uint256"},{"internalType":"string","name":"hash","type":"string"},{"internalType":"uint256","name":"albumId","type":"uint256"},{"components":[{"internalType":"uint256","name":"artistId","type":"uint256"},{"internalType":"string","name":"name","type":"string"},{"internalType":"address payable","name":"_address","type":"address"},{"internalType":"uint256","name":"balance","type":"uint256"},{"internalType":"string","name":"image","type":"string"},{"internalType":"string","name":"profile","type":"string"},{"internalType":"string","name":"coverImage","type":"string"}],"internalType":"struct Metaspace.Artist","name":"artist","type":"tuple"},{"internalType":"string","name":"cover","type":"string"},{"internalType":"string","name":"title","type":"string"},{"internalType":"bool","name":"isPodcast","type":"bool"}],"internalType":"struct Metaspace.Music","name":"music","type":"tuple"},{"internalType":"bool","name":"isPodcast","type":"bool"}],"stateMutability":"view","type":"function"},{"inputs":[{"internalType":"address","name":"to","type":"address"},{"internalType":"uint256","name":"tokenId","type":"uint256"}],"name":"approve","outputs":[],"stateMutability":"nonpayable","type":"function"},{"inputs":[{"internalType":"uint256","name":"","type":"uint256"}],"name":"artist","outputs":[{"internalType":"uint256","name":"artistId","type":"uint256"},{"internalType":"string","name":"name","type":"string"},{"internalType":"address payable","name":"_address","type":"address"},{"internalType":"uint256","name":"balance","type":"uint256"},{"internalType":"string","name":"image","type":"string"},{"internalType":"string","name":"profile","type":"string"},{"internalType":"string","name":"coverImage","type":"string"}],"stateMutability":"view","type":"function"},{"inputs":[{"internalType":"address","name":"","type":"address"}],"name":"artistSingle","outputs":[{"internalType":"uint256","name":"artistId","type":"uint256"},{"internalType":"string","name":"name","type":"string"},{"internalType":"address payable","name":"_address","type":"address"},{"internalType":"uint256","name":"balance","type":"uint256"},{"internalType":"string","name":"image","type":"string"},{"internalType":"string","name":"profile","type":"string"},{"internalType":"string","name":"coverImage","type":"string"}],"stateMutability":"view","type":"function"},{"inputs":[{"internalType":"address","name":"owner","type":"address"}],"name":"balanceOf","outputs":[{"internalType":"uint256","name":"","type":"uint256"}],"stateMutability":"view","type":"function"},{"inputs":[{"internalType":"string","name":"_albumName","type":"string"},{"internalType":"string","name":"_albumCover","type":"string"},{"internalType":"string","name":"_title","type":"string"},{"internalType":"string","name":"_description","type":"string"},{"internalType":"bool","name":"_isPodcast","type":"bool"}],"name":"createAlbum","outputs":[],"stateMutability":"nonpayable","type":"function"},{"inputs":[{"internalType":"uint256","name":"tokenId","type":"uint256"}],"name":"createMarketSale","outputs":[],"stateMutability":"payable","type":"function"},{"inputs":[{"internalType":"string","name":"_image","type":"string"},{"internalType":"string","name":"_profile","type":"string"},{"internalType":"string","name":"_name","type":"string"}],"name":"createProfile","outputs":[],"stateMutability":"nonpayable","type":"function"},{"inputs":[{"internalType":"string","name":"tokenURI","type":"string"},{"internalType":"uint256","name":"price","type":"uint256"},{"internalType":"string","name":"_name","type":"string"},{"internalType":"string","name":"_description","type":"string"},{"internalType":"string","name":"_image","type":"string"}],"name":"createToken","outputs":[{"internalType":"uint256","name":"","type":"uint256"}],"stateMutability":"payable","type":"function"},{"inputs":[],"name":"fetchAllUsers","outputs":[{"components":[{"internalType":"uint256","name":"artistId","type":"uint256"},{"internalType":"string","name":"name","type":"string"},{"internalType":"address payable","name":"_address","type":"address"},{"internalType":"uint256","name":"balance","type":"uint256"},{"internalType":"string","name":"image","type":"string"},{"internalType":"string","name":"profile","type":"string"},{"internalType":"string","name":"coverImage","type":"string"}],"internalType":"struct Metaspace.Artist[]","name":"","type":"tuple[]"}],"stateMutability":"view","type":"function"},{"inputs":[],"name":"fetchItemsListed","outputs":[{"components":[{"internalType":"uint256","name":"tokenId","type":"uint256"},{"internalType":"address payable","name":"seller","type":"address"},{"internalType":"address payable","name":"owner","type":"address"},{"internalType":"uint256","name":"price","type":"uint256"},{"internalType":"bool","name":"sold","type":"bool"},{"internalType":"string","name":"name","type":"string"},{"internalType":"string","name":"description","type":"string"},{"internalType":"string","name":"image","type":"string"}],"internalType":"struct Metaspace.MarketItem[]","name":"","type":"tuple[]"}],"stateMutability":"view","type":"function"},{"inputs":[],"name":"fetchMarketItems","outputs":[{"components":[{"internalType":"uint256","name":"tokenId","type":"uint256"},{"internalType":"address payable","name":"seller","type":"address"},{"internalType":"address payable","name":"owner","type":"address"},{"internalType":"uint256","name":"price","type":"uint256"},{"internalType":"bool","name":"sold","type":"bool"},{"internalType":"string","name":"name","type":"string"},{"internalType":"string","name":"description","type":"string"},{"internalType":"string","name":"image","type":"string"}],"internalType":"struct Metaspace.MarketItem[]","name":"","type":"tuple[]"}],"stateMutability":"view","type":"function"},{"inputs":[],"name":"getAlbums","outputs":[{"components":[{"internalType":"uint256","name":"albumId","type":"uint256"},{"internalType":"string","name":"name","type":"string"},{"internalType":"string","name":"cover","type":"string"},{"internalType":"string","name":"title","type":"string"},{"internalType":"string","name":"description","type":"string"},{"components":[{"internalType":"uint256","name":"musicId","type":"uint256"},{"internalType":"string","name":"hash","type":"string"},{"internalType":"uint256","name":"albumId","type":"uint256"},{"components":[{"internalType":"uint256","name":"artistId","type":"uint256"},{"internalType":"string","name":"name","type":"string"},{"internalType":"address payable","name":"_address","type":"address"},{"internalType":"uint256","name":"balance","type":"uint256"},{"internalType":"string","name":"image","type":"string"},{"internalType":"string","name":"profile","type":"string"},{"internalType":"string","name":"coverImage","type":"string"}],"internalType":"struct Metaspace.Artist","name":"artist","type":"tuple"},{"internalType":"string","name":"cover","type":"string"},{"internalType":"string","name":"title","type":"string"},{"internalType":"bool","name":"isPodcast","type":"bool"}],"internalType":"struct Metaspace.Music","name":"music","type":"tuple"},{"internalType":"bool","name":"isPodcast","type":"bool"}],"internalType":"struct Metaspace.Album[]","name":"","type":"tuple[]"}],"stateMutability":"view","type":"function"},{"inputs":[{"internalType":"uint256","name":"tokenId","type":"uint256"}],"name":"getApproved","outputs":[{"internalType":"address","name":"","type":"address"}],"stateMutability":"view","type":"function"},{"inputs":[{"internalType":"uint256","name":"_albumId","type":"uint256"}],"name":"getArt","outputs":[{"components":[{"internalType":"uint256","name":"musicId","type":"uint256"},{"internalType":"string","name":"hash","type":"string"},{"internalType":"uint256","name":"albumId","type":"uint256"},{"components":[{"internalType":"uint256","name":"artistId","type":"uint256"},{"internalType":"string","name":"name","type":"string"},{"internalType":"address payable","name":"_address","type":"address"},{"internalType":"uint256","name":"balance","type":"uint256"},{"internalType":"string","name":"image","type":"string"},{"internalType":"string","name":"profile","type":"string"},{"internalType":"string","name":"coverImage","type":"string"}],"internalType":"struct Metaspace.Artist","name":"artist","type":"tuple"},{"internalType":"string","name":"cover","type":"string"},{"internalType":"string","name":"title","type":"string"},{"internalType":"bool","name":"isPodcast","type":"bool"}],"internalType":"struct Metaspace.Music[]","name":"","type":"tuple[]"}],"stateMutability":"view","type":"function"},{"inputs":[],"name":"getEthUsd","outputs":[{"internalType":"uint256","name":"","type":"uint256"}],"stateMutability":"view","type":"function"},{"inputs":[],"name":"getListingPrice","outputs":[{"internalType":"uint256","name":"","type":"uint256"}],"stateMutability":"view","type":"function"},{"inputs":[],"name":"getSingleUser","outputs":[{"components":[{"internalType":"uint256","name":"artistId","type":"uint256"},{"internalType":"string","name":"name","type":"string"},{"internalType":"address payable","name":"_address","type":"address"},{"internalType":"uint256","name":"balance","type":"uint256"},{"internalType":"string","name":"image","type":"string"},{"internalType":"string","name":"profile","type":"string"},{"internalType":"string","name":"coverImage","type":"string"}],"internalType":"struct Metaspace.Artist","name":"","type":"tuple"}],"stateMutability":"view","type":"function"},{"inputs":[],"name":"getUserAlbums","outputs":[{"components":[{"internalType":"uint256","name":"albumId","type":"uint256"},{"internalType":"string","name":"name","type":"string"},{"internalType":"string","name":"cover","type":"string"},{"internalType":"string","name":"title","type":"string"},{"internalType":"string","name":"description","type":"string"},{"components":[{"internalType":"uint256","name":"musicId","type":"uint256"},{"internalType":"string","name":"hash","type":"string"},{"internalType":"uint256","name":"albumId","type":"uint256"},{"components":[{"internalType":"uint256","name":"artistId","type":"uint256"},{"internalType":"string","name":"name","type":"string"},{"internalType":"address payable","name":"_address","type":"address"},{"internalType":"uint256","name":"balance","type":"uint256"},{"internalType":"string","name":"image","type":"string"},{"internalType":"string","name":"profile","type":"string"},{"internalType":"string","name":"coverImage","type":"string"}],"internalType":"struct Metaspace.Artist","name":"artist","type":"tuple"},{"internalType":"string","name":"cover","type":"string"},{"internalType":"string","name":"title","type":"string"},{"internalType":"bool","name":"isPodcast","type":"bool"}],"internalType":"struct Metaspace.Music","name":"music","type":"tuple"},{"internalType":"bool","name":"isPodcast","type":"bool"}],"internalType":"struct Metaspace.Album[]","name":"","type":"tuple[]"}],"stateMutability":"view","type":"function"},{"inputs":[{"internalType":"address","name":"owner","type":"address"},{"internalType":"address","name":"operator","type":"address"}],"name":"isApprovedForAll","outputs":[{"internalType":"bool","name":"","type":"bool"}],"stateMutability":"view","type":"function"},{"inputs":[{"internalType":"address","name":"","type":"address"}],"name":"isRegistered","outputs":[{"internalType":"bool","name":"","type":"bool"}],"stateMutability":"view","type":"function"},{"inputs":[],"name":"isRegisteredFunc","outputs":[{"internalType":"bool","name":"","type":"bool"}],"stateMutability":"view","type":"function"},{"inputs":[],"name":"name","outputs":[{"internalType":"string","name":"","type":"string"}],"stateMutability":"view","type":"function"},{"inputs":[{"internalType":"uint256","name":"tokenId","type":"uint256"}],"name":"ownerOf","outputs":[{"internalType":"address","name":"","type":"address"}],"stateMutability":"view","type":"function"},{"inputs":[{"internalType":"address","name":"from","type":"address"},{"internalType":"address","name":"to","type":"address"},{"internalType":"uint256","name":"tokenId","type":"uint256"}],"name":"safeTransferFrom","outputs":[],"stateMutability":"nonpayable","type":"function"},{"inputs":[{"internalType":"address","name":"from","type":"address"},{"internalType":"address","name":"to","type":"address"},{"internalType":"uint256","name":"tokenId","type":"uint256"},{"internalType":"bytes","name":"data","type":"bytes"}],"name":"safeTransferFrom","outputs":[],"stateMutability":"nonpayable","type":"function"},{"inputs":[{"internalType":"address","name":"operator","type":"address"},{"internalType":"bool","name":"approved","type":"bool"}],"name":"setApprovalForAll","outputs":[],"stateMutability":"nonpayable","type":"function"},{"inputs":[],"name":"setRegistered","outputs":[],"stateMutability":"nonpayable","type":"function"},{"inputs":[{"internalType":"bytes4","name":"interfaceId","type":"bytes4"}],"name":"supportsInterface","outputs":[{"internalType":"bool","name":"","type":"bool"}],"stateMutability":"view","type":"function"},{"inputs":[],"name":"symbol","outputs":[{"internalType":"string","name":"","type":"string"}],"stateMutability":"view","type":"function"},{"inputs":[{"internalType":"uint256","name":"id","type":"uint256"}],"name":"tipUser","outputs":[],"stateMutability":"payable","type":"function"},{"inputs":[{"internalType":"address","name":"useraddress_","type":"address"}],"name":"tipUserSpace","outputs":[],"stateMutability":"payable","type":"function"},{"inputs":[{"internalType":"uint256","name":"tokenId","type":"uint256"}],"name":"tokenURI","outputs":[{"internalType":"string","name":"","type":"string"}],"stateMutability":"view","type":"function"},{"inputs":[{"internalType":"address","name":"from","type":"address"},{"internalType":"address","name":"to","type":"address"},{"internalType":"uint256","name":"tokenId","type":"uint256"}],"name":"transferFrom","outputs":[],"stateMutability":"nonpayable","type":"function"},{"inputs":[{"internalType":"uint256","name":"_listingPrice","type":"uint256"}],"name":"updateListingPrice","outputs":[],"stateMutability":"payable","type":"function"}],"evm":{"bytecode":{"linkReferences":{},"object":"60806040526658d15e17628000600c553480156200001c57600080fd5b50604080518082018252601081526f4d657461766572736520546f6b656e7360801b6020808301918252835180850190945260048452631351551560e21b9084015281519192916200007191600091620000c4565b50805162000087906001906020840190620000c4565b5050600d80546001600160a01b03199081163317909155600e8054909116737bac85a8a13a4bcd8abb3eb7d6b4d632c5a5767617905550620001a7565b828054620000d2906200016a565b90600052602060002090601f016020900481019282620000f6576000855562000141565b82601f106200011157805160ff191683800117855562000141565b8280016001018555821562000141579182015b828111156200014157825182559160200191906001019062000124565b506200014f92915062000153565b5090565b5b808211156200014f576000815560010162000154565b600181811c908216806200017f57607f821691505b60208210811415620001a157634e487b7160e01b600052602260045260246000fd5b50919050565b615dfc80620001b76000396000f3fe6080604052600436106101b55760003560e01c806301ffc9a7146101ba57806306fdde03146101ef578063081812fc14610211578063095ea7b3146102495780630f08efe01461026b57806312e855851461028d57806323b872dd146102ac578063421bac1a146102cc57806342842e0e146102ec57806345f8fa801461030c5780634869f6311461032157806349f0c1e5146103365780634b1b7b84146103625780635c517234146103955780636352211e146103b757806370a08231146103d75780637ff97188146103f75780638865ba66146104245780638c4796c71461044657806395d89b41146104735780639841c82c146104885780639e0d2da8146104a8578063a22cb465146104bb578063ae677aa3146104db578063b756a20d146104ee578063b88d4fde1461050e578063bb27e0ce1461052e578063be9af53614610543578063c337431514610556578063c3c5a54714610578578063c87b56dd146105a8578063cb0df56c146105c8578063d1d8a068146105db578063d5c25f19146105ee578063e89e6a0014610626578063e985e9c514610659578063ec7fe52d14610679578063fcefc5db14610699575b600080fd5b3480156101c657600080fd5b506101da6101d53660046150dd565b6106ae565b60405190151581526020015b60405180910390f35b3480156101fb57600080fd5b50610204610700565b6040516101e69190615152565b34801561021d57600080fd5b5061023161022c366004615165565b610792565b6040516001600160a01b0390911681526020016101e6565b34801561025557600080fd5b506102696102643660046151a7565b6107b9565b005b34801561027757600080fd5b506102806108d4565b6040516101e691906151d1565b34801561029957600080fd5b50600c545b6040519081526020016101e6565b3480156102b857600080fd5b506102696102c73660046152bd565b610c09565b3480156102d857600080fd5b506102696102e73660046153b4565b610c3a565b3480156102f857600080fd5b506102696103073660046152bd565b6111cb565b34801561031857600080fd5b506102806111e6565b34801561032d57600080fd5b506101da611559565b34801561034257600080fd5b50610269336000908152601060205260409020805460ff19166001179055565b34801561036e57600080fd5b5061038261037d366004615165565b611582565b6040516101e69796959493929190615471565b3480156103a157600080fd5b506103aa6117eb565b6040516101e69190615608565b3480156103c357600080fd5b506102316103d2366004615165565b611fad565b3480156103e357600080fd5b5061029e6103f23660046156e9565b611fe2565b34801561040357600080fd5b5061029e6104123660046156e9565b60126020526000908152604090205481565b34801561043057600080fd5b50610439612068565b6040516101e69190615704565b34801561045257600080fd5b50610466610461366004615165565b612302565b6040516101e69190615717565b34801561047f57600080fd5b5061020461284a565b34801561049457600080fd5b506102696104a3366004615779565b612859565b61029e6104b6366004615800565b612aa2565b3480156104c757600080fd5b506102696104d63660046158b6565b612aea565b6102696104e9366004615165565b612af9565b3480156104fa57600080fd5b506102696105093660046158e9565b612b71565b34801561051a57600080fd5b50610269610529366004615993565b612e40565b34801561053a57600080fd5b5061029e612e78565b610269610551366004615165565b612f0b565b34801561056257600080fd5b5061056b613070565b6040516101e69190615a0e565b34801561058457600080fd5b506101da6105933660046156e9565b60106020526000908152604090205460ff1681565b3480156105b457600080fd5b506102046105c3366004615165565b6133c5565b6102696105d63660046156e9565b6134d6565b6102696105e9366004615165565b61350b565b3480156105fa57600080fd5b5061029e6106093660046151a7565b601560209081526000928352604080842090915290825290205481565b34801561063257600080fd5b50610646610641366004615165565b613637565b6040516101e69796959493929190615a63565b34801561066557600080fd5b506101da610674366004615ae1565b613d04565b34801561068557600080fd5b506103826106943660046156e9565b613d32565b3480156106a557600080fd5b506103aa613d54565b60006001600160e01b031982166380ac58cd60e01b14806106df57506001600160e01b03198216635b5e139f60e01b145b806106fa57506301ffc9a760e01b6001600160e01b03198316145b92915050565b60606000805461070f90615b0b565b80601f016020809104026020016040519081016040528092919081815260200182805461073b90615b0b565b80156107885780601f1061075d57610100808354040283529160200191610788565b820191906000526020600020905b81548152906001019060200180831161076b57829003601f168201915b5050505050905090565b600061079d82614522565b506000908152600460205260409020546001600160a01b031690565b60006107c482611fad565b9050806001600160a01b0316836001600160a01b031614156108375760405162461bcd60e51b815260206004820152602160248201527f4552433732313a20617070726f76616c20746f2063757272656e74206f776e656044820152603960f91b60648201526084015b60405180910390fd5b336001600160a01b038216148061085357506108538133613d04565b6108c55760405162461bcd60e51b815260206004820152603e60248201527f4552433732313a20617070726f76652063616c6c6572206973206e6f7420746f60448201527f6b656e206f776e6572206e6f7220617070726f76656420666f7220616c6c0000606482015260840161082e565b6108cf838361454a565b505050565b606060006108e160075490565b905060006108ee60085490565b6007546108fb9190615b5c565b9050600080826001600160401b03811115610918576109186152f9565b60405190808252806020026020018201604052801561095157816020015b61093e614e8f565b8152602001906001900390816109365790505b50905060005b84811015610c005730600f600061096f846001615b73565b81526020810191909152604001600020600201546001600160a01b03161415610bee57600061099f826001615b73565b6000818152600f60209081526040918290208251610100810184528154815260018201546001600160a01b039081169382019390935260028201549092169282019290925260038201546060820152600482015460ff161515608082015260058201805493945091929091839160a084019190610a1b90615b0b565b80601f0160208091040260200160405190810160405280929190818152602001828054610a4790615b0b565b8015610a945780601f10610a6957610100808354040283529160200191610a94565b820191906000526020600020905b815481529060010190602001808311610a7757829003601f168201915b50505050508152602001600682018054610aad90615b0b565b80601f0160208091040260200160405190810160405280929190818152602001828054610ad990615b0b565b8015610b265780601f10610afb57610100808354040283529160200191610b26565b820191906000526020600020905b815481529060010190602001808311610b0957829003601f168201915b50505050508152602001600782018054610b3f90615b0b565b80601f0160208091040260200160405190810160405280929190818152602001828054610b6b90615b0b565b8015610bb85780601f10610b8d57610100808354040283529160200191610bb8565b820191906000526020600020905b815481529060010190602001808311610b9b57829003601f168201915b505050505081525050848681518110610bd357610bd3615b8b565b6020908102919091010152610be9600186615b73565b945050505b80610bf881615ba1565b915050610957565b50949350505050565b610c1333826145b8565b610c2f5760405162461bcd60e51b815260040161082e90615bbc565b6108cf838383614616565b33600090815260126020526040902054610c55906001615b73565b33600090815260126020526040902055610c73600980546001019055565b600060116000610c8260095490565b815260208082019290925260409081016000908120338252601384528282206012855283832054835290935220909150610cbb60095490565b82558651610cd290600184019060208a0190614ee8565b508551610ce89060028401906020890190614ee8565b508451610cfe9060038401906020880190614ee8565b508351610d149060048401906020870190614ee8565b5060128201805460ff1916841515179055600a82018054336001600160a01b0319909116179055600b54600883015560095481558651610d5d90600183019060208a0190614ee8565b508551610d739060028301906020890190614ee8565b508451610d899060038301906020880190614ee8565b508351610d9f9060048301906020870190614ee8565b50336000908152601360209081526040808320601283528184205484529091529020815481556001808301805484939283019190610ddc90615b0b565b610de7929190614f6c565b506002820181600201908054610dfc90615b0b565b610e07929190614f6c565b506003820181600301908054610e1c90615b0b565b610e27929190614f6c565b506004820181600401908054610e3c90615b0b565b610e47929190614f6c565b506005820181600501600082015481600001556001820181600101908054610e6e90615b0b565b610e79929190614f6c565b50600282015481600201556003820181600301600082015481600001556001820181600101908054610eaa90615b0b565b610eb5929190614f6c565b5060028281015490820180546001600160a01b0319166001600160a01b03909216919091179055600380830154908201556004808301805491830191610efa90615b0b565b610f05929190614f6c565b506005820181600501908054610f1a90615b0b565b610f25929190614f6c565b506006820181600601908054610f3a90615b0b565b610f45929190614f6c565b505050600a820181600a01908054610f5c90615b0b565b610f67929190614f6c565b50600b820181600b01908054610f7c90615b0b565b610f87929190614f6c565b50600c918201549101805460ff1990811660ff938416151517909155601293840154929093018054909316911615151790556009546000908152601160205260409020825481556001838101805485939283019190610fe590615b0b565b610ff0929190614f6c565b50600282018160020190805461100590615b0b565b611010929190614f6c565b50600382018160030190805461102590615b0b565b611030929190614f6c565b50600482018160040190805461104590615b0b565b611050929190614f6c565b50600582018160050160008201548160000155600182018160010190805461107790615b0b565b611082929190614f6c565b506002820154816002015560038201816003016000820154816000015560018201816001019080546110b390615b0b565b6110be929190614f6c565b5060028281015490820180546001600160a01b0319166001600160a01b0390921691909117905560038083015490820155600480830180549183019161110390615b0b565b61110e929190614f6c565b50600582018160050190805461112390615b0b565b61112e929190614f6c565b50600682018160060190805461114390615b0b565b61114e929190614f6c565b505050600a820181600a0190805461116590615b0b565b611170929190614f6c565b50600b820181600b0190805461118590615b0b565b611190929190614f6c565b50600c918201549101805460ff1990811660ff9384161515179091556012938401549290930180549093169116151517905550505050505050565b6108cf83838360405180602001604052806000815250612e40565b606060006111f360075490565b905060008060005b838110156112565733600f6000611213846001615b73565b81526020810191909152604001600020600101546001600160a01b0316141561124457611241600184615b73565b92505b8061124e81615ba1565b9150506111fb565b506000826001600160401b03811115611271576112716152f9565b6040519080825280602002602001820160405280156112aa57816020015b611297614e8f565b81526020019060019003908161128f5790505b50905060005b84811015610c005733600f60006112c8846001615b73565b81526020810191909152604001600020600101546001600160a01b031614156115475760006112f8826001615b73565b6000818152600f60209081526040918290208251610100810184528154815260018201546001600160a01b039081169382019390935260028201549092169282019290925260038201546060820152600482015460ff161515608082015260058201805493945091929091839160a08401919061137490615b0b565b80601f01602080910402602001604051908101604052809291908181526020018280546113a090615b0b565b80156113ed5780601f106113c2576101008083540402835291602001916113ed565b820191906000526020600020905b8154815290600101906020018083116113d057829003601f168201915b5050505050815260200160068201805461140690615b0b565b80601f016020809104026020016040519081016040528092919081815260200182805461143290615b0b565b801561147f5780601f106114545761010080835404028352916020019161147f565b820191906000526020600020905b81548152906001019060200180831161146257829003601f168201915b5050505050815260200160078201805461149890615b0b565b80601f01602080910402602001604051908101604052809291908181526020018280546114c490615b0b565b80156115115780601f106114e657610100808354040283529160200191611511565b820191906000526020600020905b8154815290600101906020018083116114f457829003601f168201915b50505050508152505084868151811061152c5761152c615b8b565b6020908102919091010152611542600186615b73565b945050505b8061155181615ba1565b9150506112b0565b3360009081526010602052604081205460ff1615156001141561157c5750600190565b50600090565b601760205260009081526040902080546001820180549192916115a490615b0b565b80601f01602080910402602001604051908101604052809291908181526020018280546115d090615b0b565b801561161d5780601f106115f25761010080835404028352916020019161161d565b820191906000526020600020905b81548152906001019060200180831161160057829003601f168201915b505050506002830154600384015460048501805494956001600160a01b03909316949193509061164c90615b0b565b80601f016020809104026020016040519081016040528092919081815260200182805461167890615b0b565b80156116c55780601f1061169a576101008083540402835291602001916116c5565b820191906000526020600020905b8154815290600101906020018083116116a857829003601f168201915b5050505050908060050180546116da90615b0b565b80601f016020809104026020016040519081016040528092919081815260200182805461170690615b0b565b80156117535780601f1061172857610100808354040283529160200191611753565b820191906000526020600020905b81548152906001019060200180831161173657829003601f168201915b50505050509080600601805461176890615b0b565b80601f016020809104026020016040519081016040528092919081815260200182805461179490615b0b565b80156117e15780601f106117b6576101008083540402835291602001916117e1565b820191906000526020600020905b8154815290600101906020018083116117c457829003601f168201915b5050505050905087565b606060006117f860095490565b9050600080826001600160401b03811115611815576118156152f9565b60405190808252806020026020018201604052801561184e57816020015b61183b614fe7565b8152602001906001900390816118335790505b50905060005b83811015611fa5576000611869826001615b73565b90506000601160008381526020019081526020016000209050806040518060e0016040529081600082015481526020016001820180546118a890615b0b565b80601f01602080910402602001604051908101604052809291908181526020018280546118d490615b0b565b80156119215780601f106118f657610100808354040283529160200191611921565b820191906000526020600020905b81548152906001019060200180831161190457829003601f168201915b5050505050815260200160028201805461193a90615b0b565b80601f016020809104026020016040519081016040528092919081815260200182805461196690615b0b565b80156119b35780601f10611988576101008083540402835291602001916119b3565b820191906000526020600020905b81548152906001019060200180831161199657829003601f168201915b505050505081526020016003820180546119cc90615b0b565b80601f01602080910402602001604051908101604052809291908181526020018280546119f890615b0b565b8015611a455780601f10611a1a57610100808354040283529160200191611a45565b820191906000526020600020905b815481529060010190602001808311611a2857829003601f168201915b50505050508152602001600482018054611a5e90615b0b565b80601f0160208091040260200160405190810160405280929190818152602001828054611a8a90615b0b565b8015611ad75780601f10611aac57610100808354040283529160200191611ad7565b820191906000526020600020905b815481529060010190602001808311611aba57829003601f168201915b50505050508152602001600582016040518060e001604052908160008201548152602001600182018054611b0a90615b0b565b80601f0160208091040260200160405190810160405280929190818152602001828054611b3690615b0b565b8015611b835780601f10611b5857610100808354040283529160200191611b83565b820191906000526020600020905b815481529060010190602001808311611b6657829003601f168201915b5050505050815260200160028201548152602001600382016040518060e001604052908160008201548152602001600182018054611bc090615b0b565b80601f0160208091040260200160405190810160405280929190818152602001828054611bec90615b0b565b8015611c395780601f10611c0e57610100808354040283529160200191611c39565b820191906000526020600020905b815481529060010190602001808311611c1c57829003601f168201915b505050918352505060028201546001600160a01b0316602082015260038201546040820152600482018054606090920191611c7390615b0b565b80601f0160208091040260200160405190810160405280929190818152602001828054611c9f90615b0b565b8015611cec5780601f10611cc157610100808354040283529160200191611cec565b820191906000526020600020905b815481529060010190602001808311611ccf57829003601f168201915b50505050508152602001600582018054611d0590615b0b565b80601f0160208091040260200160405190810160405280929190818152602001828054611d3190615b0b565b8015611d7e5780601f10611d5357610100808354040283529160200191611d7e565b820191906000526020600020905b815481529060010190602001808311611d6157829003601f168201915b50505050508152602001600682018054611d9790615b0b565b80601f0160208091040260200160405190810160405280929190818152602001828054611dc390615b0b565b8015611e105780601f10611de557610100808354040283529160200191611e10565b820191906000526020600020905b815481529060010190602001808311611df357829003601f168201915b5050505050815250508152602001600a82018054611e2d90615b0b565b80601f0160208091040260200160405190810160405280929190818152602001828054611e5990615b0b565b8015611ea65780601f10611e7b57610100808354040283529160200191611ea6565b820191906000526020600020905b815481529060010190602001808311611e8957829003601f168201915b50505050508152602001600b82018054611ebf90615b0b565b80601f0160208091040260200160405190810160405280929190818152602001828054611eeb90615b0b565b8015611f385780601f10611f0d57610100808354040283529160200191611f38565b820191906000526020600020905b815481529060010190602001808311611f1b57829003601f168201915b5050509183525050600c919091015460ff9081161515602092830152918352601293909301541615159101528451859087908110611f7857611f78615b8b565b6020908102919091010152611f8e600186615b73565b945050508080611f9d90615ba1565b915050611854565b509392505050565b6000818152600260205260408120546001600160a01b0316806106fa5760405162461bcd60e51b815260040161082e90615c0a565b60006001600160a01b03821661204c5760405162461bcd60e51b815260206004820152602960248201527f4552433732313a2061646472657373207a65726f206973206e6f7420612076616044820152683634b21037bbb732b960b91b606482015260840161082e565b506001600160a01b031660009081526003602052604090205490565b61207061502a565b33600090815260186020908152604091829020825160e081019093528054835260018101805491928401916120a490615b0b565b80601f01602080910402602001604051908101604052809291908181526020018280546120d090615b0b565b801561211d5780601f106120f25761010080835404028352916020019161211d565b820191906000526020600020905b81548152906001019060200180831161210057829003601f168201915b505050918352505060028201546001600160a01b031660208201526003820154604082015260048201805460609092019161215790615b0b565b80601f016020809104026020016040519081016040528092919081815260200182805461218390615b0b565b80156121d05780601f106121a5576101008083540402835291602001916121d0565b820191906000526020600020905b8154815290600101906020018083116121b357829003601f168201915b505050505081526020016005820180546121e990615b0b565b80601f016020809104026020016040519081016040528092919081815260200182805461221590615b0b565b80156122625780601f1061223757610100808354040283529160200191612262565b820191906000526020600020905b81548152906001019060200180831161224557829003601f168201915b5050505050815260200160068201805461227b90615b0b565b80601f01602080910402602001604051908101604052809291908181526020018280546122a790615b0b565b80156122f45780601f106122c9576101008083540402835291602001916122f4565b820191906000526020600020905b8154815290600101906020018083116122d757829003601f168201915b505050505081525050905090565b6060600061230f600a5490565b9050600080826001600160401b0381111561232c5761232c6152f9565b60405190808252806020026020018201604052801561236557816020015b612352615070565b81526020019060019003908161234a5790505b50905060005b83811015610c00576000612380826001615b73565b6000888152601460209081526040808320848452825291829020825160e081019093528054835260018101805494955090938492840191906123c190615b0b565b80601f01602080910402602001604051908101604052809291908181526020018280546123ed90615b0b565b801561243a5780601f1061240f5761010080835404028352916020019161243a565b820191906000526020600020905b81548152906001019060200180831161241d57829003601f168201915b5050505050815260200160028201548152602001600382016040518060e00160405290816000820154815260200160018201805461247790615b0b565b80601f01602080910402602001604051908101604052809291908181526020018280546124a390615b0b565b80156124f05780601f106124c5576101008083540402835291602001916124f0565b820191906000526020600020905b8154815290600101906020018083116124d357829003601f168201915b505050918352505060028201546001600160a01b031660208201526003820154604082015260048201805460609092019161252a90615b0b565b80601f016020809104026020016040519081016040528092919081815260200182805461255690615b0b565b80156125a35780601f10612578576101008083540402835291602001916125a3565b820191906000526020600020905b81548152906001019060200180831161258657829003601f168201915b505050505081526020016005820180546125bc90615b0b565b80601f01602080910402602001604051908101604052809291908181526020018280546125e890615b0b565b80156126355780601f1061260a57610100808354040283529160200191612635565b820191906000526020600020905b81548152906001019060200180831161261857829003601f168201915b5050505050815260200160068201805461264e90615b0b565b80601f016020809104026020016040519081016040528092919081815260200182805461267a90615b0b565b80156126c75780601f1061269c576101008083540402835291602001916126c7565b820191906000526020600020905b8154815290600101906020018083116126aa57829003601f168201915b5050505050815250508152602001600a820180546126e490615b0b565b80601f016020809104026020016040519081016040528092919081815260200182805461271090615b0b565b801561275d5780601f106127325761010080835404028352916020019161275d565b820191906000526020600020905b81548152906001019060200180831161274057829003601f168201915b50505050508152602001600b8201805461277690615b0b565b80601f01602080910402602001604051908101604052809291908181526020018280546127a290615b0b565b80156127ef5780601f106127c4576101008083540402835291602001916127ef565b820191906000526020600020905b8154815290600101906020018083116127d257829003601f168201915b5050509183525050600c919091015460ff161515602090910152845185908790811061281d5761281d615b8b565b6020908102919091010152612833600186615b73565b94505050808061284290615ba1565b91505061236b565b60606001805461070f90615b0b565b612867600b80546001019055565b600060176000612876600b5490565b8152602001908152602001600020905061288f600b5490565b815583516128a69060048301906020870190614ee8565b5081516128bc9060018301906020850190614ee8565b5082516128d29060058301906020860190614ee8565b506002810180546001600160a01b031916339081179091556000908152601060209081526040808320805460ff19166001908117909155601890925290912082548155818301805484938301919061292990615b0b565b612934929190614f6c565b5060028281015490820180546001600160a01b0319166001600160a01b0390921691909117905560038083015490820155600480830180549183019161297990615b0b565b612984929190614f6c565b50600582018160050190805461299990615b0b565b6129a4929190614f6c565b5060068201816006019080546129b990615b0b565b6129c4929190614f6c565b5090505080601760006129d6600b5490565b815260208101919091526040016000208154815560018083018054918301916129fe90615b0b565b612a09929190614f6c565b5060028281015490820180546001600160a01b0319166001600160a01b03909216919091179055600380830154908201556004808301805491830191612a4e90615b0b565b612a59929190614f6c565b506005820181600501908054612a6e90615b0b565b612a79929190614f6c565b506006820181600601908054612a8e90615b0b565b612a99929190614f6c565b50505050505050565b6000612ab2600780546001019055565b6000612abd60075490565b9050612ac933826147a0565b612ad381886148c0565b612ae0818787878761494b565b9695505050505050565b612af5338383614af6565b5050565b600d546001600160a01b03163314612b6c5760405162461bcd60e51b815260206004820152603060248201527f4f6e6c79206d61726b6574706c616365206f776e65722063616e20757064617460448201526f32903634b9ba34b73390383934b1b29760811b606482015260840161082e565b600c55565b612b7f600a80546001019055565b600086815260146020526040812081612b97600a5490565b815260208082019290925260409081016000908120898252601790935220909150612bc1600a5490565b825560028101546005830180546001600160a01b0319166001600160a01b03909216919091179055600381015460068084019190915581018054600984019190612c0a90615b0b565b612c15929190614f6c565b50600481018054600784019190612c2b90615b0b565b612c36929190614f6c565b50600581018054600884019190612c4c90615b0b565b612c57929190614f6c565b50600181018054600484019190612c6d90615b0b565b612c78929190614f6c565b508551612c8e9060018401906020890190614ee8565b508451612ca490600a8401906020880190614ee8565b508251612cba90600b8401906020860190614ee8565b50600c8201805460ff19168515151790556000888152601460209081526040808320600a5484529091529020825481556001808401805485939283019190612d0190615b0b565b612d0c929190614f6c565b50600282015481600201556003820181600301600082015481600001556001820181600101908054612d3d90615b0b565b612d48929190614f6c565b5060028281015490820180546001600160a01b0319166001600160a01b03909216919091179055600380830154908201556004808301805491830191612d8d90615b0b565b612d98929190614f6c565b506005820181600501908054612dad90615b0b565b612db8929190614f6c565b506006820181600601908054612dcd90615b0b565b612dd8929190614f6c565b505050600a820181600a01908054612def90615b0b565b612dfa929190614f6c565b50600b820181600b01908054612e0f90615b0b565b612e1a929190614f6c565b50600c918201549101805460ff191660ff90921615159190911790555050505050505050565b612e4a33836145b8565b612e665760405162461bcd60e51b815260040161082e90615bbc565b612e7284848484614bc1565b50505050565b600080600e60009054906101000a90046001600160a01b03166001600160a01b031663feaf968c6040518163ffffffff1660e01b815260040160a06040518083038186803b158015612ec957600080fd5b505afa158015612edd573d6000803e3d6000fd5b505050506040513d601f19601f82011682018060405250810190612f019190615c53565b5050509150505090565b6000818152600f6020526040902060038101546001909101546001600160a01b0316348214612fa4576040805162461bcd60e51b81526020600482015260248101919091527f506c65617365207375626d6974207468652061736b696e67207072696365206960448201527f6e206f7264657220746f20636f6d706c65746520746865207075726368617365606482015260840161082e565b6000838152600f602052604090206002810180546001600160a01b0319908116331790915560048201805460ff1916600190811790915590910180549091169055612ff3600880546001019055565b612ffe303385614616565b600d54600c546040516001600160a01b039092169181156108fc0291906000818181858888f1935050505015801561303a573d6000803e3d6000fd5b506040516001600160a01b038216903480156108fc02916000818181858888f19350505050158015612e72573d6000803e3d6000fd5b6060600061307d600b5490565b9050600080826001600160401b0381111561309a5761309a6152f9565b6040519080825280602002602001820160405280156130d357816020015b6130c061502a565b8152602001906001900390816130b85790505b50905060005b83811015611fa55760006130ee826001615b73565b90506000601760008381526020019081526020016000209050806040518060e00160405290816000820154815260200160018201805461312d90615b0b565b80601f016020809104026020016040519081016040528092919081815260200182805461315990615b0b565b80156131a65780601f1061317b576101008083540402835291602001916131a6565b820191906000526020600020905b81548152906001019060200180831161318957829003601f168201915b505050918352505060028201546001600160a01b03166020820152600382015460408201526004820180546060909201916131e090615b0b565b80601f016020809104026020016040519081016040528092919081815260200182805461320c90615b0b565b80156132595780601f1061322e57610100808354040283529160200191613259565b820191906000526020600020905b81548152906001019060200180831161323c57829003601f168201915b5050505050815260200160058201805461327290615b0b565b80601f016020809104026020016040519081016040528092919081815260200182805461329e90615b0b565b80156132eb5780601f106132c0576101008083540402835291602001916132eb565b820191906000526020600020905b8154815290600101906020018083116132ce57829003601f168201915b5050505050815260200160068201805461330490615b0b565b80601f016020809104026020016040519081016040528092919081815260200182805461333090615b0b565b801561337d5780601f106133525761010080835404028352916020019161337d565b820191906000526020600020905b81548152906001019060200180831161336057829003601f168201915b50505050508152505084868151811061339857613398615b8b565b60209081029190910101526133ae600186615b73565b9450505080806133bd90615ba1565b9150506130d9565b60606133d082614522565b600082815260066020526040812080546133e990615b0b565b80601f016020809104026020016040519081016040528092919081815260200182805461341590615b0b565b80156134625780601f1061343757610100808354040283529160200191613462565b820191906000526020600020905b81548152906001019060200180831161344557829003601f168201915b50505050509050600061348060408051602081019091526000815290565b9050805160001415613493575092915050565b8151156134c55780826040516020016134ad929190615c97565b60405160208183030381529060405292505050919050565b6134ce84614bf4565b949350505050565b6040516001600160a01b038216903480156108fc02916000818181858888f19350505050158015612af5573d6000803e3d6000fd5b6000818152601760205260408082206002810154915190926001600160a01b03909216913480156108fc02929091818181858888f19350505050158015613556573d6000803e3d6000fd5b503481600301546135679190615b73565b6003820155600082815260176020526040902081548155600180830180548493928301919061359590615b0b565b6135a0929190614f6c565b5060028281015490820180546001600160a01b0319166001600160a01b039092169190911790556003808301549082015560048083018054918301916135e590615b0b565b6135f0929190614f6c565b50600582018160050190805461360590615b0b565b613610929190614f6c565b50600682018160060190805461362590615b0b565b613630929190614f6c565b5050505050565b6011602052600090815260409020805460018201805491929161365990615b0b565b80601f016020809104026020016040519081016040528092919081815260200182805461368590615b0b565b80156136d25780601f106136a7576101008083540402835291602001916136d2565b820191906000526020600020905b8154815290600101906020018083116136b557829003601f168201915b5050505050908060020180546136e790615b0b565b80601f016020809104026020016040519081016040528092919081815260200182805461371390615b0b565b80156137605780601f1061373557610100808354040283529160200191613760565b820191906000526020600020905b81548152906001019060200180831161374357829003601f168201915b50505050509080600301805461377590615b0b565b80601f01602080910402602001604051908101604052809291908181526020018280546137a190615b0b565b80156137ee5780601f106137c3576101008083540402835291602001916137ee565b820191906000526020600020905b8154815290600101906020018083116137d157829003601f168201915b50505050509080600401805461380390615b0b565b80601f016020809104026020016040519081016040528092919081815260200182805461382f90615b0b565b801561387c5780601f106138515761010080835404028352916020019161387c565b820191906000526020600020905b81548152906001019060200180831161385f57829003601f168201915b505050505090806005016040518060e0016040529081600082015481526020016001820180546138ab90615b0b565b80601f01602080910402602001604051908101604052809291908181526020018280546138d790615b0b565b80156139245780601f106138f957610100808354040283529160200191613924565b820191906000526020600020905b81548152906001019060200180831161390757829003601f168201915b5050505050815260200160028201548152602001600382016040518060e00160405290816000820154815260200160018201805461396190615b0b565b80601f016020809104026020016040519081016040528092919081815260200182805461398d90615b0b565b80156139da5780601f106139af576101008083540402835291602001916139da565b820191906000526020600020905b8154815290600101906020018083116139bd57829003601f168201915b505050918352505060028201546001600160a01b0316602082015260038201546040820152600482018054606090920191613a1490615b0b565b80601f0160208091040260200160405190810160405280929190818152602001828054613a4090615b0b565b8015613a8d5780601f10613a6257610100808354040283529160200191613a8d565b820191906000526020600020905b815481529060010190602001808311613a7057829003601f168201915b50505050508152602001600582018054613aa690615b0b565b80601f0160208091040260200160405190810160405280929190818152602001828054613ad290615b0b565b8015613b1f5780601f10613af457610100808354040283529160200191613b1f565b820191906000526020600020905b815481529060010190602001808311613b0257829003601f168201915b50505050508152602001600682018054613b3890615b0b565b80601f0160208091040260200160405190810160405280929190818152602001828054613b6490615b0b565b8015613bb15780601f10613b8657610100808354040283529160200191613bb1565b820191906000526020600020905b815481529060010190602001808311613b9457829003601f168201915b5050505050815250508152602001600a82018054613bce90615b0b565b80601f0160208091040260200160405190810160405280929190818152602001828054613bfa90615b0b565b8015613c475780601f10613c1c57610100808354040283529160200191613c47565b820191906000526020600020905b815481529060010190602001808311613c2a57829003601f168201915b50505050508152602001600b82018054613c6090615b0b565b80601f0160208091040260200160405190810160405280929190818152602001828054613c8c90615b0b565b8015613cd95780601f10613cae57610100808354040283529160200191613cd9565b820191906000526020600020905b815481529060010190602001808311613cbc57829003601f168201915b5050509183525050600c919091015460ff908116151560209092019190915260129092015490911687565b6001600160a01b03918216600090815260056020908152604080832093909416825291909152205460ff1690565b601860205260009081526040902080546001820180549192916115a490615b0b565b3360009081526013602090815260408083206012835281842054845290915281205460609180826001600160401b03811115613d9257613d926152f9565b604051908082528060200260200182016040528015613dcb57816020015b613db8614fe7565b815260200190600190039081613db05790505b50905060005b83811015611fa5576000613de6826001615b73565b90506000601160008381526020019081526020016000209050806040518060e001604052908160008201548152602001600182018054613e2590615b0b565b80601f0160208091040260200160405190810160405280929190818152602001828054613e5190615b0b565b8015613e9e5780601f10613e7357610100808354040283529160200191613e9e565b820191906000526020600020905b815481529060010190602001808311613e8157829003601f168201915b50505050508152602001600282018054613eb790615b0b565b80601f0160208091040260200160405190810160405280929190818152602001828054613ee390615b0b565b8015613f305780601f10613f0557610100808354040283529160200191613f30565b820191906000526020600020905b815481529060010190602001808311613f1357829003601f168201915b50505050508152602001600382018054613f4990615b0b565b80601f0160208091040260200160405190810160405280929190818152602001828054613f7590615b0b565b8015613fc25780601f10613f9757610100808354040283529160200191613fc2565b820191906000526020600020905b815481529060010190602001808311613fa557829003601f168201915b50505050508152602001600482018054613fdb90615b0b565b80601f016020809104026020016040519081016040528092919081815260200182805461400790615b0b565b80156140545780601f1061402957610100808354040283529160200191614054565b820191906000526020600020905b81548152906001019060200180831161403757829003601f168201915b50505050508152602001600582016040518060e00160405290816000820154815260200160018201805461408790615b0b565b80601f01602080910402602001604051908101604052809291908181526020018280546140b390615b0b565b80156141005780601f106140d557610100808354040283529160200191614100565b820191906000526020600020905b8154815290600101906020018083116140e357829003601f168201915b5050505050815260200160028201548152602001600382016040518060e00160405290816000820154815260200160018201805461413d90615b0b565b80601f016020809104026020016040519081016040528092919081815260200182805461416990615b0b565b80156141b65780601f1061418b576101008083540402835291602001916141b6565b820191906000526020600020905b81548152906001019060200180831161419957829003601f168201915b505050918352505060028201546001600160a01b03166020820152600382015460408201526004820180546060909201916141f090615b0b565b80601f016020809104026020016040519081016040528092919081815260200182805461421c90615b0b565b80156142695780601f1061423e57610100808354040283529160200191614269565b820191906000526020600020905b81548152906001019060200180831161424c57829003601f168201915b5050505050815260200160058201805461428290615b0b565b80601f01602080910402602001604051908101604052809291908181526020018280546142ae90615b0b565b80156142fb5780601f106142d0576101008083540402835291602001916142fb565b820191906000526020600020905b8154815290600101906020018083116142de57829003601f168201915b5050505050815260200160068201805461431490615b0b565b80601f016020809104026020016040519081016040528092919081815260200182805461434090615b0b565b801561438d5780601f106143625761010080835404028352916020019161438d565b820191906000526020600020905b81548152906001019060200180831161437057829003601f168201915b5050505050815250508152602001600a820180546143aa90615b0b565b80601f01602080910402602001604051908101604052809291908181526020018280546143d690615b0b565b80156144235780601f106143f857610100808354040283529160200191614423565b820191906000526020600020905b81548152906001019060200180831161440657829003601f168201915b50505050508152602001600b8201805461443c90615b0b565b80601f016020809104026020016040519081016040528092919081815260200182805461446890615b0b565b80156144b55780601f1061448a576101008083540402835291602001916144b5565b820191906000526020600020905b81548152906001019060200180831161449857829003601f168201915b5050509183525050600c919091015460ff90811615156020928301529183526012939093015416151591015284518590879081106144f5576144f5615b8b565b602090810291909101015261450b600186615b73565b94505050808061451a90615ba1565b915050613dd1565b61452b81614c68565b6145475760405162461bcd60e51b815260040161082e90615c0a565b50565b600081815260046020526040902080546001600160a01b0319166001600160a01b038416908117909155819061457f82611fad565b6001600160a01b03167f8c5be1e5ebec7d5bd14f71427d1e84f3dd0314c0f7b2291e5b200ac8c7c3b92560405160405180910390a45050565b6000806145c483611fad565b9050806001600160a01b0316846001600160a01b031614806145eb57506145eb8185613d04565b806134ce5750836001600160a01b031661460484610792565b6001600160a01b031614949350505050565b826001600160a01b031661462982611fad565b6001600160a01b03161461468d5760405162461bcd60e51b815260206004820152602560248201527f4552433732313a207472616e736665722066726f6d20696e636f72726563742060448201526437bbb732b960d91b606482015260840161082e565b6001600160a01b0382166146ef5760405162461bcd60e51b8152602060048201526024808201527f4552433732313a207472616e7366657220746f20746865207a65726f206164646044820152637265737360e01b606482015260840161082e565b6146fa60008261454a565b6001600160a01b0383166000908152600360205260408120805460019290614723908490615b5c565b90915550506001600160a01b0382166000908152600360205260408120805460019290614751908490615b73565b909155505060008181526002602052604080822080546001600160a01b0319166001600160a01b038681169182179092559151849391871691600080516020615da783398151915291a4505050565b6001600160a01b0382166147f65760405162461bcd60e51b815260206004820181905260248201527f4552433732313a206d696e7420746f20746865207a65726f2061646472657373604482015260640161082e565b6147ff81614c68565b1561484b5760405162461bcd60e51b815260206004820152601c60248201527b115490cdcc8c4e881d1bdad95b88185b1c9958591e481b5a5b9d195960221b604482015260640161082e565b6001600160a01b0382166000908152600360205260408120805460019290614874908490615b73565b909155505060008181526002602052604080822080546001600160a01b0319166001600160a01b0386169081179091559051839290600080516020615da7833981519152908290a45050565b6148c982614c68565b61492c5760405162461bcd60e51b815260206004820152602e60248201527f45524337323155524953746f726167653a2055524920736574206f66206e6f6e60448201526d32bc34b9ba32b73a103a37b5b2b760911b606482015260840161082e565b600082815260066020908152604090912082516108cf92840190614ee8565b6000841161499a5760405162461bcd60e51b815260206004820152601c60248201527b5072696365206d757374206265206174206c6561737420312077656960201b604482015260640161082e565b600c5434146149f75760405162461bcd60e51b8152602060048201526024808201527f5072696365206d75737420626520657175616c20746f206c697374696e6720706044820152637269636560e01b606482015260840161082e565b6040805161010081018252868152336020808301918252308385019081526060840189815260006080860181815260a087018b815260c088018b905260e088018a90528d8352600f8652979091208651815594516001860180546001600160a01b03199081166001600160a01b039384161790915593516002870180549095169116179092555160038401555160048301805460ff19169115159190911790559251805192939192614aaf9260058501920190614ee8565b5060c08201518051614acb916006840191602090910190614ee8565b5060e08201518051614ae7916007840191602090910190614ee8565b50905050613630333087614616565b816001600160a01b0316836001600160a01b03161415614b545760405162461bcd60e51b815260206004820152601960248201527822a9219b99189d1030b8383937bb32903a379031b0b63632b960391b604482015260640161082e565b6001600160a01b03838116600081815260056020908152604080832094871680845294825291829020805460ff191686151590811790915591519182527f17307eab39ab6107e8899845ad3d59bd9653f200f220920489ca2b5937696c31910160405180910390a3505050565b614bcc848484614616565b614bd884848484614c85565b612e725760405162461bcd60e51b815260040161082e90615cc6565b6060614bff82614522565b6000614c1660408051602081019091526000815290565b90506000815111614c365760405180602001604052806000815250614c61565b80614c4084614d92565b604051602001614c51929190615c97565b6040516020818303038152906040525b9392505050565b6000908152600260205260409020546001600160a01b0316151590565b60006001600160a01b0384163b15614d8757604051630a85bd0160e11b81526001600160a01b0385169063150b7a0290614cc9903390899088908890600401615d18565b602060405180830381600087803b158015614ce357600080fd5b505af1925050508015614d13575060408051601f3d908101601f19168201909252614d1091810190615d4b565b60015b614d6d573d808015614d41576040519150601f19603f3d011682016040523d82523d6000602084013e614d46565b606091505b508051614d655760405162461bcd60e51b815260040161082e90615cc6565b805181602001fd5b6001600160e01b031916630a85bd0160e11b1490506134ce565b506001949350505050565b606081614db65750506040805180820190915260018152600360fc1b602082015290565b8160005b8115614de05780614dca81615ba1565b9150614dd99050600a83615d7e565b9150614dba565b6000816001600160401b03811115614dfa57614dfa6152f9565b6040519080825280601f01601f191660200182016040528015614e24576020820181803683370190505b5090505b84156134ce57614e39600183615b5c565b9150614e46600a86615d92565b614e51906030615b73565b60f81b818381518110614e6657614e66615b8b565b60200101906001600160f81b031916908160001a905350614e88600a86615d7e565b9450614e28565b6040518061010001604052806000815260200160006001600160a01b0316815260200160006001600160a01b03168152602001600081526020016000151581526020016060815260200160608152602001606081525090565b828054614ef490615b0b565b90600052602060002090601f016020900481019282614f165760008555614f5c565b82601f10614f2f57805160ff1916838001178555614f5c565b82800160010185558215614f5c579182015b82811115614f5c578251825591602001919060010190614f41565b50614f689291506150b2565b5090565b828054614f7890615b0b565b90600052602060002090601f016020900481019282614f9a5760008555614f5c565b82601f10614fab5780548555614f5c565b82800160010185558215614f5c57600052602060002091601f016020900482015b82811115614f5c578254825591600101919060010190614fcc565b6040518060e00160405280600081526020016060815260200160608152602001606081526020016060815260200161501d615070565b8152600060209091015290565b6040518060e00160405280600081526020016060815260200160006001600160a01b03168152602001600081526020016060815260200160608152602001606081525090565b6040518060e0016040528060008152602001606081526020016000815260200161509861502a565b815260606020820181905260408201819052600091015290565b5b80821115614f6857600081556001016150b3565b6001600160e01b03198116811461454757600080fd5b6000602082840312156150ef57600080fd5b8135614c61816150c7565b60005b838110156151155781810151838201526020016150fd565b83811115612e725750506000910152565b6000815180845261513e8160208601602086016150fa565b601f01601f19169290920160200192915050565b602081526000614c616020830184615126565b60006020828403121561517757600080fd5b5035919050565b6001600160a01b03169052565b80356001600160a01b03811681146151a257600080fd5b919050565b600080604083850312156151ba57600080fd5b6151c38361518b565b946020939093013593505050565b60006020808301818452808551808352604092508286019150828160051b87010184880160005b838110156152af57603f19898403018552815161010081518552888201516152228a87018261517e565b50878201516152338987018261517e565b506060828101519086015260808083015115159086015260a08083015181870183905261526283880182615126565b9250505060c0808301518683038288015261527d8382615126565b9250505060e0808301519250858203818701525061529b8183615126565b9689019694505050908601906001016151f8565b509098975050505050505050565b6000806000606084860312156152d257600080fd5b6152db8461518b565b92506152e96020850161518b565b9150604084013590509250925092565b634e487b7160e01b600052604160045260246000fd5b60006001600160401b0380841115615329576153296152f9565b604051601f8501601f19908116603f01168101908282118183101715615351576153516152f9565b8160405280935085815286868601111561536a57600080fd5b858560208301376000602087830101525050509392505050565b600082601f83011261539557600080fd5b614c618383356020850161530f565b803580151581146151a257600080fd5b600080600080600060a086880312156153cc57600080fd5b85356001600160401b03808211156153e357600080fd5b6153ef89838a01615384565b9650602088013591508082111561540557600080fd5b61541189838a01615384565b9550604088013591508082111561542757600080fd5b61543389838a01615384565b9450606088013591508082111561544957600080fd5b5061545688828901615384565b925050615465608087016153a4565b90509295509295909350565b87815260e06020820152600061548a60e0830189615126565b6001600160a01b03881660408401526060830187905282810360808401526154b28187615126565b905082810360a08401526154c68186615126565b905082810360c08401526154da8185615126565b9a9950505050505050505050565b805182526000602082015160e0602085015261550760e0850182615126565b905060018060a01b036040840151166040850152606083015160608501526080830151848203608086015261553c8282615126565b91505060a083015184820360a08601526155568282615126565b91505060c083015184820360c08601526155708282615126565b95945050505050565b805182526000602082015160e0602085015261559860e0850182615126565b905060408301516040850152606083015184820360608601526155bb82826154e8565b915050608083015184820360808601526155d58282615126565b91505060a083015184820360a08601526155ef8282615126565b91505060c0830151151560c08501528091505092915050565b60006020808301818452808551808352604092508286019150828160051b87010184880160005b838110156152af57603f19898403018552815160e08151855288820151818a87015261565d82870182615126565b91505087820151858203898701526156758282615126565b9150506060808301518683038288015261568f8382615126565b92505050608080830151868303828801526156aa8382615126565b9250505060a080830151868303828801526156c58382615579565b60c0948501511515979094019690965250509487019492509086019060010161562f565b6000602082840312156156fb57600080fd5b614c618261518b565b602081526000614c6160208301846154e8565b6000602080830181845280855180835260408601915060408160051b870101925083870160005b8281101561576c57603f1988860301845261575a858351615579565b9450928501929085019060010161573e565b5092979650505050505050565b60008060006060848603121561578e57600080fd5b83356001600160401b03808211156157a557600080fd5b6157b187838801615384565b945060208601359150808211156157c757600080fd5b6157d387838801615384565b935060408601359150808211156157e957600080fd5b506157f686828701615384565b9150509250925092565b600080600080600060a0868803121561581857600080fd5b85356001600160401b038082111561582f57600080fd5b61583b89838a01615384565b965060208801359550604088013591508082111561585857600080fd5b61586489838a01615384565b9450606088013591508082111561587a57600080fd5b61588689838a01615384565b9350608088013591508082111561589c57600080fd5b506158a988828901615384565b9150509295509295909350565b600080604083850312156158c957600080fd5b6158d28361518b565b91506158e0602084016153a4565b90509250929050565b60008060008060008060c0878903121561590257600080fd5b863595506020870135945060408701356001600160401b038082111561592757600080fd5b6159338a838b01615384565b9550606089013591508082111561594957600080fd5b6159558a838b01615384565b945061596360808a016153a4565b935060a089013591508082111561597957600080fd5b5061598689828a01615384565b9150509295509295509295565b600080600080608085870312156159a957600080fd5b6159b28561518b565b93506159c06020860161518b565b92506040850135915060608501356001600160401b038111156159e257600080fd5b8501601f810187136159f357600080fd5b615a028782356020840161530f565b91505092959194509250565b6000602080830181845280855180835260408601915060408160051b870101925083870160005b8281101561576c57603f19888603018452615a518583516154e8565b94509285019290850190600101615a35565b87815260e060208201526000615a7c60e0830189615126565b8281036040840152615a8e8189615126565b90508281036060840152615aa28188615126565b90508281036080840152615ab68187615126565b905082810360a0840152615aca8186615579565b91505082151560c083015298975050505050505050565b60008060408385031215615af457600080fd5b615afd8361518b565b91506158e06020840161518b565b600181811c90821680615b1f57607f821691505b60208210811415615b4057634e487b7160e01b600052602260045260246000fd5b50919050565b634e487b7160e01b600052601160045260246000fd5b600082821015615b6e57615b6e615b46565b500390565b60008219821115615b8657615b86615b46565b500190565b634e487b7160e01b600052603260045260246000fd5b6000600019821415615bb557615bb5615b46565b5060010190565b6020808252602e908201527f4552433732313a2063616c6c6572206973206e6f7420746f6b656e206f776e6560408201526d1c881b9bdc88185c1c1c9bdd995960921b606082015260800190565b602080825260189082015277115490cdcc8c4e881a5b9d985b1a59081d1bdad95b88125160421b604082015260600190565b80516001600160501b03811681146151a257600080fd5b600080600080600060a08688031215615c6b57600080fd5b615c7486615c3c565b945060208601519350604086015192506060860151915061546560808701615c3c565b60008351615ca98184602088016150fa565b835190830190615cbd8183602088016150fa565b01949350505050565b60208082526032908201527f4552433732313a207472616e7366657220746f206e6f6e20455243373231526560408201527131b2b4bb32b91034b6b83632b6b2b73a32b960711b606082015260800190565b6001600160a01b0385811682528416602082015260408101839052608060608201819052600090612ae090830184615126565b600060208284031215615d5d57600080fd5b8151614c61816150c7565b634e487b7160e01b600052601260045260246000fd5b600082615d8d57615d8d615d68565b500490565b600082615da157615da1615d68565b50069056feddf252ad1be2c89b69c2b068fc378daa952ba7f163c4a11628f55a4df523b3efa26469706673582212202bab8d1087524aa0c1a0d5894fd701d35f6f165d626fe29464b754cc7b298c1264736f6c63430008090033","opcodes":"PUSH1 0x80 PUSH1 0x40 MSTORE PUSH7 0x58D15E17628000 PUSH1 0xC SSTORE CALLVALUE DUP1 ISZERO PUSH3 0x1C JUMPI PUSH1 0x0 DUP1 REVERT JUMPDEST POP PUSH1 0x40 DUP1 MLOAD DUP1 DUP3 ADD DUP3 MSTORE PUSH1 0x10 DUP2 MSTORE PUSH16 0x4D657461766572736520546F6B656E73 PUSH1 0x80 SHL PUSH1 0x20 DUP1 DUP4 ADD SWAP2 DUP3 MSTORE DUP4 MLOAD DUP1 DUP6 ADD SWAP1 SWAP5 MSTORE PUSH1 0x4 DUP5 MSTORE PUSH4 0x13515515 PUSH1 0xE2 SHL SWAP1 DUP5 ADD MSTORE DUP2 MLOAD SWAP2 SWAP3 SWAP2 PUSH3 0x71 SWAP2 PUSH1 0x0 SWAP2 PUSH3 0xC4 JUMP JUMPDEST POP DUP1 MLOAD PUSH3 0x87 SWAP1 PUSH1 0x1 SWAP1 PUSH1 0x20 DUP5 ADD SWAP1 PUSH3 0xC4 JUMP JUMPDEST POP POP PUSH1 0xD DUP1 SLOAD PUSH1 0x1 PUSH1 0x1 PUSH1 0xA0 SHL SUB NOT SWAP1 DUP2 AND CALLER OR SWAP1 SWAP2 SSTORE PUSH1 0xE DUP1 SLOAD SWAP1 SWAP2 AND PUSH20 0x7BAC85A8A13A4BCD8ABB3EB7D6B4D632C5A57676 OR SWAP1 SSTORE POP PUSH3 0x1A7 JUMP JUMPDEST DUP3 DUP1 SLOAD PUSH3 0xD2 SWAP1 PUSH3 0x16A JUMP JUMPDEST SWAP1 PUSH1 0x0 MSTORE PUSH1 0x20 PUSH1 0x0 KECCAK256 SWAP1 PUSH1 0x1F ADD PUSH1 0x20 SWAP1 DIV DUP2 ADD SWAP3 DUP3 PUSH3 0xF6 JUMPI PUSH1 0x0 DUP6 SSTORE PUSH3 0x141 JUMP JUMPDEST DUP3 PUSH1 0x1F LT PUSH3 0x111 JUMPI DUP1 MLOAD PUSH1 0xFF NOT AND DUP4 DUP1 ADD OR DUP6 SSTORE PUSH3 0x141 JUMP JUMPDEST DUP3 DUP1 ADD PUSH1 0x1 ADD DUP6 SSTORE DUP3 ISZERO PUSH3 0x141 JUMPI SWAP2 DUP3 ADD JUMPDEST DUP3 DUP2 GT ISZERO PUSH3 0x141 JUMPI DUP3 MLOAD DUP3 SSTORE SWAP2 PUSH1 0x20 ADD SWAP2 SWAP1 PUSH1 0x1 ADD SWAP1 PUSH3 0x124 JUMP JUMPDEST POP PUSH3 0x14F SWAP3 SWAP2 POP PUSH3 0x153 JUMP JUMPDEST POP SWAP1 JUMP JUMPDEST JUMPDEST DUP1 DUP3 GT ISZERO PUSH3 0x14F JUMPI PUSH1 0x0 DUP2 SSTORE PUSH1 0x1 ADD PUSH3 0x154 JUMP JUMPDEST PUSH1 0x1 DUP2 DUP2 SHR SWAP1 DUP3 AND DUP1 PUSH3 0x17F JUMPI PUSH1 0x7F DUP3 AND SWAP2 POP JUMPDEST PUSH1 0x20 DUP3 LT DUP2 EQ ISZERO PUSH3 0x1A1 JUMPI PUSH4 0x4E487B71 PUSH1 0xE0 SHL PUSH1 0x0 MSTORE PUSH1 0x22 PUSH1 0x4 MSTORE PUSH1 0x24 PUSH1 0x0 REVERT JUMPDEST POP SWAP2 SWAP1 POP JUMP JUMPDEST PUSH2 0x5DFC DUP1 PUSH3 0x1B7 PUSH1 0x0 CODECOPY PUSH1 0x0 RETURN INVALID PUSH1 0x80 PUSH1 0x40 MSTORE PUSH1 0x4 CALLDATASIZE LT PUSH2 0x1B5 JUMPI PUSH1 0x0 CALLDATALOAD PUSH1 0xE0 SHR DUP1 PUSH4 0x1FFC9A7 EQ PUSH2 0x1BA JUMPI DUP1 PUSH4 0x6FDDE03 EQ PUSH2 0x1EF JUMPI DUP1 PUSH4 0x81812FC EQ PUSH2 0x211 JUMPI DUP1 PUSH4 0x95EA7B3 EQ PUSH2 0x249 JUMPI DUP1 PUSH4 0xF08EFE0 EQ PUSH2 0x26B JUMPI DUP1 PUSH4 0x12E85585 EQ PUSH2 0x28D JUMPI DUP1 PUSH4 0x23B872DD EQ PUSH2 0x2AC JUMPI DUP1 PUSH4 0x421BAC1A EQ PUSH2 0x2CC JUMPI DUP1 PUSH4 0x42842E0E EQ PUSH2 0x2EC JUMPI DUP1 PUSH4 0x45F8FA80 EQ PUSH2 0x30C JUMPI DUP1 PUSH4 0x4869F631 EQ PUSH2 0x321 JUMPI DUP1 PUSH4 0x49F0C1E5 EQ PUSH2 0x336 JUMPI DUP1 PUSH4 0x4B1B7B84 EQ PUSH2 0x362 JUMPI DUP1 PUSH4 0x5C517234 EQ PUSH2 0x395 JUMPI DUP1 PUSH4 0x6352211E EQ PUSH2 0x3B7 JUMPI DUP1 PUSH4 0x70A08231 EQ PUSH2 0x3D7 JUMPI DUP1 PUSH4 0x7FF97188 EQ PUSH2 0x3F7 JUMPI DUP1 PUSH4 0x8865BA66 EQ PUSH2 0x424 JUMPI DUP1 PUSH4 0x8C4796C7 EQ PUSH2 0x446 JUMPI DUP1 PUSH4 0x95D89B41 EQ PUSH2 0x473 JUMPI DUP1 PUSH4 0x9841C82C EQ PUSH2 0x488 JUMPI DUP1 PUSH4 0x9E0D2DA8 EQ PUSH2 0x4A8 JUMPI DUP1 PUSH4 0xA22CB465 EQ PUSH2 0x4BB JUMPI DUP1 PUSH4 0xAE677AA3 EQ PUSH2 0x4DB JUMPI DUP1 PUSH4 0xB756A20D EQ PUSH2 0x4EE JUMPI DUP1 PUSH4 0xB88D4FDE EQ PUSH2 0x50E JUMPI DUP1 PUSH4 0xBB27E0CE EQ PUSH2 0x52E JUMPI DUP1 PUSH4 0xBE9AF536 EQ PUSH2 0x543 JUMPI DUP1 PUSH4 0xC3374315 EQ PUSH2 0x556 JUMPI DUP1 PUSH4 0xC3C5A547 EQ PUSH2 0x578 JUMPI DUP1 PUSH4 0xC87B56DD EQ PUSH2 0x5A8 JUMPI DUP1 PUSH4 0xCB0DF56C EQ PUSH2 0x5C8 JUMPI DUP1 PUSH4 0xD1D8A068 EQ PUSH2 0x5DB JUMPI DUP1 PUSH4 0xD5C25F19 EQ PUSH2 0x5EE JUMPI DUP1 PUSH4 0xE89E6A00 EQ PUSH2 0x626 JUMPI DUP1 PUSH4 0xE985E9C5 EQ PUSH2 0x659 JUMPI DUP1 PUSH4 0xEC7FE52D EQ PUSH2 0x679 JUMPI DUP1 PUSH4 0xFCEFC5DB EQ PUSH2 0x699 JUMPI JUMPDEST PUSH1 0x0 DUP1 REVERT JUMPDEST CALLVALUE DUP1 ISZERO PUSH2 0x1C6 JUMPI PUSH1 0x0 DUP1 REVERT JUMPDEST POP PUSH2 0x1DA PUSH2 0x1D5 CALLDATASIZE PUSH1 0x4 PUSH2 0x50DD JUMP JUMPDEST PUSH2 0x6AE JUMP JUMPDEST PUSH1 0x40 MLOAD SWAP1 ISZERO ISZERO DUP2 MSTORE PUSH1 0x20 ADD JUMPDEST PUSH1 0x40 MLOAD DUP1 SWAP2 SUB SWAP1 RETURN JUMPDEST CALLVALUE DUP1 ISZERO PUSH2 0x1FB JUMPI PUSH1 0x0 DUP1 REVERT JUMPDEST POP PUSH2 0x204 PUSH2 0x700 JUMP JUMPDEST PUSH1 0x40 MLOAD PUSH2 0x1E6 SWAP2 SWAP1 PUSH2 0x5152 JUMP JUMPDEST CALLVALUE DUP1 ISZERO PUSH2 0x21D JUMPI PUSH1 0x0 DUP1 REVERT JUMPDEST POP PUSH2 0x231 PUSH2 0x22C CALLDATASIZE PUSH1 0x4 PUSH2 0x5165 JUMP JUMPDEST PUSH2 0x792 JUMP JUMPDEST PUSH1 0x40 MLOAD PUSH1 0x1 PUSH1 0x1 PUSH1 0xA0 SHL SUB SWAP1 SWAP2 AND DUP2 MSTORE PUSH1 0x20 ADD PUSH2 0x1E6 JUMP JUMPDEST CALLVALUE DUP1 ISZERO PUSH2 0x255 JUMPI PUSH1 0x0 DUP1 REVERT JUMPDEST POP PUSH2 0x269 PUSH2 0x264 CALLDATASIZE PUSH1 0x4 PUSH2 0x51A7 JUMP JUMPDEST PUSH2 0x7B9 JUMP JUMPDEST STOP JUMPDEST CALLVALUE DUP1 ISZERO PUSH2 0x277 JUMPI PUSH1 0x0 DUP1 REVERT JUMPDEST POP PUSH2 0x280 PUSH2 0x8D4 JUMP JUMPDEST PUSH1 0x40 MLOAD PUSH2 0x1E6 SWAP2 SWAP1 PUSH2 0x51D1 JUMP JUMPDEST CALLVALUE DUP1 ISZERO PUSH2 0x299 JUMPI PUSH1 0x0 DUP1 REVERT JUMPDEST POP PUSH1 0xC SLOAD JUMPDEST PUSH1 0x40 MLOAD SWAP1 DUP2 MSTORE PUSH1 0x20 ADD PUSH2 0x1E6 JUMP JUMPDEST CALLVALUE DUP1 ISZERO PUSH2 0x2B8 JUMPI PUSH1 0x0 DUP1 REVERT JUMPDEST POP PUSH2 0x269 PUSH2 0x2C7 CALLDATASIZE PUSH1 0x4 PUSH2 0x52BD JUMP JUMPDEST PUSH2 0xC09 JUMP JUMPDEST CALLVALUE DUP1 ISZERO PUSH2 0x2D8 JUMPI PUSH1 0x0 DUP1 REVERT JUMPDEST POP PUSH2 0x269 PUSH2 0x2E7 CALLDATASIZE PUSH1 0x4 PUSH2 0x53B4 JUMP JUMPDEST PUSH2 0xC3A JUMP JUMPDEST CALLVALUE DUP1 ISZERO PUSH2 0x2F8 JUMPI PUSH1 0x0 DUP1 REVERT JUMPDEST POP PUSH2 0x269 PUSH2 0x307 CALLDATASIZE PUSH1 0x4 PUSH2 0x52BD JUMP JUMPDEST PUSH2 0x11CB JUMP JUMPDEST CALLVALUE DUP1 ISZERO PUSH2 0x318 JUMPI PUSH1 0x0 DUP1 REVERT JUMPDEST POP PUSH2 0x280 PUSH2 0x11E6 JUMP JUMPDEST CALLVALUE DUP1 ISZERO PUSH2 0x32D JUMPI PUSH1 0x0 DUP1 REVERT JUMPDEST POP PUSH2 0x1DA PUSH2 0x1559 JUMP JUMPDEST CALLVALUE DUP1 ISZERO PUSH2 0x342 JUMPI PUSH1 0x0 DUP1 REVERT JUMPDEST POP PUSH2 0x269 CALLER PUSH1 0x0 SWAP1 DUP2 MSTORE PUSH1 0x10 PUSH1 0x20 MSTORE PUSH1 0x40 SWAP1 KECCAK256 DUP1 SLOAD PUSH1 0xFF NOT AND PUSH1 0x1 OR SWAP1 SSTORE JUMP JUMPDEST CALLVALUE DUP1 ISZERO PUSH2 0x36E JUMPI PUSH1 0x0 DUP1 REVERT JUMPDEST POP PUSH2 0x382 PUSH2 0x37D CALLDATASIZE PUSH1 0x4 PUSH2 0x5165 JUMP JUMPDEST PUSH2 0x1582 JUMP JUMPDEST PUSH1 0x40 MLOAD PUSH2 0x1E6 SWAP8 SWAP7 SWAP6 SWAP5 SWAP4 SWAP3 SWAP2 SWAP1 PUSH2 0x5471 JUMP JUMPDEST CALLVALUE DUP1 ISZERO PUSH2 0x3A1 JUMPI PUSH1 0x0 DUP1 REVERT JUMPDEST POP PUSH2 0x3AA PUSH2 0x17EB JUMP JUMPDEST PUSH1 0x40 MLOAD PUSH2 0x1E6 SWAP2 SWAP1 PUSH2 0x5608 JUMP JUMPDEST CALLVALUE DUP1 ISZERO PUSH2 0x3C3 JUMPI PUSH1 0x0 DUP1 REVERT JUMPDEST POP PUSH2 0x231 PUSH2 0x3D2 CALLDATASIZE PUSH1 0x4 PUSH2 0x5165 JUMP JUMPDEST PUSH2 0x1FAD JUMP JUMPDEST CALLVALUE DUP1 ISZERO PUSH2 0x3E3 JUMPI PUSH1 0x0 DUP1 REVERT JUMPDEST POP PUSH2 0x29E PUSH2 0x3F2 CALLDATASIZE PUSH1 0x4 PUSH2 0x56E9 JUMP JUMPDEST PUSH2 0x1FE2 JUMP JUMPDEST CALLVALUE DUP1 ISZERO PUSH2 0x403 JUMPI PUSH1 0x0 DUP1 REVERT JUMPDEST POP PUSH2 0x29E PUSH2 0x412 CALLDATASIZE PUSH1 0x4 PUSH2 0x56E9 JUMP JUMPDEST PUSH1 0x12 PUSH1 0x20 MSTORE PUSH1 0x0 SWAP1 DUP2 MSTORE PUSH1 0x40 SWAP1 KECCAK256 SLOAD DUP2 JUMP JUMPDEST CALLVALUE DUP1 ISZERO PUSH2 0x430 JUMPI PUSH1 0x0 DUP1 REVERT JUMPDEST POP PUSH2 0x439 PUSH2 0x2068 JUMP JUMPDEST PUSH1 0x40 MLOAD PUSH2 0x1E6 SWAP2 SWAP1 PUSH2 0x5704 JUMP JUMPDEST CALLVALUE DUP1 ISZERO PUSH2 0x452 JUMPI PUSH1 0x0 DUP1 REVERT JUMPDEST POP PUSH2 0x466 PUSH2 0x461 CALLDATASIZE PUSH1 0x4 PUSH2 0x5165 JUMP JUMPDEST PUSH2 0x2302 JUMP JUMPDEST PUSH1 0x40 MLOAD PUSH2 0x1E6 SWAP2 SWAP1 PUSH2 0x5717 JUMP JUMPDEST CALLVALUE DUP1 ISZERO PUSH2 0x47F JUMPI PUSH1 0x0 DUP1 REVERT JUMPDEST POP PUSH2 0x204 PUSH2 0x284A JUMP JUMPDEST CALLVALUE DUP1 ISZERO PUSH2 0x494 JUMPI PUSH1 0x0 DUP1 REVERT JUMPDEST POP PUSH2 0x269 PUSH2 0x4A3 CALLDATASIZE PUSH1 0x4 PUSH2 0x5779 JUMP JUMPDEST PUSH2 0x2859 JUMP JUMPDEST PUSH2 0x29E PUSH2 0x4B6 CALLDATASIZE PUSH1 0x4 PUSH2 0x5800 JUMP JUMPDEST PUSH2 0x2AA2 JUMP JUMPDEST CALLVALUE DUP1 ISZERO PUSH2 0x4C7 JUMPI PUSH1 0x0 DUP1 REVERT JUMPDEST POP PUSH2 0x269 PUSH2 0x4D6 CALLDATASIZE PUSH1 0x4 PUSH2 0x58B6 JUMP JUMPDEST PUSH2 0x2AEA JUMP JUMPDEST PUSH2 0x269 PUSH2 0x4E9 CALLDATASIZE PUSH1 0x4 PUSH2 0x5165 JUMP JUMPDEST PUSH2 0x2AF9 JUMP JUMPDEST CALLVALUE DUP1 ISZERO PUSH2 0x4FA JUMPI PUSH1 0x0 DUP1 REVERT JUMPDEST POP PUSH2 0x269 PUSH2 0x509 CALLDATASIZE PUSH1 0x4 PUSH2 0x58E9 JUMP JUMPDEST PUSH2 0x2B71 JUMP JUMPDEST CALLVALUE DUP1 ISZERO PUSH2 0x51A JUMPI PUSH1 0x0 DUP1 REVERT JUMPDEST POP PUSH2 0x269 PUSH2 0x529 CALLDATASIZE PUSH1 0x4 PUSH2 0x5993 JUMP JUMPDEST PUSH2 0x2E40 JUMP JUMPDEST CALLVALUE DUP1 ISZERO PUSH2 0x53A JUMPI PUSH1 0x0 DUP1 REVERT JUMPDEST POP PUSH2 0x29E PUSH2 0x2E78 JUMP JUMPDEST PUSH2 0x269 PUSH2 0x551 CALLDATASIZE PUSH1 0x4 PUSH2 0x5165 JUMP JUMPDEST PUSH2 0x2F0B JUMP JUMPDEST CALLVALUE DUP1 ISZERO PUSH2 0x562 JUMPI PUSH1 0x0 DUP1 REVERT JUMPDEST POP PUSH2 0x56B PUSH2 0x3070 JUMP JUMPDEST PUSH1 0x40 MLOAD PUSH2 0x1E6 SWAP2 SWAP1 PUSH2 0x5A0E JUMP JUMPDEST CALLVALUE DUP1 ISZERO PUSH2 0x584 JUMPI PUSH1 0x0 DUP1 REVERT JUMPDEST POP PUSH2 0x1DA PUSH2 0x593 CALLDATASIZE PUSH1 0x4 PUSH2 0x56E9 JUMP JUMPDEST PUSH1 0x10 PUSH1 0x20 MSTORE PUSH1 0x0 SWAP1 DUP2 MSTORE PUSH1 0x40 SWAP1 KECCAK256 SLOAD PUSH1 0xFF AND DUP2 JUMP JUMPDEST CALLVALUE DUP1 ISZERO PUSH2 0x5B4 JUMPI PUSH1 0x0 DUP1 REVERT JUMPDEST POP PUSH2 0x204 PUSH2 0x5C3 CALLDATASIZE PUSH1 0x4 PUSH2 0x5165 JUMP JUMPDEST PUSH2 0x33C5 JUMP JUMPDEST PUSH2 0x269 PUSH2 0x5D6 CALLDATASIZE PUSH1 0x4 PUSH2 0x56E9 JUMP JUMPDEST PUSH2 0x34D6 JUMP JUMPDEST PUSH2 0x269 PUSH2 0x5E9 CALLDATASIZE PUSH1 0x4 PUSH2 0x5165 JUMP JUMPDEST PUSH2 0x350B JUMP JUMPDEST CALLVALUE DUP1 ISZERO PUSH2 0x5FA JUMPI PUSH1 0x0 DUP1 REVERT JUMPDEST POP PUSH2 0x29E PUSH2 0x609 CALLDATASIZE PUSH1 0x4 PUSH2 0x51A7 JUMP JUMPDEST PUSH1 0x15 PUSH1 0x20 SWAP1 DUP2 MSTORE PUSH1 0x0 SWAP3 DUP4 MSTORE PUSH1 0x40 DUP1 DUP5 KECCAK256 SWAP1 SWAP2 MSTORE SWAP1 DUP3 MSTORE SWAP1 KECCAK256 SLOAD DUP2 JUMP JUMPDEST CALLVALUE DUP1 ISZERO PUSH2 0x632 JUMPI PUSH1 0x0 DUP1 REVERT JUMPDEST POP PUSH2 0x646 PUSH2 0x641 CALLDATASIZE PUSH1 0x4 PUSH2 0x5165 JUMP JUMPDEST PUSH2 0x3637 JUMP JUMPDEST PUSH1 0x40 MLOAD PUSH2 0x1E6 SWAP8 SWAP7 SWAP6 SWAP5 SWAP4 SWAP3 SWAP2 SWAP1 PUSH2 0x5A63 JUMP JUMPDEST CALLVALUE DUP1 ISZERO PUSH2 0x665 JUMPI PUSH1 0x0 DUP1 REVERT JUMPDEST POP PUSH2 0x1DA PUSH2 0x674 CALLDATASIZE PUSH1 0x4 PUSH2 0x5AE1 JUMP JUMPDEST PUSH2 0x3D04 JUMP JUMPDEST CALLVALUE DUP1 ISZERO PUSH2 0x685 JUMPI PUSH1 0x0 DUP1 REVERT JUMPDEST POP PUSH2 0x382 PUSH2 0x694 CALLDATASIZE PUSH1 0x4 PUSH2 0x56E9 JUMP JUMPDEST PUSH2 0x3D32 JUMP JUMPDEST CALLVALUE DUP1 ISZERO PUSH2 0x6A5 JUMPI PUSH1 0x0 DUP1 REVERT JUMPDEST POP PUSH2 0x3AA PUSH2 0x3D54 JUMP JUMPDEST PUSH1 0x0 PUSH1 0x1 PUSH1 0x1 PUSH1 0xE0 SHL SUB NOT DUP3 AND PUSH4 0x80AC58CD PUSH1 0xE0 SHL EQ DUP1 PUSH2 0x6DF JUMPI POP PUSH1 0x1 PUSH1 0x1 PUSH1 0xE0 SHL SUB NOT DUP3 AND PUSH4 0x5B5E139F PUSH1 0xE0 SHL EQ JUMPDEST DUP1 PUSH2 0x6FA JUMPI POP PUSH4 0x1FFC9A7 PUSH1 0xE0 SHL PUSH1 0x1 PUSH1 0x1 PUSH1 0xE0 SHL SUB NOT DUP4 AND EQ JUMPDEST SWAP3 SWAP2 POP POP JUMP JUMPDEST PUSH1 0x60 PUSH1 0x0 DUP1 SLOAD PUSH2 0x70F SWAP1 PUSH2 0x5B0B JUMP JUMPDEST DUP1 PUSH1 0x1F ADD PUSH1 0x20 DUP1 SWAP2 DIV MUL PUSH1 0x20 ADD PUSH1 0x40 MLOAD SWAP1 DUP2 ADD PUSH1 0x40 MSTORE DUP1 SWAP3 SWAP2 SWAP1 DUP2 DUP2 MSTORE PUSH1 0x20 ADD DUP3 DUP1 SLOAD PUSH2 0x73B SWAP1 PUSH2 0x5B0B JUMP JUMPDEST DUP1 ISZERO PUSH2 0x788 JUMPI DUP1 PUSH1 0x1F LT PUSH2 0x75D JUMPI PUSH2 0x100 DUP1 DUP4 SLOAD DIV MUL DUP4 MSTORE SWAP2 PUSH1 0x20 ADD SWAP2 PUSH2 0x788 JUMP JUMPDEST DUP3 ADD SWAP2 SWAP1 PUSH1 0x0 MSTORE PUSH1 0x20 PUSH1 0x0 KECCAK256 SWAP1 JUMPDEST DUP2 SLOAD DUP2 MSTORE SWAP1 PUSH1 0x1 ADD SWAP1 PUSH1 0x20 ADD DUP1 DUP4 GT PUSH2 0x76B JUMPI DUP3 SWAP1 SUB PUSH1 0x1F AND DUP3 ADD SWAP2 JUMPDEST POP POP POP POP POP SWAP1 POP SWAP1 JUMP JUMPDEST PUSH1 0x0 PUSH2 0x79D DUP3 PUSH2 0x4522 JUMP JUMPDEST POP PUSH1 0x0 SWAP1 DUP2 MSTORE PUSH1 0x4 PUSH1 0x20 MSTORE PUSH1 0x40 SWAP1 KECCAK256 SLOAD PUSH1 0x1 PUSH1 0x1 PUSH1 0xA0 SHL SUB AND SWAP1 JUMP JUMPDEST PUSH1 0x0 PUSH2 0x7C4 DUP3 PUSH2 0x1FAD JUMP JUMPDEST SWAP1 POP DUP1 PUSH1 0x1 PUSH1 0x1 PUSH1 0xA0 SHL SUB AND DUP4 PUSH1 0x1 PUSH1 0x1 PUSH1 0xA0 SHL SUB AND EQ ISZERO PUSH2 0x837 JUMPI PUSH1 0x40 MLOAD PUSH3 0x461BCD PUSH1 0xE5 SHL DUP2 MSTORE PUSH1 0x20 PUSH1 0x4 DUP3 ADD MSTORE PUSH1 0x21 PUSH1 0x24 DUP3 ADD MSTORE PUSH32 0x4552433732313A20617070726F76616C20746F2063757272656E74206F776E65 PUSH1 0x44 DUP3 ADD MSTORE PUSH1 0x39 PUSH1 0xF9 SHL PUSH1 0x64 DUP3 ADD MSTORE PUSH1 0x84 ADD JUMPDEST PUSH1 0x40 MLOAD DUP1 SWAP2 SUB SWAP1 REVERT JUMPDEST CALLER PUSH1 0x1 PUSH1 0x1 PUSH1 0xA0 SHL SUB DUP3 AND EQ DUP1 PUSH2 0x853 JUMPI POP PUSH2 0x853 DUP2 CALLER PUSH2 0x3D04 JUMP JUMPDEST PUSH2 0x8C5 JUMPI PUSH1 0x40 MLOAD PUSH3 0x461BCD PUSH1 0xE5 SHL DUP2 MSTORE PUSH1 0x20 PUSH1 0x4 DUP3 ADD MSTORE PUSH1 0x3E PUSH1 0x24 DUP3 ADD MSTORE PUSH32 0x4552433732313A20617070726F76652063616C6C6572206973206E6F7420746F PUSH1 0x44 DUP3 ADD MSTORE PUSH32 0x6B656E206F776E6572206E6F7220617070726F76656420666F7220616C6C0000 PUSH1 0x64 DUP3 ADD MSTORE PUSH1 0x84 ADD PUSH2 0x82E JUMP JUMPDEST PUSH2 0x8CF DUP4 DUP4 PUSH2 0x454A JUMP JUMPDEST POP POP POP JUMP JUMPDEST PUSH1 0x60 PUSH1 0x0 PUSH2 0x8E1 PUSH1 0x7 SLOAD SWAP1 JUMP JUMPDEST SWAP1 POP PUSH1 0x0 PUSH2 0x8EE PUSH1 0x8 SLOAD SWAP1 JUMP JUMPDEST PUSH1 0x7 SLOAD PUSH2 0x8FB SWAP2 SWAP1 PUSH2 0x5B5C JUMP JUMPDEST SWAP1 POP PUSH1 0x0 DUP1 DUP3 PUSH1 0x1 PUSH1 0x1 PUSH1 0x40 SHL SUB DUP2 GT ISZERO PUSH2 0x918 JUMPI PUSH2 0x918 PUSH2 0x52F9 JUMP JUMPDEST PUSH1 0x40 MLOAD SWAP1 DUP1 DUP3 MSTORE DUP1 PUSH1 0x20 MUL PUSH1 0x20 ADD DUP3 ADD PUSH1 0x40 MSTORE DUP1 ISZERO PUSH2 0x951 JUMPI DUP2 PUSH1 0x20 ADD JUMPDEST PUSH2 0x93E PUSH2 0x4E8F JUMP JUMPDEST DUP2 MSTORE PUSH1 0x20 ADD SWAP1 PUSH1 0x1 SWAP1 SUB SWAP1 DUP2 PUSH2 0x936 JUMPI SWAP1 POP JUMPDEST POP SWAP1 POP PUSH1 0x0 JUMPDEST DUP5 DUP2 LT ISZERO PUSH2 0xC00 JUMPI ADDRESS PUSH1 0xF PUSH1 0x0 PUSH2 0x96F DUP5 PUSH1 0x1 PUSH2 0x5B73 JUMP JUMPDEST DUP2 MSTORE PUSH1 0x20 DUP2 ADD SWAP2 SWAP1 SWAP2 MSTORE PUSH1 0x40 ADD PUSH1 0x0 KECCAK256 PUSH1 0x2 ADD SLOAD PUSH1 0x1 PUSH1 0x1 PUSH1 0xA0 SHL SUB AND EQ ISZERO PUSH2 0xBEE JUMPI PUSH1 0x0 PUSH2 0x99F DUP3 PUSH1 0x1 PUSH2 0x5B73 JUMP JUMPDEST PUSH1 0x0 DUP2 DUP2 MSTORE PUSH1 0xF PUSH1 0x20 SWAP1 DUP2 MSTORE PUSH1 0x40 SWAP2 DUP3 SWAP1 KECCAK256 DUP3 MLOAD PUSH2 0x100 DUP2 ADD DUP5 MSTORE DUP2 SLOAD DUP2 MSTORE PUSH1 0x1 DUP3 ADD SLOAD PUSH1 0x1 PUSH1 0x1 PUSH1 0xA0 SHL SUB SWAP1 DUP2 AND SWAP4 DUP3 ADD SWAP4 SWAP1 SWAP4 MSTORE PUSH1 0x2 DUP3 ADD SLOAD SWAP1 SWAP3 AND SWAP3 DUP3 ADD SWAP3 SWAP1 SWAP3 MSTORE PUSH1 0x3 DUP3 ADD SLOAD PUSH1 0x60 DUP3 ADD MSTORE PUSH1 0x4 DUP3 ADD SLOAD PUSH1 0xFF AND ISZERO ISZERO PUSH1 0x80 DUP3 ADD MSTORE PUSH1 0x5 DUP3 ADD DUP1 SLOAD SWAP4 SWAP5 POP SWAP2 SWAP3 SWAP1 SWAP2 DUP4 SWAP2 PUSH1 0xA0 DUP5 ADD SWAP2 SWAP1 PUSH2 0xA1B SWAP1 PUSH2 0x5B0B JUMP JUMPDEST DUP1 PUSH1 0x1F ADD PUSH1 0x20 DUP1 SWAP2 DIV MUL PUSH1 0x20 ADD PUSH1 0x40 MLOAD SWAP1 DUP2 ADD PUSH1 0x40 MSTORE DUP1 SWAP3 SWAP2 SWAP1 DUP2 DUP2 MSTORE PUSH1 0x20 ADD DUP3 DUP1 SLOAD PUSH2 0xA47 SWAP1 PUSH2 0x5B0B JUMP JUMPDEST DUP1 ISZERO PUSH2 0xA94 JUMPI DUP1 PUSH1 0x1F LT PUSH2 0xA69 JUMPI PUSH2 0x100 DUP1 DUP4 SLOAD DIV MUL DUP4 MSTORE SWAP2 PUSH1 0x20 ADD SWAP2 PUSH2 0xA94 JUMP JUMPDEST DUP3 ADD SWAP2 SWAP1 PUSH1 0x0 MSTORE PUSH1 0x20 PUSH1 0x0 KECCAK256 SWAP1 JUMPDEST DUP2 SLOAD DUP2 MSTORE SWAP1 PUSH1 0x1 ADD SWAP1 PUSH1 0x20 ADD DUP1 DUP4 GT PUSH2 0xA77 JUMPI DUP3 SWAP1 SUB PUSH1 0x1F AND DUP3 ADD SWAP2 JUMPDEST POP POP POP POP POP DUP2 MSTORE PUSH1 0x20 ADD PUSH1 0x6 DUP3 ADD DUP1 SLOAD PUSH2 0xAAD SWAP1 PUSH2 0x5B0B JUMP JUMPDEST DUP1 PUSH1 0x1F ADD PUSH1 0x20 DUP1 SWAP2 DIV MUL PUSH1 0x20 ADD PUSH1 0x40 MLOAD SWAP1 DUP2 ADD PUSH1 0x40 MSTORE DUP1 SWAP3 SWAP2 SWAP1 DUP2 DUP2 MSTORE PUSH1 0x20 ADD DUP3 DUP1 SLOAD PUSH2 0xAD9 SWAP1 PUSH2 0x5B0B JUMP JUMPDEST DUP1 ISZERO PUSH2 0xB26 JUMPI DUP1 PUSH1 0x1F LT PUSH2 0xAFB JUMPI PUSH2 0x100 DUP1 DUP4 SLOAD DIV MUL DUP4 MSTORE SWAP2 PUSH1 0x20 ADD SWAP2 PUSH2 0xB26 JUMP JUMPDEST DUP3 ADD SWAP2 SWAP1 PUSH1 0x0 MSTORE PUSH1 0x20 PUSH1 0x0 KECCAK256 SWAP1 JUMPDEST DUP2 SLOAD DUP2 MSTORE SWAP1 PUSH1 0x1 ADD SWAP1 PUSH1 0x20 ADD DUP1 DUP4 GT PUSH2 0xB09 JUMPI DUP3 SWAP1 SUB PUSH1 0x1F AND DUP3 ADD SWAP2 JUMPDEST POP POP POP POP POP DUP2 MSTORE PUSH1 0x20 ADD PUSH1 0x7 DUP3 ADD DUP1 SLOAD PUSH2 0xB3F SWAP1 PUSH2 0x5B0B JUMP JUMPDEST DUP1 PUSH1 0x1F ADD PUSH1 0x20 DUP1 SWAP2 DIV MUL PUSH1 0x20 ADD PUSH1 0x40 MLOAD SWAP1 DUP2 ADD PUSH1 0x40 MSTORE DUP1 SWAP3 SWAP2 SWAP1 DUP2 DUP2 MSTORE PUSH1 0x20 ADD DUP3 DUP1 SLOAD PUSH2 0xB6B SWAP1 PUSH2 0x5B0B JUMP JUMPDEST DUP1 ISZERO PUSH2 0xBB8 JUMPI DUP1 PUSH1 0x1F LT PUSH2 0xB8D JUMPI PUSH2 0x100 DUP1 DUP4 SLOAD DIV MUL DUP4 MSTORE SWAP2 PUSH1 0x20 ADD SWAP2 PUSH2 0xBB8 JUMP JUMPDEST DUP3 ADD SWAP2 SWAP1 PUSH1 0x0 MSTORE PUSH1 0x20 PUSH1 0x0 KECCAK256 SWAP1 JUMPDEST DUP2 SLOAD DUP2 MSTORE SWAP1 PUSH1 0x1 ADD SWAP1 PUSH1 0x20 ADD DUP1 DUP4 GT PUSH2 0xB9B JUMPI DUP3 SWAP1 SUB PUSH1 0x1F AND DUP3 ADD SWAP2 JUMPDEST POP POP POP POP POP DUP2 MSTORE POP POP DUP5 DUP7 DUP2 MLOAD DUP2 LT PUSH2 0xBD3 JUMPI PUSH2 0xBD3 PUSH2 0x5B8B JUMP JUMPDEST PUSH1 0x20 SWAP1 DUP2 MUL SWAP2 SWAP1 SWAP2 ADD ADD MSTORE PUSH2 0xBE9 PUSH1 0x1 DUP7 PUSH2 0x5B73 JUMP JUMPDEST SWAP5 POP POP POP JUMPDEST DUP1 PUSH2 0xBF8 DUP2 PUSH2 0x5BA1 JUMP JUMPDEST SWAP2 POP POP PUSH2 0x957 JUMP JUMPDEST POP SWAP5 SWAP4 POP POP POP POP JUMP JUMPDEST PUSH2 0xC13 CALLER DUP3 PUSH2 0x45B8 JUMP JUMPDEST PUSH2 0xC2F JUMPI PUSH1 0x40 MLOAD PUSH3 0x461BCD PUSH1 0xE5 SHL DUP2 MSTORE PUSH1 0x4 ADD PUSH2 0x82E SWAP1 PUSH2 0x5BBC JUMP JUMPDEST PUSH2 0x8CF DUP4 DUP4 DUP4 PUSH2 0x4616 JUMP JUMPDEST CALLER PUSH1 0x0 SWAP1 DUP2 MSTORE PUSH1 0x12 PUSH1 0x20 MSTORE PUSH1 0x40 SWAP1 KECCAK256 SLOAD PUSH2 0xC55 SWAP1 PUSH1 0x1 PUSH2 0x5B73 JUMP JUMPDEST CALLER PUSH1 0x0 SWAP1 DUP2 MSTORE PUSH1 0x12 PUSH1 0x20 MSTORE PUSH1 0x40 SWAP1 KECCAK256 SSTORE PUSH2 0xC73 PUSH1 0x9 DUP1 SLOAD PUSH1 0x1 ADD SWAP1 SSTORE JUMP JUMPDEST PUSH1 0x0 PUSH1 0x11 PUSH1 0x0 PUSH2 0xC82 PUSH1 0x9 SLOAD SWAP1 JUMP JUMPDEST DUP2 MSTORE PUSH1 0x20 DUP1 DUP3 ADD SWAP3 SWAP1 SWAP3 MSTORE PUSH1 0x40 SWAP1 DUP2 ADD PUSH1 0x0 SWAP1 DUP2 KECCAK256 CALLER DUP3 MSTORE PUSH1 0x13 DUP5 MSTORE DUP3 DUP3 KECCAK256 PUSH1 0x12 DUP6 MSTORE DUP4 DUP4 KECCAK256 SLOAD DUP4 MSTORE SWAP1 SWAP4 MSTORE KECCAK256 SWAP1 SWAP2 POP PUSH2 0xCBB PUSH1 0x9 SLOAD SWAP1 JUMP JUMPDEST DUP3 SSTORE DUP7 MLOAD PUSH2 0xCD2 SWAP1 PUSH1 0x1 DUP5 ADD SWAP1 PUSH1 0x20 DUP11 ADD SWAP1 PUSH2 0x4EE8 JUMP JUMPDEST POP DUP6 MLOAD PUSH2 0xCE8 SWAP1 PUSH1 0x2 DUP5 ADD SWAP1 PUSH1 0x20 DUP10 ADD SWAP1 PUSH2 0x4EE8 JUMP JUMPDEST POP DUP5 MLOAD PUSH2 0xCFE SWAP1 PUSH1 0x3 DUP5 ADD SWAP1 PUSH1 0x20 DUP9 ADD SWAP1 PUSH2 0x4EE8 JUMP JUMPDEST POP DUP4 MLOAD PUSH2 0xD14 SWAP1 PUSH1 0x4 DUP5 ADD SWAP1 PUSH1 0x20 DUP8 ADD SWAP1 PUSH2 0x4EE8 JUMP JUMPDEST POP PUSH1 0x12 DUP3 ADD DUP1 SLOAD PUSH1 0xFF NOT AND DUP5 ISZERO ISZERO OR SWAP1 SSTORE PUSH1 0xA DUP3 ADD DUP1 SLOAD CALLER PUSH1 0x1 PUSH1 0x1 PUSH1 0xA0 SHL SUB NOT SWAP1 SWAP2 AND OR SWAP1 SSTORE PUSH1 0xB SLOAD PUSH1 0x8 DUP4 ADD SSTORE PUSH1 0x9 SLOAD DUP2 SSTORE DUP7 MLOAD PUSH2 0xD5D SWAP1 PUSH1 0x1 DUP4 ADD SWAP1 PUSH1 0x20 DUP11 ADD SWAP1 PUSH2 0x4EE8 JUMP JUMPDEST POP DUP6 MLOAD PUSH2 0xD73 SWAP1 PUSH1 0x2 DUP4 ADD SWAP1 PUSH1 0x20 DUP10 ADD SWAP1 PUSH2 0x4EE8 JUMP JUMPDEST POP DUP5 MLOAD PUSH2 0xD89 SWAP1 PUSH1 0x3 DUP4 ADD SWAP1 PUSH1 0x20 DUP9 ADD SWAP1 PUSH2 0x4EE8 JUMP JUMPDEST POP DUP4 MLOAD PUSH2 0xD9F SWAP1 PUSH1 0x4 DUP4 ADD SWAP1 PUSH1 0x20 DUP8 ADD SWAP1 PUSH2 0x4EE8 JUMP JUMPDEST POP CALLER PUSH1 0x0 SWAP1 DUP2 MSTORE PUSH1 0x13 PUSH1 0x20 SWAP1 DUP2 MSTORE PUSH1 0x40 DUP1 DUP4 KECCAK256 PUSH1 0x12 DUP4 MSTORE DUP2 DUP5 KECCAK256 SLOAD DUP5 MSTORE SWAP1 SWAP2 MSTORE SWAP1 KECCAK256 DUP2 SLOAD DUP2 SSTORE PUSH1 0x1 DUP1 DUP4 ADD DUP1 SLOAD DUP5 SWAP4 SWAP3 DUP4 ADD SWAP2 SWAP1 PUSH2 0xDDC SWAP1 PUSH2 0x5B0B JUMP JUMPDEST PUSH2 0xDE7 SWAP3 SWAP2 SWAP1 PUSH2 0x4F6C JUMP JUMPDEST POP PUSH1 0x2 DUP3 ADD DUP2 PUSH1 0x2 ADD SWAP1 DUP1 SLOAD PUSH2 0xDFC SWAP1 PUSH2 0x5B0B JUMP JUMPDEST PUSH2 0xE07 SWAP3 SWAP2 SWAP1 PUSH2 0x4F6C JUMP JUMPDEST POP PUSH1 0x3 DUP3 ADD DUP2 PUSH1 0x3 ADD SWAP1 DUP1 SLOAD PUSH2 0xE1C SWAP1 PUSH2 0x5B0B JUMP JUMPDEST PUSH2 0xE27 SWAP3 SWAP2 SWAP1 PUSH2 0x4F6C JUMP JUMPDEST POP PUSH1 0x4 DUP3 ADD DUP2 PUSH1 0x4 ADD SWAP1 DUP1 SLOAD PUSH2 0xE3C SWAP1 PUSH2 0x5B0B JUMP JUMPDEST PUSH2 0xE47 SWAP3 SWAP2 SWAP1 PUSH2 0x4F6C JUMP JUMPDEST POP PUSH1 0x5 DUP3 ADD DUP2 PUSH1 0x5 ADD PUSH1 0x0 DUP3 ADD SLOAD DUP2 PUSH1 0x0 ADD SSTORE PUSH1 0x1 DUP3 ADD DUP2 PUSH1 0x1 ADD SWAP1 DUP1 SLOAD PUSH2 0xE6E SWAP1 PUSH2 0x5B0B JUMP JUMPDEST PUSH2 0xE79 SWAP3 SWAP2 SWAP1 PUSH2 0x4F6C JUMP JUMPDEST POP PUSH1 0x2 DUP3 ADD SLOAD DUP2 PUSH1 0x2 ADD SSTORE PUSH1 0x3 DUP3 ADD DUP2 PUSH1 0x3 ADD PUSH1 0x0 DUP3 ADD SLOAD DUP2 PUSH1 0x0 ADD SSTORE PUSH1 0x1 DUP3 ADD DUP2 PUSH1 0x1 ADD SWAP1 DUP1 SLOAD PUSH2 0xEAA SWAP1 PUSH2 0x5B0B JUMP JUMPDEST PUSH2 0xEB5 SWAP3 SWAP2 SWAP1 PUSH2 0x4F6C JUMP JUMPDEST POP PUSH1 0x2 DUP3 DUP2 ADD SLOAD SWAP1 DUP3 ADD DUP1 SLOAD PUSH1 0x1 PUSH1 0x1 PUSH1 0xA0 SHL SUB NOT AND PUSH1 0x1 PUSH1 0x1 PUSH1 0xA0 SHL SUB SWAP1 SWAP3 AND SWAP2 SWAP1 SWAP2 OR SWAP1 SSTORE PUSH1 0x3 DUP1 DUP4 ADD SLOAD SWAP1 DUP3 ADD SSTORE PUSH1 0x4 DUP1 DUP4 ADD DUP1 SLOAD SWAP2 DUP4 ADD SWAP2 PUSH2 0xEFA SWAP1 PUSH2 0x5B0B JUMP JUMPDEST PUSH2 0xF05 SWAP3 SWAP2 SWAP1 PUSH2 0x4F6C JUMP JUMPDEST POP PUSH1 0x5 DUP3 ADD DUP2 PUSH1 0x5 ADD SWAP1 DUP1 SLOAD PUSH2 0xF1A SWAP1 PUSH2 0x5B0B JUMP JUMPDEST PUSH2 0xF25 SWAP3 SWAP2 SWAP1 PUSH2 0x4F6C JUMP JUMPDEST POP PUSH1 0x6 DUP3 ADD DUP2 PUSH1 0x6 ADD SWAP1 DUP1 SLOAD PUSH2 0xF3A SWAP1 PUSH2 0x5B0B JUMP JUMPDEST PUSH2 0xF45 SWAP3 SWAP2 SWAP1 PUSH2 0x4F6C JUMP JUMPDEST POP POP POP PUSH1 0xA DUP3 ADD DUP2 PUSH1 0xA ADD SWAP1 DUP1 SLOAD PUSH2 0xF5C SWAP1 PUSH2 0x5B0B JUMP JUMPDEST PUSH2 0xF67 SWAP3 SWAP2 SWAP1 PUSH2 0x4F6C JUMP JUMPDEST POP PUSH1 0xB DUP3 ADD DUP2 PUSH1 0xB ADD SWAP1 DUP1 SLOAD PUSH2 0xF7C SWAP1 PUSH2 0x5B0B JUMP JUMPDEST PUSH2 0xF87 SWAP3 SWAP2 SWAP1 PUSH2 0x4F6C JUMP JUMPDEST POP PUSH1 0xC SWAP2 DUP3 ADD SLOAD SWAP2 ADD DUP1 SLOAD PUSH1 0xFF NOT SWAP1 DUP2 AND PUSH1 0xFF SWAP4 DUP5 AND ISZERO ISZERO OR SWAP1 SWAP2 SSTORE PUSH1 0x12 SWAP4 DUP5 ADD SLOAD SWAP3 SWAP1 SWAP4 ADD DUP1 SLOAD SWAP1 SWAP4 AND SWAP2 AND ISZERO ISZERO OR SWAP1 SSTORE PUSH1 0x9 SLOAD PUSH1 0x0 SWAP1 DUP2 MSTORE PUSH1 0x11 PUSH1 0x20 MSTORE PUSH1 0x40 SWAP1 KECCAK256 DUP3 SLOAD DUP2 SSTORE PUSH1 0x1 DUP4 DUP2 ADD DUP1 SLOAD DUP6 SWAP4 SWAP3 DUP4 ADD SWAP2 SWAP1 PUSH2 0xFE5 SWAP1 PUSH2 0x5B0B JUMP JUMPDEST PUSH2 0xFF0 SWAP3 SWAP2 SWAP1 PUSH2 0x4F6C JUMP JUMPDEST POP PUSH1 0x2 DUP3 ADD DUP2 PUSH1 0x2 ADD SWAP1 DUP1 SLOAD PUSH2 0x1005 SWAP1 PUSH2 0x5B0B JUMP JUMPDEST PUSH2 0x1010 SWAP3 SWAP2 SWAP1 PUSH2 0x4F6C JUMP JUMPDEST POP PUSH1 0x3 DUP3 ADD DUP2 PUSH1 0x3 ADD SWAP1 DUP1 SLOAD PUSH2 0x1025 SWAP1 PUSH2 0x5B0B JUMP JUMPDEST PUSH2 0x1030 SWAP3 SWAP2 SWAP1 PUSH2 0x4F6C JUMP JUMPDEST POP PUSH1 0x4 DUP3 ADD DUP2 PUSH1 0x4 ADD SWAP1 DUP1 SLOAD PUSH2 0x1045 SWAP1 PUSH2 0x5B0B JUMP JUMPDEST PUSH2 0x1050 SWAP3 SWAP2 SWAP1 PUSH2 0x4F6C JUMP JUMPDEST POP PUSH1 0x5 DUP3 ADD DUP2 PUSH1 0x5 ADD PUSH1 0x0 DUP3 ADD SLOAD DUP2 PUSH1 0x0 ADD SSTORE PUSH1 0x1 DUP3 ADD DUP2 PUSH1 0x1 ADD SWAP1 DUP1 SLOAD PUSH2 0x1077 SWAP1 PUSH2 0x5B0B JUMP JUMPDEST PUSH2 0x1082 SWAP3 SWAP2 SWAP1 PUSH2 0x4F6C JUMP JUMPDEST POP PUSH1 0x2 DUP3 ADD SLOAD DUP2 PUSH1 0x2 ADD SSTORE PUSH1 0x3 DUP3 ADD DUP2 PUSH1 0x3 ADD PUSH1 0x0 DUP3 ADD SLOAD DUP2 PUSH1 0x0 ADD SSTORE PUSH1 0x1 DUP3 ADD DUP2 PUSH1 0x1 ADD SWAP1 DUP1 SLOAD PUSH2 0x10B3 SWAP1 PUSH2 0x5B0B JUMP JUMPDEST PUSH2 0x10BE SWAP3 SWAP2 SWAP1 PUSH2 0x4F6C JUMP JUMPDEST POP PUSH1 0x2 DUP3 DUP2 ADD SLOAD SWAP1 DUP3 ADD DUP1 SLOAD PUSH1 0x1 PUSH1 0x1 PUSH1 0xA0 SHL SUB NOT AND PUSH1 0x1 PUSH1 0x1 PUSH1 0xA0 SHL SUB SWAP1 SWAP3 AND SWAP2 SWAP1 SWAP2 OR SWAP1 SSTORE PUSH1 0x3 DUP1 DUP4 ADD SLOAD SWAP1 DUP3 ADD SSTORE PUSH1 0x4 DUP1 DUP4 ADD DUP1 SLOAD SWAP2 DUP4 ADD SWAP2 PUSH2 0x1103 SWAP1 PUSH2 0x5B0B JUMP JUMPDEST PUSH2 0x110E SWAP3 SWAP2 SWAP1 PUSH2 0x4F6C JUMP JUMPDEST POP PUSH1 0x5 DUP3 ADD DUP2 PUSH1 0x5 ADD SWAP1 DUP1 SLOAD PUSH2 0x1123 SWAP1 PUSH2 0x5B0B JUMP JUMPDEST PUSH2 0x112E SWAP3 SWAP2 SWAP1 PUSH2 0x4F6C JUMP JUMPDEST POP PUSH1 0x6 DUP3 ADD DUP2 PUSH1 0x6 ADD SWAP1 DUP1 SLOAD PUSH2 0x1143 SWAP1 PUSH2 0x5B0B JUMP JUMPDEST PUSH2 0x114E SWAP3 SWAP2 SWAP1 PUSH2 0x4F6C JUMP JUMPDEST POP POP POP PUSH1 0xA DUP3 ADD DUP2 PUSH1 0xA ADD SWAP1 DUP1 SLOAD PUSH2 0x1165 SWAP1 PUSH2 0x5B0B JUMP JUMPDEST PUSH2 0x1170 SWAP3 SWAP2 SWAP1 PUSH2 0x4F6C JUMP JUMPDEST POP PUSH1 0xB DUP3 ADD DUP2 PUSH1 0xB ADD SWAP1 DUP1 SLOAD PUSH2 0x1185 SWAP1 PUSH2 0x5B0B JUMP JUMPDEST PUSH2 0x1190 SWAP3 SWAP2 SWAP1 PUSH2 0x4F6C JUMP JUMPDEST POP PUSH1 0xC SWAP2 DUP3 ADD SLOAD SWAP2 ADD DUP1 SLOAD PUSH1 0xFF NOT SWAP1 DUP2 AND PUSH1 0xFF SWAP4 DUP5 AND ISZERO ISZERO OR SWAP1 SWAP2 SSTORE PUSH1 0x12 SWAP4 DUP5 ADD SLOAD SWAP3 SWAP1 SWAP4 ADD DUP1 SLOAD SWAP1 SWAP4 AND SWAP2 AND ISZERO ISZERO OR SWAP1 SSTORE POP POP POP POP POP POP POP JUMP JUMPDEST PUSH2 0x8CF DUP4 DUP4 DUP4 PUSH1 0x40 MLOAD DUP1 PUSH1 0x20 ADD PUSH1 0x40 MSTORE DUP1 PUSH1 0x0 DUP2 MSTORE POP PUSH2 0x2E40 JUMP JUMPDEST PUSH1 0x60 PUSH1 0x0 PUSH2 0x11F3 PUSH1 0x7 SLOAD SWAP1 JUMP JUMPDEST SWAP1 POP PUSH1 0x0 DUP1 PUSH1 0x0 JUMPDEST DUP4 DUP2 LT ISZERO PUSH2 0x1256 JUMPI CALLER PUSH1 0xF PUSH1 0x0 PUSH2 0x1213 DUP5 PUSH1 0x1 PUSH2 0x5B73 JUMP JUMPDEST DUP2 MSTORE PUSH1 0x20 DUP2 ADD SWAP2 SWAP1 SWAP2 MSTORE PUSH1 0x40 ADD PUSH1 0x0 KECCAK256 PUSH1 0x1 ADD SLOAD PUSH1 0x1 PUSH1 0x1 PUSH1 0xA0 SHL SUB AND EQ ISZERO PUSH2 0x1244 JUMPI PUSH2 0x1241 PUSH1 0x1 DUP5 PUSH2 0x5B73 JUMP JUMPDEST SWAP3 POP JUMPDEST DUP1 PUSH2 0x124E DUP2 PUSH2 0x5BA1 JUMP JUMPDEST SWAP2 POP POP PUSH2 0x11FB JUMP JUMPDEST POP PUSH1 0x0 DUP3 PUSH1 0x1 PUSH1 0x1 PUSH1 0x40 SHL SUB DUP2 GT ISZERO PUSH2 0x1271 JUMPI PUSH2 0x1271 PUSH2 0x52F9 JUMP JUMPDEST PUSH1 0x40 MLOAD SWAP1 DUP1 DUP3 MSTORE DUP1 PUSH1 0x20 MUL PUSH1 0x20 ADD DUP3 ADD PUSH1 0x40 MSTORE DUP1 ISZERO PUSH2 0x12AA JUMPI DUP2 PUSH1 0x20 ADD JUMPDEST PUSH2 0x1297 PUSH2 0x4E8F JUMP JUMPDEST DUP2 MSTORE PUSH1 0x20 ADD SWAP1 PUSH1 0x1 SWAP1 SUB SWAP1 DUP2 PUSH2 0x128F JUMPI SWAP1 POP JUMPDEST POP SWAP1 POP PUSH1 0x0 JUMPDEST DUP5 DUP2 LT ISZERO PUSH2 0xC00 JUMPI CALLER PUSH1 0xF PUSH1 0x0 PUSH2 0x12C8 DUP5 PUSH1 0x1 PUSH2 0x5B73 JUMP JUMPDEST DUP2 MSTORE PUSH1 0x20 DUP2 ADD SWAP2 SWAP1 SWAP2 MSTORE PUSH1 0x40 ADD PUSH1 0x0 KECCAK256 PUSH1 0x1 ADD SLOAD PUSH1 0x1 PUSH1 0x1 PUSH1 0xA0 SHL SUB AND EQ ISZERO PUSH2 0x1547 JUMPI PUSH1 0x0 PUSH2 0x12F8 DUP3 PUSH1 0x1 PUSH2 0x5B73 JUMP JUMPDEST PUSH1 0x0 DUP2 DUP2 MSTORE PUSH1 0xF PUSH1 0x20 SWAP1 DUP2 MSTORE PUSH1 0x40 SWAP2 DUP3 SWAP1 KECCAK256 DUP3 MLOAD PUSH2 0x100 DUP2 ADD DUP5 MSTORE DUP2 SLOAD DUP2 MSTORE PUSH1 0x1 DUP3 ADD SLOAD PUSH1 0x1 PUSH1 0x1 PUSH1 0xA0 SHL SUB SWAP1 DUP2 AND SWAP4 DUP3 ADD SWAP4 SWAP1 SWAP4 MSTORE PUSH1 0x2 DUP3 ADD SLOAD SWAP1 SWAP3 AND SWAP3 DUP3 ADD SWAP3 SWAP1 SWAP3 MSTORE PUSH1 0x3 DUP3 ADD SLOAD PUSH1 0x60 DUP3 ADD MSTORE PUSH1 0x4 DUP3 ADD SLOAD PUSH1 0xFF AND ISZERO ISZERO PUSH1 0x80 DUP3 ADD MSTORE PUSH1 0x5 DUP3 ADD DUP1 SLOAD SWAP4 SWAP5 POP SWAP2 SWAP3 SWAP1 SWAP2 DUP4 SWAP2 PUSH1 0xA0 DUP5 ADD SWAP2 SWAP1 PUSH2 0x1374 SWAP1 PUSH2 0x5B0B JUMP JUMPDEST DUP1 PUSH1 0x1F ADD PUSH1 0x20 DUP1 SWAP2 DIV MUL PUSH1 0x20 ADD PUSH1 0x40 MLOAD SWAP1 DUP2 ADD PUSH1 0x40 MSTORE DUP1 SWAP3 SWAP2 SWAP1 DUP2 DUP2 MSTORE PUSH1 0x20 ADD DUP3 DUP1 SLOAD PUSH2 0x13A0 SWAP1 PUSH2 0x5B0B JUMP JUMPDEST DUP1 ISZERO PUSH2 0x13ED JUMPI DUP1 PUSH1 0x1F LT PUSH2 0x13C2 JUMPI PUSH2 0x100 DUP1 DUP4 SLOAD DIV MUL DUP4 MSTORE SWAP2 PUSH1 0x20 ADD SWAP2 PUSH2 0x13ED JUMP JUMPDEST DUP3 ADD SWAP2 SWAP1 PUSH1 0x0 MSTORE PUSH1 0x20 PUSH1 0x0 KECCAK256 SWAP1 JUMPDEST DUP2 SLOAD DUP2 MSTORE SWAP1 PUSH1 0x1 ADD SWAP1 PUSH1 0x20 ADD DUP1 DUP4 GT PUSH2 0x13D0 JUMPI DUP3 SWAP1 SUB PUSH1 0x1F AND DUP3 ADD SWAP2 JUMPDEST POP POP POP POP POP DUP2 MSTORE PUSH1 0x20 ADD PUSH1 0x6 DUP3 ADD DUP1 SLOAD PUSH2 0x1406 SWAP1 PUSH2 0x5B0B JUMP JUMPDEST DUP1 PUSH1 0x1F ADD PUSH1 0x20 DUP1 SWAP2 DIV MUL PUSH1 0x20 ADD PUSH1 0x40 MLOAD SWAP1 DUP2 ADD PUSH1 0x40 MSTORE DUP1 SWAP3 SWAP2 SWAP1 DUP2 DUP2 MSTORE PUSH1 0x20 ADD DUP3 DUP1 SLOAD PUSH2 0x1432 SWAP1 PUSH2 0x5B0B JUMP JUMPDEST DUP1 ISZERO PUSH2 0x147F JUMPI DUP1 PUSH1 0x1F LT PUSH2 0x1454 JUMPI PUSH2 0x100 DUP1 DUP4 SLOAD DIV MUL DUP4 MSTORE SWAP2 PUSH1 0x20 ADD SWAP2 PUSH2 0x147F JUMP JUMPDEST DUP3 ADD SWAP2 SWAP1 PUSH1 0x0 MSTORE PUSH1 0x20 PUSH1 0x0 KECCAK256 SWAP1 JUMPDEST DUP2 SLOAD DUP2 MSTORE SWAP1 PUSH1 0x1 ADD SWAP1 PUSH1 0x20 ADD DUP1 DUP4 GT PUSH2 0x1462 JUMPI DUP3 SWAP1 SUB PUSH1 0x1F AND DUP3 ADD SWAP2 JUMPDEST POP POP POP POP POP DUP2 MSTORE PUSH1 0x20 ADD PUSH1 0x7 DUP3 ADD DUP1 SLOAD PUSH2 0x1498 SWAP1 PUSH2 0x5B0B JUMP JUMPDEST DUP1 PUSH1 0x1F ADD PUSH1 0x20 DUP1 SWAP2 DIV MUL PUSH1 0x20 ADD PUSH1 0x40 MLOAD SWAP1 DUP2 ADD PUSH1 0x40 MSTORE DUP1 SWAP3 SWAP2 SWAP1 DUP2 DUP2 MSTORE PUSH1 0x20 ADD DUP3 DUP1 SLOAD PUSH2 0x14C4 SWAP1 PUSH2 0x5B0B JUMP JUMPDEST DUP1 ISZERO PUSH2 0x1511 JUMPI DUP1 PUSH1 0x1F LT PUSH2 0x14E6 JUMPI PUSH2 0x100 DUP1 DUP4 SLOAD DIV MUL DUP4 MSTORE SWAP2 PUSH1 0x20 ADD SWAP2 PUSH2 0x1511 JUMP JUMPDEST DUP3 ADD SWAP2 SWAP1 PUSH1 0x0 MSTORE PUSH1 0x20 PUSH1 0x0 KECCAK256 SWAP1 JUMPDEST DUP2 SLOAD DUP2 MSTORE SWAP1 PUSH1 0x1 ADD SWAP1 PUSH1 0x20 ADD DUP1 DUP4 GT PUSH2 0x14F4 JUMPI DUP3 SWAP1 SUB PUSH1 0x1F AND DUP3 ADD SWAP2 JUMPDEST POP POP POP POP POP DUP2 MSTORE POP POP DUP5 DUP7 DUP2 MLOAD DUP2 LT PUSH2 0x152C JUMPI PUSH2 0x152C PUSH2 0x5B8B JUMP JUMPDEST PUSH1 0x20 SWAP1 DUP2 MUL SWAP2 SWAP1 SWAP2 ADD ADD MSTORE PUSH2 0x1542 PUSH1 0x1 DUP7 PUSH2 0x5B73 JUMP JUMPDEST SWAP5 POP POP POP JUMPDEST DUP1 PUSH2 0x1551 DUP2 PUSH2 0x5BA1 JUMP JUMPDEST SWAP2 POP POP PUSH2 0x12B0 JUMP JUMPDEST CALLER PUSH1 0x0 SWAP1 DUP2 MSTORE PUSH1 0x10 PUSH1 0x20 MSTORE PUSH1 0x40 DUP2 KECCAK256 SLOAD PUSH1 0xFF AND ISZERO ISZERO PUSH1 0x1 EQ ISZERO PUSH2 0x157C JUMPI POP PUSH1 0x1 SWAP1 JUMP JUMPDEST POP PUSH1 0x0 SWAP1 JUMP JUMPDEST PUSH1 0x17 PUSH1 0x20 MSTORE PUSH1 0x0 SWAP1 DUP2 MSTORE PUSH1 0x40 SWAP1 KECCAK256 DUP1 SLOAD PUSH1 0x1 DUP3 ADD DUP1 SLOAD SWAP2 SWAP3 SWAP2 PUSH2 0x15A4 SWAP1 PUSH2 0x5B0B JUMP JUMPDEST DUP1 PUSH1 0x1F ADD PUSH1 0x20 DUP1 SWAP2 DIV MUL PUSH1 0x20 ADD PUSH1 0x40 MLOAD SWAP1 DUP2 ADD PUSH1 0x40 MSTORE DUP1 SWAP3 SWAP2 SWAP1 DUP2 DUP2 MSTORE PUSH1 0x20 ADD DUP3 DUP1 SLOAD PUSH2 0x15D0 SWAP1 PUSH2 0x5B0B JUMP JUMPDEST DUP1 ISZERO PUSH2 0x161D JUMPI DUP1 PUSH1 0x1F LT PUSH2 0x15F2 JUMPI PUSH2 0x100 DUP1 DUP4 SLOAD DIV MUL DUP4 MSTORE SWAP2 PUSH1 0x20 ADD SWAP2 PUSH2 0x161D JUMP JUMPDEST DUP3 ADD SWAP2 SWAP1 PUSH1 0x0 MSTORE PUSH1 0x20 PUSH1 0x0 KECCAK256 SWAP1 JUMPDEST DUP2 SLOAD DUP2 MSTORE SWAP1 PUSH1 0x1 ADD SWAP1 PUSH1 0x20 ADD DUP1 DUP4 GT PUSH2 0x1600 JUMPI DUP3 SWAP1 SUB PUSH1 0x1F AND DUP3 ADD SWAP2 JUMPDEST POP POP POP POP PUSH1 0x2 DUP4 ADD SLOAD PUSH1 0x3 DUP5 ADD SLOAD PUSH1 0x4 DUP6 ADD DUP1 SLOAD SWAP5 SWAP6 PUSH1 0x1 PUSH1 0x1 PUSH1 0xA0 SHL SUB SWAP1 SWAP4 AND SWAP5 SWAP2 SWAP4 POP SWAP1 PUSH2 0x164C SWAP1 PUSH2 0x5B0B JUMP JUMPDEST DUP1 PUSH1 0x1F ADD PUSH1 0x20 DUP1 SWAP2 DIV MUL PUSH1 0x20 ADD PUSH1 0x40 MLOAD SWAP1 DUP2 ADD PUSH1 0x40 MSTORE DUP1 SWAP3 SWAP2 SWAP1 DUP2 DUP2 MSTORE PUSH1 0x20 ADD DUP3 DUP1 SLOAD PUSH2 0x1678 SWAP1 PUSH2 0x5B0B JUMP JUMPDEST DUP1 ISZERO PUSH2 0x16C5 JUMPI DUP1 PUSH1 0x1F LT PUSH2 0x169A JUMPI PUSH2 0x100 DUP1 DUP4 SLOAD DIV MUL DUP4 MSTORE SWAP2 PUSH1 0x20 ADD SWAP2 PUSH2 0x16C5 JUMP JUMPDEST DUP3 ADD SWAP2 SWAP1 PUSH1 0x0 MSTORE PUSH1 0x20 PUSH1 0x0 KECCAK256 SWAP1 JUMPDEST DUP2 SLOAD DUP2 MSTORE SWAP1 PUSH1 0x1 ADD SWAP1 PUSH1 0x20 ADD DUP1 DUP4 GT PUSH2 0x16A8 JUMPI DUP3 SWAP1 SUB PUSH1 0x1F AND DUP3 ADD SWAP2 JUMPDEST POP POP POP POP POP SWAP1 DUP1 PUSH1 0x5 ADD DUP1 SLOAD PUSH2 0x16DA SWAP1 PUSH2 0x5B0B JUMP JUMPDEST DUP1 PUSH1 0x1F ADD PUSH1 0x20 DUP1 SWAP2 DIV MUL PUSH1 0x20 ADD PUSH1 0x40 MLOAD SWAP1 DUP2 ADD PUSH1 0x40 MSTORE DUP1 SWAP3 SWAP2 SWAP1 DUP2 DUP2 MSTORE PUSH1 0x20 ADD DUP3 DUP1 SLOAD PUSH2 0x1706 SWAP1 PUSH2 0x5B0B JUMP JUMPDEST DUP1 ISZERO PUSH2 0x1753 JUMPI DUP1 PUSH1 0x1F LT PUSH2 0x1728 JUMPI PUSH2 0x100 DUP1 DUP4 SLOAD DIV MUL DUP4 MSTORE SWAP2 PUSH1 0x20 ADD SWAP2 PUSH2 0x1753 JUMP JUMPDEST DUP3 ADD SWAP2 SWAP1 PUSH1 0x0 MSTORE PUSH1 0x20 PUSH1 0x0 KECCAK256 SWAP1 JUMPDEST DUP2 SLOAD DUP2 MSTORE SWAP1 PUSH1 0x1 ADD SWAP1 PUSH1 0x20 ADD DUP1 DUP4 GT PUSH2 0x1736 JUMPI DUP3 SWAP1 SUB PUSH1 0x1F AND DUP3 ADD SWAP2 JUMPDEST POP POP POP POP POP SWAP1 DUP1 PUSH1 0x6 ADD DUP1 SLOAD PUSH2 0x1768 SWAP1 PUSH2 0x5B0B JUMP JUMPDEST DUP1 PUSH1 0x1F ADD PUSH1 0x20 DUP1 SWAP2 DIV MUL PUSH1 0x20 ADD PUSH1 0x40 MLOAD SWAP1 DUP2 ADD PUSH1 0x40 MSTORE DUP1 SWAP3 SWAP2 SWAP1 DUP2 DUP2 MSTORE PUSH1 0x20 ADD DUP3 DUP1 SLOAD PUSH2 0x1794 SWAP1 PUSH2 0x5B0B JUMP JUMPDEST DUP1 ISZERO PUSH2 0x17E1 JUMPI DUP1 PUSH1 0x1F LT PUSH2 0x17B6 JUMPI PUSH2 0x100 DUP1 DUP4 SLOAD DIV MUL DUP4 MSTORE SWAP2 PUSH1 0x20 ADD SWAP2 PUSH2 0x17E1 JUMP JUMPDEST DUP3 ADD SWAP2 SWAP1 PUSH1 0x0 MSTORE PUSH1 0x20 PUSH1 0x0 KECCAK256 SWAP1 JUMPDEST DUP2 SLOAD DUP2 MSTORE SWAP1 PUSH1 0x1 ADD SWAP1 PUSH1 0x20 ADD DUP1 DUP4 GT PUSH2 0x17C4 JUMPI DUP3 SWAP1 SUB PUSH1 0x1F AND DUP3 ADD SWAP2 JUMPDEST POP POP POP POP POP SWAP1 POP DUP8 JUMP JUMPDEST PUSH1 0x60 PUSH1 0x0 PUSH2 0x17F8 PUSH1 0x9 SLOAD SWAP1 JUMP JUMPDEST SWAP1 POP PUSH1 0x0 DUP1 DUP3 PUSH1 0x1 PUSH1 0x1 PUSH1 0x40 SHL SUB DUP2 GT ISZERO PUSH2 0x1815 JUMPI PUSH2 0x1815 PUSH2 0x52F9 JUMP JUMPDEST PUSH1 0x40 MLOAD SWAP1 DUP1 DUP3 MSTORE DUP1 PUSH1 0x20 MUL PUSH1 0x20 ADD DUP3 ADD PUSH1 0x40 MSTORE DUP1 ISZERO PUSH2 0x184E JUMPI DUP2 PUSH1 0x20 ADD JUMPDEST PUSH2 0x183B PUSH2 0x4FE7 JUMP JUMPDEST DUP2 MSTORE PUSH1 0x20 ADD SWAP1 PUSH1 0x1 SWAP1 SUB SWAP1 DUP2 PUSH2 0x1833 JUMPI SWAP1 POP JUMPDEST POP SWAP1 POP PUSH1 0x0 JUMPDEST DUP4 DUP2 LT ISZERO PUSH2 0x1FA5 JUMPI PUSH1 0x0 PUSH2 0x1869 DUP3 PUSH1 0x1 PUSH2 0x5B73 JUMP JUMPDEST SWAP1 POP PUSH1 0x0 PUSH1 0x11 PUSH1 0x0 DUP4 DUP2 MSTORE PUSH1 0x20 ADD SWAP1 DUP2 MSTORE PUSH1 0x20 ADD PUSH1 0x0 KECCAK256 SWAP1 POP DUP1 PUSH1 0x40 MLOAD DUP1 PUSH1 0xE0 ADD PUSH1 0x40 MSTORE SWAP1 DUP2 PUSH1 0x0 DUP3 ADD SLOAD DUP2 MSTORE PUSH1 0x20 ADD PUSH1 0x1 DUP3 ADD DUP1 SLOAD PUSH2 0x18A8 SWAP1 PUSH2 0x5B0B JUMP JUMPDEST DUP1 PUSH1 0x1F ADD PUSH1 0x20 DUP1 SWAP2 DIV MUL PUSH1 0x20 ADD PUSH1 0x40 MLOAD SWAP1 DUP2 ADD PUSH1 0x40 MSTORE DUP1 SWAP3 SWAP2 SWAP1 DUP2 DUP2 MSTORE PUSH1 0x20 ADD DUP3 DUP1 SLOAD PUSH2 0x18D4 SWAP1 PUSH2 0x5B0B JUMP JUMPDEST DUP1 ISZERO PUSH2 0x1921 JUMPI DUP1 PUSH1 0x1F LT PUSH2 0x18F6 JUMPI PUSH2 0x100 DUP1 DUP4 SLOAD DIV MUL DUP4 MSTORE SWAP2 PUSH1 0x20 ADD SWAP2 PUSH2 0x1921 JUMP JUMPDEST DUP3 ADD SWAP2 SWAP1 PUSH1 0x0 MSTORE PUSH1 0x20 PUSH1 0x0 KECCAK256 SWAP1 JUMPDEST DUP2 SLOAD DUP2 MSTORE SWAP1 PUSH1 0x1 ADD SWAP1 PUSH1 0x20 ADD DUP1 DUP4 GT PUSH2 0x1904 JUMPI DUP3 SWAP1 SUB PUSH1 0x1F AND DUP3 ADD SWAP2 JUMPDEST POP POP POP POP POP DUP2 MSTORE PUSH1 0x20 ADD PUSH1 0x2 DUP3 ADD DUP1 SLOAD PUSH2 0x193A SWAP1 PUSH2 0x5B0B JUMP JUMPDEST DUP1 PUSH1 0x1F ADD PUSH1 0x20 DUP1 SWAP2 DIV MUL PUSH1 0x20 ADD PUSH1 0x40 MLOAD SWAP1 DUP2 ADD PUSH1 0x40 MSTORE DUP1 SWAP3 SWAP2 SWAP1 DUP2 DUP2 MSTORE PUSH1 0x20 ADD DUP3 DUP1 SLOAD PUSH2 0x1966 SWAP1 PUSH2 0x5B0B JUMP JUMPDEST DUP1 ISZERO PUSH2 0x19B3 JUMPI DUP1 PUSH1 0x1F LT PUSH2 0x1988 JUMPI PUSH2 0x100 DUP1 DUP4 SLOAD DIV MUL DUP4 MSTORE SWAP2 PUSH1 0x20 ADD SWAP2 PUSH2 0x19B3 JUMP JUMPDEST DUP3 ADD SWAP2 SWAP1 PUSH1 0x0 MSTORE PUSH1 0x20 PUSH1 0x0 KECCAK256 SWAP1 JUMPDEST DUP2 SLOAD DUP2 MSTORE SWAP1 PUSH1 0x1 ADD SWAP1 PUSH1 0x20 ADD DUP1 DUP4 GT PUSH2 0x1996 JUMPI DUP3 SWAP1 SUB PUSH1 0x1F AND DUP3 ADD SWAP2 JUMPDEST POP POP POP POP POP DUP2 MSTORE PUSH1 0x20 ADD PUSH1 0x3 DUP3 ADD DUP1 SLOAD PUSH2 0x19CC SWAP1 PUSH2 0x5B0B JUMP JUMPDEST DUP1 PUSH1 0x1F ADD PUSH1 0x20 DUP1 SWAP2 DIV MUL PUSH1 0x20 ADD PUSH1 0x40 MLOAD SWAP1 DUP2 ADD PUSH1 0x40 MSTORE DUP1 SWAP3 SWAP2 SWAP1 DUP2 DUP2 MSTORE PUSH1 0x20 ADD DUP3 DUP1 SLOAD PUSH2 0x19F8 SWAP1 PUSH2 0x5B0B JUMP JUMPDEST DUP1 ISZERO PUSH2 0x1A45 JUMPI DUP1 PUSH1 0x1F LT PUSH2 0x1A1A JUMPI PUSH2 0x100 DUP1 DUP4 SLOAD DIV MUL DUP4 MSTORE SWAP2 PUSH1 0x20 ADD SWAP2 PUSH2 0x1A45 JUMP JUMPDEST DUP3 ADD SWAP2 SWAP1 PUSH1 0x0 MSTORE PUSH1 0x20 PUSH1 0x0 KECCAK256 SWAP1 JUMPDEST DUP2 SLOAD DUP2 MSTORE SWAP1 PUSH1 0x1 ADD SWAP1 PUSH1 0x20 ADD DUP1 DUP4 GT PUSH2 0x1A28 JUMPI DUP3 SWAP1 SUB PUSH1 0x1F AND DUP3 ADD SWAP2 JUMPDEST POP POP POP POP POP DUP2 MSTORE PUSH1 0x20 ADD PUSH1 0x4 DUP3 ADD DUP1 SLOAD PUSH2 0x1A5E SWAP1 PUSH2 0x5B0B JUMP JUMPDEST DUP1 PUSH1 0x1F ADD PUSH1 0x20 DUP1 SWAP2 DIV MUL PUSH1 0x20 ADD PUSH1 0x40 MLOAD SWAP1 DUP2 ADD PUSH1 0x40 MSTORE DUP1 SWAP3 SWAP2 SWAP1 DUP2 DUP2 MSTORE PUSH1 0x20 ADD DUP3 DUP1 SLOAD PUSH2 0x1A8A SWAP1 PUSH2 0x5B0B JUMP JUMPDEST DUP1 ISZERO PUSH2 0x1AD7 JUMPI DUP1 PUSH1 0x1F LT PUSH2 0x1AAC JUMPI PUSH2 0x100 DUP1 DUP4 SLOAD DIV MUL DUP4 MSTORE SWAP2 PUSH1 0x20 ADD SWAP2 PUSH2 0x1AD7 JUMP JUMPDEST DUP3 ADD SWAP2 SWAP1 PUSH1 0x0 MSTORE PUSH1 0x20 PUSH1 0x0 KECCAK256 SWAP1 JUMPDEST DUP2 SLOAD DUP2 MSTORE SWAP1 PUSH1 0x1 ADD SWAP1 PUSH1 0x20 ADD DUP1 DUP4 GT PUSH2 0x1ABA JUMPI DUP3 SWAP1 SUB PUSH1 0x1F AND DUP3 ADD SWAP2 JUMPDEST POP POP POP POP POP DUP2 MSTORE PUSH1 0x20 ADD PUSH1 0x5 DUP3 ADD PUSH1 0x40 MLOAD DUP1 PUSH1 0xE0 ADD PUSH1 0x40 MSTORE SWAP1 DUP2 PUSH1 0x0 DUP3 ADD SLOAD DUP2 MSTORE PUSH1 0x20 ADD PUSH1 0x1 DUP3 ADD DUP1 SLOAD PUSH2 0x1B0A SWAP1 PUSH2 0x5B0B JUMP JUMPDEST DUP1 PUSH1 0x1F ADD PUSH1 0x20 DUP1 SWAP2 DIV MUL PUSH1 0x20 ADD PUSH1 0x40 MLOAD SWAP1 DUP2 ADD PUSH1 0x40 MSTORE DUP1 SWAP3 SWAP2 SWAP1 DUP2 DUP2 MSTORE PUSH1 0x20 ADD DUP3 DUP1 SLOAD PUSH2 0x1B36 SWAP1 PUSH2 0x5B0B JUMP JUMPDEST DUP1 ISZERO PUSH2 0x1B83 JUMPI DUP1 PUSH1 0x1F LT PUSH2 0x1B58 JUMPI PUSH2 0x100 DUP1 DUP4 SLOAD DIV MUL DUP4 MSTORE SWAP2 PUSH1 0x20 ADD SWAP2 PUSH2 0x1B83 JUMP JUMPDEST DUP3 ADD SWAP2 SWAP1 PUSH1 0x0 MSTORE PUSH1 0x20 PUSH1 0x0 KECCAK256 SWAP1 JUMPDEST DUP2 SLOAD DUP2 MSTORE SWAP1 PUSH1 0x1 ADD SWAP1 PUSH1 0x20 ADD DUP1 DUP4 GT PUSH2 0x1B66 JUMPI DUP3 SWAP1 SUB PUSH1 0x1F AND DUP3 ADD SWAP2 JUMPDEST POP POP POP POP POP DUP2 MSTORE PUSH1 0x20 ADD PUSH1 0x2 DUP3 ADD SLOAD DUP2 MSTORE PUSH1 0x20 ADD PUSH1 0x3 DUP3 ADD PUSH1 0x40 MLOAD DUP1 PUSH1 0xE0 ADD PUSH1 0x40 MSTORE SWAP1 DUP2 PUSH1 0x0 DUP3 ADD SLOAD DUP2 MSTORE PUSH1 0x20 ADD PUSH1 0x1 DUP3 ADD DUP1 SLOAD PUSH2 0x1BC0 SWAP1 PUSH2 0x5B0B JUMP JUMPDEST DUP1 PUSH1 0x1F ADD PUSH1 0x20 DUP1 SWAP2 DIV MUL PUSH1 0x20 ADD PUSH1 0x40 MLOAD SWAP1 DUP2 ADD PUSH1 0x40 MSTORE DUP1 SWAP3 SWAP2 SWAP1 DUP2 DUP2 MSTORE PUSH1 0x20 ADD DUP3 DUP1 SLOAD PUSH2 0x1BEC SWAP1 PUSH2 0x5B0B JUMP JUMPDEST DUP1 ISZERO PUSH2 0x1C39 JUMPI DUP1 PUSH1 0x1F LT PUSH2 0x1C0E JUMPI PUSH2 0x100 DUP1 DUP4 SLOAD DIV MUL DUP4 MSTORE SWAP2 PUSH1 0x20 ADD SWAP2 PUSH2 0x1C39 JUMP JUMPDEST DUP3 ADD SWAP2 SWAP1 PUSH1 0x0 MSTORE PUSH1 0x20 PUSH1 0x0 KECCAK256 SWAP1 JUMPDEST DUP2 SLOAD DUP2 MSTORE SWAP1 PUSH1 0x1 ADD SWAP1 PUSH1 0x20 ADD DUP1 DUP4 GT PUSH2 0x1C1C JUMPI DUP3 SWAP1 SUB PUSH1 0x1F AND DUP3 ADD SWAP2 JUMPDEST POP POP POP SWAP2 DUP4 MSTORE POP POP PUSH1 0x2 DUP3 ADD SLOAD PUSH1 0x1 PUSH1 0x1 PUSH1 0xA0 SHL SUB AND PUSH1 0x20 DUP3 ADD MSTORE PUSH1 0x3 DUP3 ADD SLOAD PUSH1 0x40 DUP3 ADD MSTORE PUSH1 0x4 DUP3 ADD DUP1 SLOAD PUSH1 0x60 SWAP1 SWAP3 ADD SWAP2 PUSH2 0x1C73 SWAP1 PUSH2 0x5B0B JUMP JUMPDEST DUP1 PUSH1 0x1F ADD PUSH1 0x20 DUP1 SWAP2 DIV MUL PUSH1 0x20 ADD PUSH1 0x40 MLOAD SWAP1 DUP2 ADD PUSH1 0x40 MSTORE DUP1 SWAP3 SWAP2 SWAP1 DUP2 DUP2 MSTORE PUSH1 0x20 ADD DUP3 DUP1 SLOAD PUSH2 0x1C9F SWAP1 PUSH2 0x5B0B JUMP JUMPDEST DUP1 ISZERO PUSH2 0x1CEC JUMPI DUP1 PUSH1 0x1F LT PUSH2 0x1CC1 JUMPI PUSH2 0x100 DUP1 DUP4 SLOAD DIV MUL DUP4 MSTORE SWAP2 PUSH1 0x20 ADD SWAP2 PUSH2 0x1CEC JUMP JUMPDEST DUP3 ADD SWAP2 SWAP1 PUSH1 0x0 MSTORE PUSH1 0x20 PUSH1 0x0 KECCAK256 SWAP1 JUMPDEST DUP2 SLOAD DUP2 MSTORE SWAP1 PUSH1 0x1 ADD SWAP1 PUSH1 0x20 ADD DUP1 DUP4 GT PUSH2 0x1CCF JUMPI DUP3 SWAP1 SUB PUSH1 0x1F AND DUP3 ADD SWAP2 JUMPDEST POP POP POP POP POP DUP2 MSTORE PUSH1 0x20 ADD PUSH1 0x5 DUP3 ADD DUP1 SLOAD PUSH2 0x1D05 SWAP1 PUSH2 0x5B0B JUMP JUMPDEST DUP1 PUSH1 0x1F ADD PUSH1 0x20 DUP1 SWAP2 DIV MUL PUSH1 0x20 ADD PUSH1 0x40 MLOAD SWAP1 DUP2 ADD PUSH1 0x40 MSTORE DUP1 SWAP3 SWAP2 SWAP1 DUP2 DUP2 MSTORE PUSH1 0x20 ADD DUP3 DUP1 SLOAD PUSH2 0x1D31 SWAP1 PUSH2 0x5B0B JUMP JUMPDEST DUP1 ISZERO PUSH2 0x1D7E JUMPI DUP1 PUSH1 0x1F LT PUSH2 0x1D53 JUMPI PUSH2 0x100 DUP1 DUP4 SLOAD DIV MUL DUP4 MSTORE SWAP2 PUSH1 0x20 ADD SWAP2 PUSH2 0x1D7E JUMP JUMPDEST DUP3 ADD SWAP2 SWAP1 PUSH1 0x0 MSTORE PUSH1 0x20 PUSH1 0x0 KECCAK256 SWAP1 JUMPDEST DUP2 SLOAD DUP2 MSTORE SWAP1 PUSH1 0x1 ADD SWAP1 PUSH1 0x20 ADD DUP1 DUP4 GT PUSH2 0x1D61 JUMPI DUP3 SWAP1 SUB PUSH1 0x1F AND DUP3 ADD SWAP2 JUMPDEST POP POP POP POP POP DUP2 MSTORE PUSH1 0x20 ADD PUSH1 0x6 DUP3 ADD DUP1 SLOAD PUSH2 0x1D97 SWAP1 PUSH2 0x5B0B JUMP JUMPDEST DUP1 PUSH1 0x1F ADD PUSH1 0x20 DUP1 SWAP2 DIV MUL PUSH1 0x20 ADD PUSH1 0x40 MLOAD SWAP1 DUP2 ADD PUSH1 0x40 MSTORE DUP1 SWAP3 SWAP2 SWAP1 DUP2 DUP2 MSTORE PUSH1 0x20 ADD DUP3 DUP1 SLOAD PUSH2 0x1DC3 SWAP1 PUSH2 0x5B0B JUMP JUMPDEST DUP1 ISZERO PUSH2 0x1E10 JUMPI DUP1 PUSH1 0x1F LT PUSH2 0x1DE5 JUMPI PUSH2 0x100 DUP1 DUP4 SLOAD DIV MUL DUP4 MSTORE SWAP2 PUSH1 0x20 ADD SWAP2 PUSH2 0x1E10 JUMP JUMPDEST DUP3 ADD SWAP2 SWAP1 PUSH1 0x0 MSTORE PUSH1 0x20 PUSH1 0x0 KECCAK256 SWAP1 JUMPDEST DUP2 SLOAD DUP2 MSTORE SWAP1 PUSH1 0x1 ADD SWAP1 PUSH1 0x20 ADD DUP1 DUP4 GT PUSH2 0x1DF3 JUMPI DUP3 SWAP1 SUB PUSH1 0x1F AND DUP3 ADD SWAP2 JUMPDEST POP POP POP POP POP DUP2 MSTORE POP POP DUP2 MSTORE PUSH1 0x20 ADD PUSH1 0xA DUP3 ADD DUP1 SLOAD PUSH2 0x1E2D SWAP1 PUSH2 0x5B0B JUMP JUMPDEST DUP1 PUSH1 0x1F ADD PUSH1 0x20 DUP1 SWAP2 DIV MUL PUSH1 0x20 ADD PUSH1 0x40 MLOAD SWAP1 DUP2 ADD PUSH1 0x40 MSTORE DUP1 SWAP3 SWAP2 SWAP1 DUP2 DUP2 MSTORE PUSH1 0x20 ADD DUP3 DUP1 SLOAD PUSH2 0x1E59 SWAP1 PUSH2 0x5B0B JUMP JUMPDEST DUP1 ISZERO PUSH2 0x1EA6 JUMPI DUP1 PUSH1 0x1F LT PUSH2 0x1E7B JUMPI PUSH2 0x100 DUP1 DUP4 SLOAD DIV MUL DUP4 MSTORE SWAP2 PUSH1 0x20 ADD SWAP2 PUSH2 0x1EA6 JUMP JUMPDEST DUP3 ADD SWAP2 SWAP1 PUSH1 0x0 MSTORE PUSH1 0x20 PUSH1 0x0 KECCAK256 SWAP1 JUMPDEST DUP2 SLOAD DUP2 MSTORE SWAP1 PUSH1 0x1 ADD SWAP1 PUSH1 0x20 ADD DUP1 DUP4 GT PUSH2 0x1E89 JUMPI DUP3 SWAP1 SUB PUSH1 0x1F AND DUP3 ADD SWAP2 JUMPDEST POP POP POP POP POP DUP2 MSTORE PUSH1 0x20 ADD PUSH1 0xB DUP3 ADD DUP1 SLOAD PUSH2 0x1EBF SWAP1 PUSH2 0x5B0B JUMP JUMPDEST DUP1 PUSH1 0x1F ADD PUSH1 0x20 DUP1 SWAP2 DIV MUL PUSH1 0x20 ADD PUSH1 0x40 MLOAD SWAP1 DUP2 ADD PUSH1 0x40 MSTORE DUP1 SWAP3 SWAP2 SWAP1 DUP2 DUP2 MSTORE PUSH1 0x20 ADD DUP3 DUP1 SLOAD PUSH2 0x1EEB SWAP1 PUSH2 0x5B0B JUMP JUMPDEST DUP1 ISZERO PUSH2 0x1F38 JUMPI DUP1 PUSH1 0x1F LT PUSH2 0x1F0D JUMPI PUSH2 0x100 DUP1 DUP4 SLOAD DIV MUL DUP4 MSTORE SWAP2 PUSH1 0x20 ADD SWAP2 PUSH2 0x1F38 JUMP JUMPDEST DUP3 ADD SWAP2 SWAP1 PUSH1 0x0 MSTORE PUSH1 0x20 PUSH1 0x0 KECCAK256 SWAP1 JUMPDEST DUP2 SLOAD DUP2 MSTORE SWAP1 PUSH1 0x1 ADD SWAP1 PUSH1 0x20 ADD DUP1 DUP4 GT PUSH2 0x1F1B JUMPI DUP3 SWAP1 SUB PUSH1 0x1F AND DUP3 ADD SWAP2 JUMPDEST POP POP POP SWAP2 DUP4 MSTORE POP POP PUSH1 0xC SWAP2 SWAP1 SWAP2 ADD SLOAD PUSH1 0xFF SWAP1 DUP2 AND ISZERO ISZERO PUSH1 0x20 SWAP3 DUP4 ADD MSTORE SWAP2 DUP4 MSTORE PUSH1 0x12 SWAP4 SWAP1 SWAP4 ADD SLOAD AND ISZERO ISZERO SWAP2 ADD MSTORE DUP5 MLOAD DUP6 SWAP1 DUP8 SWAP1 DUP2 LT PUSH2 0x1F78 JUMPI PUSH2 0x1F78 PUSH2 0x5B8B JUMP JUMPDEST PUSH1 0x20 SWAP1 DUP2 MUL SWAP2 SWAP1 SWAP2 ADD ADD MSTORE PUSH2 0x1F8E PUSH1 0x1 DUP7 PUSH2 0x5B73 JUMP JUMPDEST SWAP5 POP POP POP DUP1 DUP1 PUSH2 0x1F9D SWAP1 PUSH2 0x5BA1 JUMP JUMPDEST SWAP2 POP POP PUSH2 0x1854 JUMP JUMPDEST POP SWAP4 SWAP3 POP POP POP JUMP JUMPDEST PUSH1 0x0 DUP2 DUP2 MSTORE PUSH1 0x2 PUSH1 0x20 MSTORE PUSH1 0x40 DUP2 KECCAK256 SLOAD PUSH1 0x1 PUSH1 0x1 PUSH1 0xA0 SHL SUB AND DUP1 PUSH2 0x6FA JUMPI PUSH1 0x40 MLOAD PUSH3 0x461BCD PUSH1 0xE5 SHL DUP2 MSTORE PUSH1 0x4 ADD PUSH2 0x82E SWAP1 PUSH2 0x5C0A JUMP JUMPDEST PUSH1 0x0 PUSH1 0x1 PUSH1 0x1 PUSH1 0xA0 SHL SUB DUP3 AND PUSH2 0x204C JUMPI PUSH1 0x40 MLOAD PUSH3 0x461BCD PUSH1 0xE5 SHL DUP2 MSTORE PUSH1 0x20 PUSH1 0x4 DUP3 ADD MSTORE PUSH1 0x29 PUSH1 0x24 DUP3 ADD MSTORE PUSH32 0x4552433732313A2061646472657373207A65726F206973206E6F742061207661 PUSH1 0x44 DUP3 ADD MSTORE PUSH9 0x3634B21037BBB732B9 PUSH1 0xB9 SHL PUSH1 0x64 DUP3 ADD MSTORE PUSH1 0x84 ADD PUSH2 0x82E JUMP JUMPDEST POP PUSH1 0x1 PUSH1 0x1 PUSH1 0xA0 SHL SUB AND PUSH1 0x0 SWAP1 DUP2 MSTORE PUSH1 0x3 PUSH1 0x20 MSTORE PUSH1 0x40 SWAP1 KECCAK256 SLOAD SWAP1 JUMP JUMPDEST PUSH2 0x2070 PUSH2 0x502A JUMP JUMPDEST CALLER PUSH1 0x0 SWAP1 DUP2 MSTORE PUSH1 0x18 PUSH1 0x20 SWAP1 DUP2 MSTORE PUSH1 0x40 SWAP2 DUP3 SWAP1 KECCAK256 DUP3 MLOAD PUSH1 0xE0 DUP2 ADD SWAP1 SWAP4 MSTORE DUP1 SLOAD DUP4 MSTORE PUSH1 0x1 DUP2 ADD DUP1 SLOAD SWAP2 SWAP3 DUP5 ADD SWAP2 PUSH2 0x20A4 SWAP1 PUSH2 0x5B0B JUMP JUMPDEST DUP1 PUSH1 0x1F ADD PUSH1 0x20 DUP1 SWAP2 DIV MUL PUSH1 0x20 ADD PUSH1 0x40 MLOAD SWAP1 DUP2 ADD PUSH1 0x40 MSTORE DUP1 SWAP3 SWAP2 SWAP1 DUP2 DUP2 MSTORE PUSH1 0x20 ADD DUP3 DUP1 SLOAD PUSH2 0x20D0 SWAP1 PUSH2 0x5B0B JUMP JUMPDEST DUP1 ISZERO PUSH2 0x211D JUMPI DUP1 PUSH1 0x1F LT PUSH2 0x20F2 JUMPI PUSH2 0x100 DUP1 DUP4 SLOAD DIV MUL DUP4 MSTORE SWAP2 PUSH1 0x20 ADD SWAP2 PUSH2 0x211D JUMP JUMPDEST DUP3 ADD SWAP2 SWAP1 PUSH1 0x0 MSTORE PUSH1 0x20 PUSH1 0x0 KECCAK256 SWAP1 JUMPDEST DUP2 SLOAD DUP2 MSTORE SWAP1 PUSH1 0x1 ADD SWAP1 PUSH1 0x20 ADD DUP1 DUP4 GT PUSH2 0x2100 JUMPI DUP3 SWAP1 SUB PUSH1 0x1F AND DUP3 ADD SWAP2 JUMPDEST POP POP POP SWAP2 DUP4 MSTORE POP POP PUSH1 0x2 DUP3 ADD SLOAD PUSH1 0x1 PUSH1 0x1 PUSH1 0xA0 SHL SUB AND PUSH1 0x20 DUP3 ADD MSTORE PUSH1 0x3 DUP3 ADD SLOAD PUSH1 0x40 DUP3 ADD MSTORE PUSH1 0x4 DUP3 ADD DUP1 SLOAD PUSH1 0x60 SWAP1 SWAP3 ADD SWAP2 PUSH2 0x2157 SWAP1 PUSH2 0x5B0B JUMP JUMPDEST DUP1 PUSH1 0x1F ADD PUSH1 0x20 DUP1 SWAP2 DIV MUL PUSH1 0x20 ADD PUSH1 0x40 MLOAD SWAP1 DUP2 ADD PUSH1 0x40 MSTORE DUP1 SWAP3 SWAP2 SWAP1 DUP2 DUP2 MSTORE PUSH1 0x20 ADD DUP3 DUP1 SLOAD PUSH2 0x2183 SWAP1 PUSH2 0x5B0B JUMP JUMPDEST DUP1 ISZERO PUSH2 0x21D0 JUMPI DUP1 PUSH1 0x1F LT PUSH2 0x21A5 JUMPI PUSH2 0x100 DUP1 DUP4 SLOAD DIV MUL DUP4 MSTORE SWAP2 PUSH1 0x20 ADD SWAP2 PUSH2 0x21D0 JUMP JUMPDEST DUP3 ADD SWAP2 SWAP1 PUSH1 0x0 MSTORE PUSH1 0x20 PUSH1 0x0 KECCAK256 SWAP1 JUMPDEST DUP2 SLOAD DUP2 MSTORE SWAP1 PUSH1 0x1 ADD SWAP1 PUSH1 0x20 ADD DUP1 DUP4 GT PUSH2 0x21B3 JUMPI DUP3 SWAP1 SUB PUSH1 0x1F AND DUP3 ADD SWAP2 JUMPDEST POP POP POP POP POP DUP2 MSTORE PUSH1 0x20 ADD PUSH1 0x5 DUP3 ADD DUP1 SLOAD PUSH2 0x21E9 SWAP1 PUSH2 0x5B0B JUMP JUMPDEST DUP1 PUSH1 0x1F ADD PUSH1 0x20 DUP1 SWAP2 DIV MUL PUSH1 0x20 ADD PUSH1 0x40 MLOAD SWAP1 DUP2 ADD PUSH1 0x40 MSTORE DUP1 SWAP3 SWAP2 SWAP1 DUP2 DUP2 MSTORE PUSH1 0x20 ADD DUP3 DUP1 SLOAD PUSH2 0x2215 SWAP1 PUSH2 0x5B0B JUMP JUMPDEST DUP1 ISZERO PUSH2 0x2262 JUMPI DUP1 PUSH1 0x1F LT PUSH2 0x2237 JUMPI PUSH2 0x100 DUP1 DUP4 SLOAD DIV MUL DUP4 MSTORE SWAP2 PUSH1 0x20 ADD SWAP2 PUSH2 0x2262 JUMP JUMPDEST DUP3 ADD SWAP2 SWAP1 PUSH1 0x0 MSTORE PUSH1 0x20 PUSH1 0x0 KECCAK256 SWAP1 JUMPDEST DUP2 SLOAD DUP2 MSTORE SWAP1 PUSH1 0x1 ADD SWAP1 PUSH1 0x20 ADD DUP1 DUP4 GT PUSH2 0x2245 JUMPI DUP3 SWAP1 SUB PUSH1 0x1F AND DUP3 ADD SWAP2 JUMPDEST POP POP POP POP POP DUP2 MSTORE PUSH1 0x20 ADD PUSH1 0x6 DUP3 ADD DUP1 SLOAD PUSH2 0x227B SWAP1 PUSH2 0x5B0B JUMP JUMPDEST DUP1 PUSH1 0x1F ADD PUSH1 0x20 DUP1 SWAP2 DIV MUL PUSH1 0x20 ADD PUSH1 0x40 MLOAD SWAP1 DUP2 ADD PUSH1 0x40 MSTORE DUP1 SWAP3 SWAP2 SWAP1 DUP2 DUP2 MSTORE PUSH1 0x20 ADD DUP3 DUP1 SLOAD PUSH2 0x22A7 SWAP1 PUSH2 0x5B0B JUMP JUMPDEST DUP1 ISZERO PUSH2 0x22F4 JUMPI DUP1 PUSH1 0x1F LT PUSH2 0x22C9 JUMPI PUSH2 0x100 DUP1 DUP4 SLOAD DIV MUL DUP4 MSTORE SWAP2 PUSH1 0x20 ADD SWAP2 PUSH2 0x22F4 JUMP JUMPDEST DUP3 ADD SWAP2 SWAP1 PUSH1 0x0 MSTORE PUSH1 0x20 PUSH1 0x0 KECCAK256 SWAP1 JUMPDEST DUP2 SLOAD DUP2 MSTORE SWAP1 PUSH1 0x1 ADD SWAP1 PUSH1 0x20 ADD DUP1 DUP4 GT PUSH2 0x22D7 JUMPI DUP3 SWAP1 SUB PUSH1 0x1F AND DUP3 ADD SWAP2 JUMPDEST POP POP POP POP POP DUP2 MSTORE POP POP SWAP1 POP SWAP1 JUMP JUMPDEST PUSH1 0x60 PUSH1 0x0 PUSH2 0x230F PUSH1 0xA SLOAD SWAP1 JUMP JUMPDEST SWAP1 POP PUSH1 0x0 DUP1 DUP3 PUSH1 0x1 PUSH1 0x1 PUSH1 0x40 SHL SUB DUP2 GT ISZERO PUSH2 0x232C JUMPI PUSH2 0x232C PUSH2 0x52F9 JUMP JUMPDEST PUSH1 0x40 MLOAD SWAP1 DUP1 DUP3 MSTORE DUP1 PUSH1 0x20 MUL PUSH1 0x20 ADD DUP3 ADD PUSH1 0x40 MSTORE DUP1 ISZERO PUSH2 0x2365 JUMPI DUP2 PUSH1 0x20 ADD JUMPDEST PUSH2 0x2352 PUSH2 0x5070 JUMP JUMPDEST DUP2 MSTORE PUSH1 0x20 ADD SWAP1 PUSH1 0x1 SWAP1 SUB SWAP1 DUP2 PUSH2 0x234A JUMPI SWAP1 POP JUMPDEST POP SWAP1 POP PUSH1 0x0 JUMPDEST DUP4 DUP2 LT ISZERO PUSH2 0xC00 JUMPI PUSH1 0x0 PUSH2 0x2380 DUP3 PUSH1 0x1 PUSH2 0x5B73 JUMP JUMPDEST PUSH1 0x0 DUP9 DUP2 MSTORE PUSH1 0x14 PUSH1 0x20 SWAP1 DUP2 MSTORE PUSH1 0x40 DUP1 DUP4 KECCAK256 DUP5 DUP5 MSTORE DUP3 MSTORE SWAP2 DUP3 SWAP1 KECCAK256 DUP3 MLOAD PUSH1 0xE0 DUP2 ADD SWAP1 SWAP4 MSTORE DUP1 SLOAD DUP4 MSTORE PUSH1 0x1 DUP2 ADD DUP1 SLOAD SWAP5 SWAP6 POP SWAP1 SWAP4 DUP5 SWAP3 DUP5 ADD SWAP2 SWAP1 PUSH2 0x23C1 SWAP1 PUSH2 0x5B0B JUMP JUMPDEST DUP1 PUSH1 0x1F ADD PUSH1 0x20 DUP1 SWAP2 DIV MUL PUSH1 0x20 ADD PUSH1 0x40 MLOAD SWAP1 DUP2 ADD PUSH1 0x40 MSTORE DUP1 SWAP3 SWAP2 SWAP1 DUP2 DUP2 MSTORE PUSH1 0x20 ADD DUP3 DUP1 SLOAD PUSH2 0x23ED SWAP1 PUSH2 0x5B0B JUMP JUMPDEST DUP1 ISZERO PUSH2 0x243A JUMPI DUP1 PUSH1 0x1F LT PUSH2 0x240F JUMPI PUSH2 0x100 DUP1 DUP4 SLOAD DIV MUL DUP4 MSTORE SWAP2 PUSH1 0x20 ADD SWAP2 PUSH2 0x243A JUMP JUMPDEST DUP3 ADD SWAP2 SWAP1 PUSH1 0x0 MSTORE PUSH1 0x20 PUSH1 0x0 KECCAK256 SWAP1 JUMPDEST DUP2 SLOAD DUP2 MSTORE SWAP1 PUSH1 0x1 ADD SWAP1 PUSH1 0x20 ADD DUP1 DUP4 GT PUSH2 0x241D JUMPI DUP3 SWAP1 SUB PUSH1 0x1F AND DUP3 ADD SWAP2 JUMPDEST POP POP POP POP POP DUP2 MSTORE PUSH1 0x20 ADD PUSH1 0x2 DUP3 ADD SLOAD DUP2 MSTORE PUSH1 0x20 ADD PUSH1 0x3 DUP3 ADD PUSH1 0x40 MLOAD DUP1 PUSH1 0xE0 ADD PUSH1 0x40 MSTORE SWAP1 DUP2 PUSH1 0x0 DUP3 ADD SLOAD DUP2 MSTORE PUSH1 0x20 ADD PUSH1 0x1 DUP3 ADD DUP1 SLOAD PUSH2 0x2477 SWAP1 PUSH2 0x5B0B JUMP JUMPDEST DUP1 PUSH1 0x1F ADD PUSH1 0x20 DUP1 SWAP2 DIV MUL PUSH1 0x20 ADD PUSH1 0x40 MLOAD SWAP1 DUP2 ADD PUSH1 0x40 MSTORE DUP1 SWAP3 SWAP2 SWAP1 DUP2 DUP2 MSTORE PUSH1 0x20 ADD DUP3 DUP1 SLOAD PUSH2 0x24A3 SWAP1 PUSH2 0x5B0B JUMP JUMPDEST DUP1 ISZERO PUSH2 0x24F0 JUMPI DUP1 PUSH1 0x1F LT PUSH2 0x24C5 JUMPI PUSH2 0x100 DUP1 DUP4 SLOAD DIV MUL DUP4 MSTORE SWAP2 PUSH1 0x20 ADD SWAP2 PUSH2 0x24F0 JUMP JUMPDEST DUP3 ADD SWAP2 SWAP1 PUSH1 0x0 MSTORE PUSH1 0x20 PUSH1 0x0 KECCAK256 SWAP1 JUMPDEST DUP2 SLOAD DUP2 MSTORE SWAP1 PUSH1 0x1 ADD SWAP1 PUSH1 0x20 ADD DUP1 DUP4 GT PUSH2 0x24D3 JUMPI DUP3 SWAP1 SUB PUSH1 0x1F AND DUP3 ADD SWAP2 JUMPDEST POP POP POP SWAP2 DUP4 MSTORE POP POP PUSH1 0x2 DUP3 ADD SLOAD PUSH1 0x1 PUSH1 0x1 PUSH1 0xA0 SHL SUB AND PUSH1 0x20 DUP3 ADD MSTORE PUSH1 0x3 DUP3 ADD SLOAD PUSH1 0x40 DUP3 ADD MSTORE PUSH1 0x4 DUP3 ADD DUP1 SLOAD PUSH1 0x60 SWAP1 SWAP3 ADD SWAP2 PUSH2 0x252A SWAP1 PUSH2 0x5B0B JUMP JUMPDEST DUP1 PUSH1 0x1F ADD PUSH1 0x20 DUP1 SWAP2 DIV MUL PUSH1 0x20 ADD PUSH1 0x40 MLOAD SWAP1 DUP2 ADD PUSH1 0x40 MSTORE DUP1 SWAP3 SWAP2 SWAP1 DUP2 DUP2 MSTORE PUSH1 0x20 ADD DUP3 DUP1 SLOAD PUSH2 0x2556 SWAP1 PUSH2 0x5B0B JUMP JUMPDEST DUP1 ISZERO PUSH2 0x25A3 JUMPI DUP1 PUSH1 0x1F LT PUSH2 0x2578 JUMPI PUSH2 0x100 DUP1 DUP4 SLOAD DIV MUL DUP4 MSTORE SWAP2 PUSH1 0x20 ADD SWAP2 PUSH2 0x25A3 JUMP JUMPDEST DUP3 ADD SWAP2 SWAP1 PUSH1 0x0 MSTORE PUSH1 0x20 PUSH1 0x0 KECCAK256 SWAP1 JUMPDEST DUP2 SLOAD DUP2 MSTORE SWAP1 PUSH1 0x1 ADD SWAP1 PUSH1 0x20 ADD DUP1 DUP4 GT PUSH2 0x2586 JUMPI DUP3 SWAP1 SUB PUSH1 0x1F AND DUP3 ADD SWAP2 JUMPDEST POP POP POP POP POP DUP2 MSTORE PUSH1 0x20 ADD PUSH1 0x5 DUP3 ADD DUP1 SLOAD PUSH2 0x25BC SWAP1 PUSH2 0x5B0B JUMP JUMPDEST DUP1 PUSH1 0x1F ADD PUSH1 0x20 DUP1 SWAP2 DIV MUL PUSH1 0x20 ADD PUSH1 0x40 MLOAD SWAP1 DUP2 ADD PUSH1 0x40 MSTORE DUP1 SWAP3 SWAP2 SWAP1 DUP2 DUP2 MSTORE PUSH1 0x20 ADD DUP3 DUP1 SLOAD PUSH2 0x25E8 SWAP1 PUSH2 0x5B0B JUMP JUMPDEST DUP1 ISZERO PUSH2 0x2635 JUMPI DUP1 PUSH1 0x1F LT PUSH2 0x260A JUMPI PUSH2 0x100 DUP1 DUP4 SLOAD DIV MUL DUP4 MSTORE SWAP2 PUSH1 0x20 ADD SWAP2 PUSH2 0x2635 JUMP JUMPDEST DUP3 ADD SWAP2 SWAP1 PUSH1 0x0 MSTORE PUSH1 0x20 PUSH1 0x0 KECCAK256 SWAP1 JUMPDEST DUP2 SLOAD DUP2 MSTORE SWAP1 PUSH1 0x1 ADD SWAP1 PUSH1 0x20 ADD DUP1 DUP4 GT PUSH2 0x2618 JUMPI DUP3 SWAP1 SUB PUSH1 0x1F AND DUP3 ADD SWAP2 JUMPDEST POP POP POP POP POP DUP2 MSTORE PUSH1 0x20 ADD PUSH1 0x6 DUP3 ADD DUP1 SLOAD PUSH2 0x264E SWAP1 PUSH2 0x5B0B JUMP JUMPDEST DUP1 PUSH1 0x1F ADD PUSH1 0x20 DUP1 SWAP2 DIV MUL PUSH1 0x20 ADD PUSH1 0x40 MLOAD SWAP1 DUP2 ADD PUSH1 0x40 MSTORE DUP1 SWAP3 SWAP2 SWAP1 DUP2 DUP2 MSTORE PUSH1 0x20 ADD DUP3 DUP1 SLOAD PUSH2 0x267A SWAP1 PUSH2 0x5B0B JUMP JUMPDEST DUP1 ISZERO PUSH2 0x26C7 JUMPI DUP1 PUSH1 0x1F LT PUSH2 0x269C JUMPI PUSH2 0x100 DUP1 DUP4 SLOAD DIV MUL DUP4 MSTORE SWAP2 PUSH1 0x20 ADD SWAP2 PUSH2 0x26C7 JUMP JUMPDEST DUP3 ADD SWAP2 SWAP1 PUSH1 0x0 MSTORE PUSH1 0x20 PUSH1 0x0 KECCAK256 SWAP1 JUMPDEST DUP2 SLOAD DUP2 MSTORE SWAP1 PUSH1 0x1 ADD SWAP1 PUSH1 0x20 ADD DUP1 DUP4 GT PUSH2 0x26AA JUMPI DUP3 SWAP1 SUB PUSH1 0x1F AND DUP3 ADD SWAP2 JUMPDEST POP POP POP POP POP DUP2 MSTORE POP POP DUP2 MSTORE PUSH1 0x20 ADD PUSH1 0xA DUP3 ADD DUP1 SLOAD PUSH2 0x26E4 SWAP1 PUSH2 0x5B0B JUMP JUMPDEST DUP1 PUSH1 0x1F ADD PUSH1 0x20 DUP1 SWAP2 DIV MUL PUSH1 0x20 ADD PUSH1 0x40 MLOAD SWAP1 DUP2 ADD PUSH1 0x40 MSTORE DUP1 SWAP3 SWAP2 SWAP1 DUP2 DUP2 MSTORE PUSH1 0x20 ADD DUP3 DUP1 SLOAD PUSH2 0x2710 SWAP1 PUSH2 0x5B0B JUMP JUMPDEST DUP1 ISZERO PUSH2 0x275D JUMPI DUP1 PUSH1 0x1F LT PUSH2 0x2732 JUMPI PUSH2 0x100 DUP1 DUP4 SLOAD DIV MUL DUP4 MSTORE SWAP2 PUSH1 0x20 ADD SWAP2 PUSH2 0x275D JUMP JUMPDEST DUP3 ADD SWAP2 SWAP1 PUSH1 0x0 MSTORE PUSH1 0x20 PUSH1 0x0 KECCAK256 SWAP1 JUMPDEST DUP2 SLOAD DUP2 MSTORE SWAP1 PUSH1 0x1 ADD SWAP1 PUSH1 0x20 ADD DUP1 DUP4 GT PUSH2 0x2740 JUMPI DUP3 SWAP1 SUB PUSH1 0x1F AND DUP3 ADD SWAP2 JUMPDEST POP POP POP POP POP DUP2 MSTORE PUSH1 0x20 ADD PUSH1 0xB DUP3 ADD DUP1 SLOAD PUSH2 0x2776 SWAP1 PUSH2 0x5B0B JUMP JUMPDEST DUP1 PUSH1 0x1F ADD PUSH1 0x20 DUP1 SWAP2 DIV MUL PUSH1 0x20 ADD PUSH1 0x40 MLOAD SWAP1 DUP2 ADD PUSH1 0x40 MSTORE DUP1 SWAP3 SWAP2 SWAP1 DUP2 DUP2 MSTORE PUSH1 0x20 ADD DUP3 DUP1 SLOAD PUSH2 0x27A2 SWAP1 PUSH2 0x5B0B JUMP JUMPDEST DUP1 ISZERO PUSH2 0x27EF JUMPI DUP1 PUSH1 0x1F LT PUSH2 0x27C4 JUMPI PUSH2 0x100 DUP1 DUP4 SLOAD DIV MUL DUP4 MSTORE SWAP2 PUSH1 0x20 ADD SWAP2 PUSH2 0x27EF JUMP JUMPDEST DUP3 ADD SWAP2 SWAP1 PUSH1 0x0 MSTORE PUSH1 0x20 PUSH1 0x0 KECCAK256 SWAP1 JUMPDEST DUP2 SLOAD DUP2 MSTORE SWAP1 PUSH1 0x1 ADD SWAP1 PUSH1 0x20 ADD DUP1 DUP4 GT PUSH2 0x27D2 JUMPI DUP3 SWAP1 SUB PUSH1 0x1F AND DUP3 ADD SWAP2 JUMPDEST POP POP POP SWAP2 DUP4 MSTORE POP POP PUSH1 0xC SWAP2 SWAP1 SWAP2 ADD SLOAD PUSH1 0xFF AND ISZERO ISZERO PUSH1 0x20 SWAP1 SWAP2 ADD MSTORE DUP5 MLOAD DUP6 SWAP1 DUP8 SWAP1 DUP2 LT PUSH2 0x281D JUMPI PUSH2 0x281D PUSH2 0x5B8B JUMP JUMPDEST PUSH1 0x20 SWAP1 DUP2 MUL SWAP2 SWAP1 SWAP2 ADD ADD MSTORE PUSH2 0x2833 PUSH1 0x1 DUP7 PUSH2 0x5B73 JUMP JUMPDEST SWAP5 POP POP POP DUP1 DUP1 PUSH2 0x2842 SWAP1 PUSH2 0x5BA1 JUMP JUMPDEST SWAP2 POP POP PUSH2 0x236B JUMP JUMPDEST PUSH1 0x60 PUSH1 0x1 DUP1 SLOAD PUSH2 0x70F SWAP1 PUSH2 0x5B0B JUMP JUMPDEST PUSH2 0x2867 PUSH1 0xB DUP1 SLOAD PUSH1 0x1 ADD SWAP1 SSTORE JUMP JUMPDEST PUSH1 0x0 PUSH1 0x17 PUSH1 0x0 PUSH2 0x2876 PUSH1 0xB SLOAD SWAP1 JUMP JUMPDEST DUP2 MSTORE PUSH1 0x20 ADD SWAP1 DUP2 MSTORE PUSH1 0x20 ADD PUSH1 0x0 KECCAK256 SWAP1 POP PUSH2 0x288F PUSH1 0xB SLOAD SWAP1 JUMP JUMPDEST DUP2 SSTORE DUP4 MLOAD PUSH2 0x28A6 SWAP1 PUSH1 0x4 DUP4 ADD SWAP1 PUSH1 0x20 DUP8 ADD SWAP1 PUSH2 0x4EE8 JUMP JUMPDEST POP DUP2 MLOAD PUSH2 0x28BC SWAP1 PUSH1 0x1 DUP4 ADD SWAP1 PUSH1 0x20 DUP6 ADD SWAP1 PUSH2 0x4EE8 JUMP JUMPDEST POP DUP3 MLOAD PUSH2 0x28D2 SWAP1 PUSH1 0x5 DUP4 ADD SWAP1 PUSH1 0x20 DUP7 ADD SWAP1 PUSH2 0x4EE8 JUMP JUMPDEST POP PUSH1 0x2 DUP2 ADD DUP1 SLOAD PUSH1 0x1 PUSH1 0x1 PUSH1 0xA0 SHL SUB NOT AND CALLER SWAP1 DUP2 OR SWAP1 SWAP2 SSTORE PUSH1 0x0 SWAP1 DUP2 MSTORE PUSH1 0x10 PUSH1 0x20 SWAP1 DUP2 MSTORE PUSH1 0x40 DUP1 DUP4 KECCAK256 DUP1 SLOAD PUSH1 0xFF NOT AND PUSH1 0x1 SWAP1 DUP2 OR SWAP1 SWAP2 SSTORE PUSH1 0x18 SWAP1 SWAP3 MSTORE SWAP1 SWAP2 KECCAK256 DUP3 SLOAD DUP2 SSTORE DUP2 DUP4 ADD DUP1 SLOAD DUP5 SWAP4 DUP4 ADD SWAP2 SWAP1 PUSH2 0x2929 SWAP1 PUSH2 0x5B0B JUMP JUMPDEST PUSH2 0x2934 SWAP3 SWAP2 SWAP1 PUSH2 0x4F6C JUMP JUMPDEST POP PUSH1 0x2 DUP3 DUP2 ADD SLOAD SWAP1 DUP3 ADD DUP1 SLOAD PUSH1 0x1 PUSH1 0x1 PUSH1 0xA0 SHL SUB NOT AND PUSH1 0x1 PUSH1 0x1 PUSH1 0xA0 SHL SUB SWAP1 SWAP3 AND SWAP2 SWAP1 SWAP2 OR SWAP1 SSTORE PUSH1 0x3 DUP1 DUP4 ADD SLOAD SWAP1 DUP3 ADD SSTORE PUSH1 0x4 DUP1 DUP4 ADD DUP1 SLOAD SWAP2 DUP4 ADD SWAP2 PUSH2 0x2979 SWAP1 PUSH2 0x5B0B JUMP JUMPDEST PUSH2 0x2984 SWAP3 SWAP2 SWAP1 PUSH2 0x4F6C JUMP JUMPDEST POP PUSH1 0x5 DUP3 ADD DUP2 PUSH1 0x5 ADD SWAP1 DUP1 SLOAD PUSH2 0x2999 SWAP1 PUSH2 0x5B0B JUMP JUMPDEST PUSH2 0x29A4 SWAP3 SWAP2 SWAP1 PUSH2 0x4F6C JUMP JUMPDEST POP PUSH1 0x6 DUP3 ADD DUP2 PUSH1 0x6 ADD SWAP1 DUP1 SLOAD PUSH2 0x29B9 SWAP1 PUSH2 0x5B0B JUMP JUMPDEST PUSH2 0x29C4 SWAP3 SWAP2 SWAP1 PUSH2 0x4F6C JUMP JUMPDEST POP SWAP1 POP POP DUP1 PUSH1 0x17 PUSH1 0x0 PUSH2 0x29D6 PUSH1 0xB SLOAD SWAP1 JUMP JUMPDEST DUP2 MSTORE PUSH1 0x20 DUP2 ADD SWAP2 SWAP1 SWAP2 MSTORE PUSH1 0x40 ADD PUSH1 0x0 KECCAK256 DUP2 SLOAD DUP2 SSTORE PUSH1 0x1 DUP1 DUP4 ADD DUP1 SLOAD SWAP2 DUP4 ADD SWAP2 PUSH2 0x29FE SWAP1 PUSH2 0x5B0B JUMP JUMPDEST PUSH2 0x2A09 SWAP3 SWAP2 SWAP1 PUSH2 0x4F6C JUMP JUMPDEST POP PUSH1 0x2 DUP3 DUP2 ADD SLOAD SWAP1 DUP3 ADD DUP1 SLOAD PUSH1 0x1 PUSH1 0x1 PUSH1 0xA0 SHL SUB NOT AND PUSH1 0x1 PUSH1 0x1 PUSH1 0xA0 SHL SUB SWAP1 SWAP3 AND SWAP2 SWAP1 SWAP2 OR SWAP1 SSTORE PUSH1 0x3 DUP1 DUP4 ADD SLOAD SWAP1 DUP3 ADD SSTORE PUSH1 0x4 DUP1 DUP4 ADD DUP1 SLOAD SWAP2 DUP4 ADD SWAP2 PUSH2 0x2A4E SWAP1 PUSH2 0x5B0B JUMP JUMPDEST PUSH2 0x2A59 SWAP3 SWAP2 SWAP1 PUSH2 0x4F6C JUMP JUMPDEST POP PUSH1 0x5 DUP3 ADD DUP2 PUSH1 0x5 ADD SWAP1 DUP1 SLOAD PUSH2 0x2A6E SWAP1 PUSH2 0x5B0B JUMP JUMPDEST PUSH2 0x2A79 SWAP3 SWAP2 SWAP1 PUSH2 0x4F6C JUMP JUMPDEST POP PUSH1 0x6 DUP3 ADD DUP2 PUSH1 0x6 ADD SWAP1 DUP1 SLOAD PUSH2 0x2A8E SWAP1 PUSH2 0x5B0B JUMP JUMPDEST PUSH2 0x2A99 SWAP3 SWAP2 SWAP1 PUSH2 0x4F6C JUMP JUMPDEST POP POP POP POP POP POP POP JUMP JUMPDEST PUSH1 0x0 PUSH2 0x2AB2 PUSH1 0x7 DUP1 SLOAD PUSH1 0x1 ADD SWAP1 SSTORE JUMP JUMPDEST PUSH1 0x0 PUSH2 0x2ABD PUSH1 0x7 SLOAD SWAP1 JUMP JUMPDEST SWAP1 POP PUSH2 0x2AC9 CALLER DUP3 PUSH2 0x47A0 JUMP JUMPDEST PUSH2 0x2AD3 DUP2 DUP9 PUSH2 0x48C0 JUMP JUMPDEST PUSH2 0x2AE0 DUP2 DUP8 DUP8 DUP8 DUP8 PUSH2 0x494B JUMP JUMPDEST SWAP7 SWAP6 POP POP POP POP POP POP JUMP JUMPDEST PUSH2 0x2AF5 CALLER DUP4 DUP4 PUSH2 0x4AF6 JUMP JUMPDEST POP POP JUMP JUMPDEST PUSH1 0xD SLOAD PUSH1 0x1 PUSH1 0x1 PUSH1 0xA0 SHL SUB AND CALLER EQ PUSH2 0x2B6C JUMPI PUSH1 0x40 MLOAD PUSH3 0x461BCD PUSH1 0xE5 SHL DUP2 MSTORE PUSH1 0x20 PUSH1 0x4 DUP3 ADD MSTORE PUSH1 0x30 PUSH1 0x24 DUP3 ADD MSTORE PUSH32 0x4F6E6C79206D61726B6574706C616365206F776E65722063616E207570646174 PUSH1 0x44 DUP3 ADD MSTORE PUSH16 0x32903634B9BA34B73390383934B1B297 PUSH1 0x81 SHL PUSH1 0x64 DUP3 ADD MSTORE PUSH1 0x84 ADD PUSH2 0x82E JUMP JUMPDEST PUSH1 0xC SSTORE JUMP JUMPDEST PUSH2 0x2B7F PUSH1 0xA DUP1 SLOAD PUSH1 0x1 ADD SWAP1 SSTORE JUMP JUMPDEST PUSH1 0x0 DUP7 DUP2 MSTORE PUSH1 0x14 PUSH1 0x20 MSTORE PUSH1 0x40 DUP2 KECCAK256 DUP2 PUSH2 0x2B97 PUSH1 0xA SLOAD SWAP1 JUMP JUMPDEST DUP2 MSTORE PUSH1 0x20 DUP1 DUP3 ADD SWAP3 SWAP1 SWAP3 MSTORE PUSH1 0x40 SWAP1 DUP2 ADD PUSH1 0x0 SWAP1 DUP2 KECCAK256 DUP10 DUP3 MSTORE PUSH1 0x17 SWAP1 SWAP4 MSTORE KECCAK256 SWAP1 SWAP2 POP PUSH2 0x2BC1 PUSH1 0xA SLOAD SWAP1 JUMP JUMPDEST DUP3 SSTORE PUSH1 0x2 DUP2 ADD SLOAD PUSH1 0x5 DUP4 ADD DUP1 SLOAD PUSH1 0x1 PUSH1 0x1 PUSH1 0xA0 SHL SUB NOT AND PUSH1 0x1 PUSH1 0x1 PUSH1 0xA0 SHL SUB SWAP1 SWAP3 AND SWAP2 SWAP1 SWAP2 OR SWAP1 SSTORE PUSH1 0x3 DUP2 ADD SLOAD PUSH1 0x6 DUP1 DUP5 ADD SWAP2 SWAP1 SWAP2 SSTORE DUP2 ADD DUP1 SLOAD PUSH1 0x9 DUP5 ADD SWAP2 SWAP1 PUSH2 0x2C0A SWAP1 PUSH2 0x5B0B JUMP JUMPDEST PUSH2 0x2C15 SWAP3 SWAP2 SWAP1 PUSH2 0x4F6C JUMP JUMPDEST POP PUSH1 0x4 DUP2 ADD DUP1 SLOAD PUSH1 0x7 DUP5 ADD SWAP2 SWAP1 PUSH2 0x2C2B SWAP1 PUSH2 0x5B0B JUMP JUMPDEST PUSH2 0x2C36 SWAP3 SWAP2 SWAP1 PUSH2 0x4F6C JUMP JUMPDEST POP PUSH1 0x5 DUP2 ADD DUP1 SLOAD PUSH1 0x8 DUP5 ADD SWAP2 SWAP1 PUSH2 0x2C4C SWAP1 PUSH2 0x5B0B JUMP JUMPDEST PUSH2 0x2C57 SWAP3 SWAP2 SWAP1 PUSH2 0x4F6C JUMP JUMPDEST POP PUSH1 0x1 DUP2 ADD DUP1 SLOAD PUSH1 0x4 DUP5 ADD SWAP2 SWAP1 PUSH2 0x2C6D SWAP1 PUSH2 0x5B0B JUMP JUMPDEST PUSH2 0x2C78 SWAP3 SWAP2 SWAP1 PUSH2 0x4F6C JUMP JUMPDEST POP DUP6 MLOAD PUSH2 0x2C8E SWAP1 PUSH1 0x1 DUP5 ADD SWAP1 PUSH1 0x20 DUP10 ADD SWAP1 PUSH2 0x4EE8 JUMP JUMPDEST POP DUP5 MLOAD PUSH2 0x2CA4 SWAP1 PUSH1 0xA DUP5 ADD SWAP1 PUSH1 0x20 DUP9 ADD SWAP1 PUSH2 0x4EE8 JUMP JUMPDEST POP DUP3 MLOAD PUSH2 0x2CBA SWAP1 PUSH1 0xB DUP5 ADD SWAP1 PUSH1 0x20 DUP7 ADD SWAP1 PUSH2 0x4EE8 JUMP JUMPDEST POP PUSH1 0xC DUP3 ADD DUP1 SLOAD PUSH1 0xFF NOT AND DUP6 ISZERO ISZERO OR SWAP1 SSTORE PUSH1 0x0 DUP9 DUP2 MSTORE PUSH1 0x14 PUSH1 0x20 SWAP1 DUP2 MSTORE PUSH1 0x40 DUP1 DUP4 KECCAK256 PUSH1 0xA SLOAD DUP5 MSTORE SWAP1 SWAP2 MSTORE SWAP1 KECCAK256 DUP3 SLOAD DUP2 SSTORE PUSH1 0x1 DUP1 DUP5 ADD DUP1 SLOAD DUP6 SWAP4 SWAP3 DUP4 ADD SWAP2 SWAP1 PUSH2 0x2D01 SWAP1 PUSH2 0x5B0B JUMP JUMPDEST PUSH2 0x2D0C SWAP3 SWAP2 SWAP1 PUSH2 0x4F6C JUMP JUMPDEST POP PUSH1 0x2 DUP3 ADD SLOAD DUP2 PUSH1 0x2 ADD SSTORE PUSH1 0x3 DUP3 ADD DUP2 PUSH1 0x3 ADD PUSH1 0x0 DUP3 ADD SLOAD DUP2 PUSH1 0x0 ADD SSTORE PUSH1 0x1 DUP3 ADD DUP2 PUSH1 0x1 ADD SWAP1 DUP1 SLOAD PUSH2 0x2D3D SWAP1 PUSH2 0x5B0B JUMP JUMPDEST PUSH2 0x2D48 SWAP3 SWAP2 SWAP1 PUSH2 0x4F6C JUMP JUMPDEST POP PUSH1 0x2 DUP3 DUP2 ADD SLOAD SWAP1 DUP3 ADD DUP1 SLOAD PUSH1 0x1 PUSH1 0x1 PUSH1 0xA0 SHL SUB NOT AND PUSH1 0x1 PUSH1 0x1 PUSH1 0xA0 SHL SUB SWAP1 SWAP3 AND SWAP2 SWAP1 SWAP2 OR SWAP1 SSTORE PUSH1 0x3 DUP1 DUP4 ADD SLOAD SWAP1 DUP3 ADD SSTORE PUSH1 0x4 DUP1 DUP4 ADD DUP1 SLOAD SWAP2 DUP4 ADD SWAP2 PUSH2 0x2D8D SWAP1 PUSH2 0x5B0B JUMP JUMPDEST PUSH2 0x2D98 SWAP3 SWAP2 SWAP1 PUSH2 0x4F6C JUMP JUMPDEST POP PUSH1 0x5 DUP3 ADD DUP2 PUSH1 0x5 ADD SWAP1 DUP1 SLOAD PUSH2 0x2DAD SWAP1 PUSH2 0x5B0B JUMP JUMPDEST PUSH2 0x2DB8 SWAP3 SWAP2 SWAP1 PUSH2 0x4F6C JUMP JUMPDEST POP PUSH1 0x6 DUP3 ADD DUP2 PUSH1 0x6 ADD SWAP1 DUP1 SLOAD PUSH2 0x2DCD SWAP1 PUSH2 0x5B0B JUMP JUMPDEST PUSH2 0x2DD8 SWAP3 SWAP2 SWAP1 PUSH2 0x4F6C JUMP JUMPDEST POP POP POP PUSH1 0xA DUP3 ADD DUP2 PUSH1 0xA ADD SWAP1 DUP1 SLOAD PUSH2 0x2DEF SWAP1 PUSH2 0x5B0B JUMP JUMPDEST PUSH2 0x2DFA SWAP3 SWAP2 SWAP1 PUSH2 0x4F6C JUMP JUMPDEST POP PUSH1 0xB DUP3 ADD DUP2 PUSH1 0xB ADD SWAP1 DUP1 SLOAD PUSH2 0x2E0F SWAP1 PUSH2 0x5B0B JUMP JUMPDEST PUSH2 0x2E1A SWAP3 SWAP2 SWAP1 PUSH2 0x4F6C JUMP JUMPDEST POP PUSH1 0xC SWAP2 DUP3 ADD SLOAD SWAP2 ADD DUP1 SLOAD PUSH1 0xFF NOT AND PUSH1 0xFF SWAP1 SWAP3 AND ISZERO ISZERO SWAP2 SWAP1 SWAP2 OR SWAP1 SSTORE POP POP POP POP POP POP POP POP JUMP JUMPDEST PUSH2 0x2E4A CALLER DUP4 PUSH2 0x45B8 JUMP JUMPDEST PUSH2 0x2E66 JUMPI PUSH1 0x40 MLOAD PUSH3 0x461BCD PUSH1 0xE5 SHL DUP2 MSTORE PUSH1 0x4 ADD PUSH2 0x82E SWAP1 PUSH2 0x5BBC JUMP JUMPDEST PUSH2 0x2E72 DUP5 DUP5 DUP5 DUP5 PUSH2 0x4BC1 JUMP JUMPDEST POP POP POP POP JUMP JUMPDEST PUSH1 0x0 DUP1 PUSH1 0xE PUSH1 0x0 SWAP1 SLOAD SWAP1 PUSH2 0x100 EXP SWAP1 DIV PUSH1 0x1 PUSH1 0x1 PUSH1 0xA0 SHL SUB AND PUSH1 0x1 PUSH1 0x1 PUSH1 0xA0 SHL SUB AND PUSH4 0xFEAF968C PUSH1 0x40 MLOAD DUP2 PUSH4 0xFFFFFFFF AND PUSH1 0xE0 SHL DUP2 MSTORE PUSH1 0x4 ADD PUSH1 0xA0 PUSH1 0x40 MLOAD DUP1 DUP4 SUB DUP2 DUP7 DUP1 EXTCODESIZE ISZERO DUP1 ISZERO PUSH2 0x2EC9 JUMPI PUSH1 0x0 DUP1 REVERT JUMPDEST POP GAS STATICCALL ISZERO DUP1 ISZERO PUSH2 0x2EDD JUMPI RETURNDATASIZE PUSH1 0x0 DUP1 RETURNDATACOPY RETURNDATASIZE PUSH1 0x0 REVERT JUMPDEST POP POP POP POP PUSH1 0x40 MLOAD RETURNDATASIZE PUSH1 0x1F NOT PUSH1 0x1F DUP3 ADD AND DUP3 ADD DUP1 PUSH1 0x40 MSTORE POP DUP2 ADD SWAP1 PUSH2 0x2F01 SWAP2 SWAP1 PUSH2 0x5C53 JUMP JUMPDEST POP POP POP SWAP2 POP POP POP SWAP1 JUMP JUMPDEST PUSH1 0x0 DUP2 DUP2 MSTORE PUSH1 0xF PUSH1 0x20 MSTORE PUSH1 0x40 SWAP1 KECCAK256 PUSH1 0x3 DUP2 ADD SLOAD PUSH1 0x1 SWAP1 SWAP2 ADD SLOAD PUSH1 0x1 PUSH1 0x1 PUSH1 0xA0 SHL SUB AND CALLVALUE DUP3 EQ PUSH2 0x2FA4 JUMPI PUSH1 0x40 DUP1 MLOAD PUSH3 0x461BCD PUSH1 0xE5 SHL DUP2 MSTORE PUSH1 0x20 PUSH1 0x4 DUP3 ADD MSTORE PUSH1 0x24 DUP2 ADD SWAP2 SWAP1 SWAP2 MSTORE PUSH32 0x506C65617365207375626D6974207468652061736B696E672070726963652069 PUSH1 0x44 DUP3 ADD MSTORE PUSH32 0x6E206F7264657220746F20636F6D706C65746520746865207075726368617365 PUSH1 0x64 DUP3 ADD MSTORE PUSH1 0x84 ADD PUSH2 0x82E JUMP JUMPDEST PUSH1 0x0 DUP4 DUP2 MSTORE PUSH1 0xF PUSH1 0x20 MSTORE PUSH1 0x40 SWAP1 KECCAK256 PUSH1 0x2 DUP2 ADD DUP1 SLOAD PUSH1 0x1 PUSH1 0x1 PUSH1 0xA0 SHL SUB NOT SWAP1 DUP2 AND CALLER OR SWAP1 SWAP2 SSTORE PUSH1 0x4 DUP3 ADD DUP1 SLOAD PUSH1 0xFF NOT AND PUSH1 0x1 SWAP1 DUP2 OR SWAP1 SWAP2 SSTORE SWAP1 SWAP2 ADD DUP1 SLOAD SWAP1 SWAP2 AND SWAP1 SSTORE PUSH2 0x2FF3 PUSH1 0x8 DUP1 SLOAD PUSH1 0x1 ADD SWAP1 SSTORE JUMP JUMPDEST PUSH2 0x2FFE ADDRESS CALLER DUP6 PUSH2 0x4616 JUMP JUMPDEST PUSH1 0xD SLOAD PUSH1 0xC SLOAD PUSH1 0x40 MLOAD PUSH1 0x1 PUSH1 0x1 PUSH1 0xA0 SHL SUB SWAP1 SWAP3 AND SWAP2 DUP2 ISZERO PUSH2 0x8FC MUL SWAP2 SWAP1 PUSH1 0x0 DUP2 DUP2 DUP2 DUP6 DUP9 DUP9 CALL SWAP4 POP POP POP POP ISZERO DUP1 ISZERO PUSH2 0x303A JUMPI RETURNDATASIZE PUSH1 0x0 DUP1 RETURNDATACOPY RETURNDATASIZE PUSH1 0x0 REVERT JUMPDEST POP PUSH1 0x40 MLOAD PUSH1 0x1 PUSH1 0x1 PUSH1 0xA0 SHL SUB DUP3 AND SWAP1 CALLVALUE DUP1 ISZERO PUSH2 0x8FC MUL SWAP2 PUSH1 0x0 DUP2 DUP2 DUP2 DUP6 DUP9 DUP9 CALL SWAP4 POP POP POP POP ISZERO DUP1 ISZERO PUSH2 0x2E72 JUMPI RETURNDATASIZE PUSH1 0x0 DUP1 RETURNDATACOPY RETURNDATASIZE PUSH1 0x0 REVERT JUMPDEST PUSH1 0x60 PUSH1 0x0 PUSH2 0x307D PUSH1 0xB SLOAD SWAP1 JUMP JUMPDEST SWAP1 POP PUSH1 0x0 DUP1 DUP3 PUSH1 0x1 PUSH1 0x1 PUSH1 0x40 SHL SUB DUP2 GT ISZERO PUSH2 0x309A JUMPI PUSH2 0x309A PUSH2 0x52F9 JUMP JUMPDEST PUSH1 0x40 MLOAD SWAP1 DUP1 DUP3 MSTORE DUP1 PUSH1 0x20 MUL PUSH1 0x20 ADD DUP3 ADD PUSH1 0x40 MSTORE DUP1 ISZERO PUSH2 0x30D3 JUMPI DUP2 PUSH1 0x20 ADD JUMPDEST PUSH2 0x30C0 PUSH2 0x502A JUMP JUMPDEST DUP2 MSTORE PUSH1 0x20 ADD SWAP1 PUSH1 0x1 SWAP1 SUB SWAP1 DUP2 PUSH2 0x30B8 JUMPI SWAP1 POP JUMPDEST POP SWAP1 POP PUSH1 0x0 JUMPDEST DUP4 DUP2 LT ISZERO PUSH2 0x1FA5 JUMPI PUSH1 0x0 PUSH2 0x30EE DUP3 PUSH1 0x1 PUSH2 0x5B73 JUMP JUMPDEST SWAP1 POP PUSH1 0x0 PUSH1 0x17 PUSH1 0x0 DUP4 DUP2 MSTORE PUSH1 0x20 ADD SWAP1 DUP2 MSTORE PUSH1 0x20 ADD PUSH1 0x0 KECCAK256 SWAP1 POP DUP1 PUSH1 0x40 MLOAD DUP1 PUSH1 0xE0 ADD PUSH1 0x40 MSTORE SWAP1 DUP2 PUSH1 0x0 DUP3 ADD SLOAD DUP2 MSTORE PUSH1 0x20 ADD PUSH1 0x1 DUP3 ADD DUP1 SLOAD PUSH2 0x312D SWAP1 PUSH2 0x5B0B JUMP JUMPDEST DUP1 PUSH1 0x1F ADD PUSH1 0x20 DUP1 SWAP2 DIV MUL PUSH1 0x20 ADD PUSH1 0x40 MLOAD SWAP1 DUP2 ADD PUSH1 0x40 MSTORE DUP1 SWAP3 SWAP2 SWAP1 DUP2 DUP2 MSTORE PUSH1 0x20 ADD DUP3 DUP1 SLOAD PUSH2 0x3159 SWAP1 PUSH2 0x5B0B JUMP JUMPDEST DUP1 ISZERO PUSH2 0x31A6 JUMPI DUP1 PUSH1 0x1F LT PUSH2 0x317B JUMPI PUSH2 0x100 DUP1 DUP4 SLOAD DIV MUL DUP4 MSTORE SWAP2 PUSH1 0x20 ADD SWAP2 PUSH2 0x31A6 JUMP JUMPDEST DUP3 ADD SWAP2 SWAP1 PUSH1 0x0 MSTORE PUSH1 0x20 PUSH1 0x0 KECCAK256 SWAP1 JUMPDEST DUP2 SLOAD DUP2 MSTORE SWAP1 PUSH1 0x1 ADD SWAP1 PUSH1 0x20 ADD DUP1 DUP4 GT PUSH2 0x3189 JUMPI DUP3 SWAP1 SUB PUSH1 0x1F AND DUP3 ADD SWAP2 JUMPDEST POP POP POP SWAP2 DUP4 MSTORE POP POP PUSH1 0x2 DUP3 ADD SLOAD PUSH1 0x1 PUSH1 0x1 PUSH1 0xA0 SHL SUB AND PUSH1 0x20 DUP3 ADD MSTORE PUSH1 0x3 DUP3 ADD SLOAD PUSH1 0x40 DUP3 ADD MSTORE PUSH1 0x4 DUP3 ADD DUP1 SLOAD PUSH1 0x60 SWAP1 SWAP3 ADD SWAP2 PUSH2 0x31E0 SWAP1 PUSH2 0x5B0B JUMP JUMPDEST DUP1 PUSH1 0x1F ADD PUSH1 0x20 DUP1 SWAP2 DIV MUL PUSH1 0x20 ADD PUSH1 0x40 MLOAD SWAP1 DUP2 ADD PUSH1 0x40 MSTORE DUP1 SWAP3 SWAP2 SWAP1 DUP2 DUP2 MSTORE PUSH1 0x20 ADD DUP3 DUP1 SLOAD PUSH2 0x320C SWAP1 PUSH2 0x5B0B JUMP JUMPDEST DUP1 ISZERO PUSH2 0x3259 JUMPI DUP1 PUSH1 0x1F LT PUSH2 0x322E JUMPI PUSH2 0x100 DUP1 DUP4 SLOAD DIV MUL DUP4 MSTORE SWAP2 PUSH1 0x20 ADD SWAP2 PUSH2 0x3259 JUMP JUMPDEST DUP3 ADD SWAP2 SWAP1 PUSH1 0x0 MSTORE PUSH1 0x20 PUSH1 0x0 KECCAK256 SWAP1 JUMPDEST DUP2 SLOAD DUP2 MSTORE SWAP1 PUSH1 0x1 ADD SWAP1 PUSH1 0x20 ADD DUP1 DUP4 GT PUSH2 0x323C JUMPI DUP3 SWAP1 SUB PUSH1 0x1F AND DUP3 ADD SWAP2 JUMPDEST POP POP POP POP POP DUP2 MSTORE PUSH1 0x20 ADD PUSH1 0x5 DUP3 ADD DUP1 SLOAD PUSH2 0x3272 SWAP1 PUSH2 0x5B0B JUMP JUMPDEST DUP1 PUSH1 0x1F ADD PUSH1 0x20 DUP1 SWAP2 DIV MUL PUSH1 0x20 ADD PUSH1 0x40 MLOAD SWAP1 DUP2 ADD PUSH1 0x40 MSTORE DUP1 SWAP3 SWAP2 SWAP1 DUP2 DUP2 MSTORE PUSH1 0x20 ADD DUP3 DUP1 SLOAD PUSH2 0x329E SWAP1 PUSH2 0x5B0B JUMP JUMPDEST DUP1 ISZERO PUSH2 0x32EB JUMPI DUP1 PUSH1 0x1F LT PUSH2 0x32C0 JUMPI PUSH2 0x100 DUP1 DUP4 SLOAD DIV MUL DUP4 MSTORE SWAP2 PUSH1 0x20 ADD SWAP2 PUSH2 0x32EB JUMP JUMPDEST DUP3 ADD SWAP2 SWAP1 PUSH1 0x0 MSTORE PUSH1 0x20 PUSH1 0x0 KECCAK256 SWAP1 JUMPDEST DUP2 SLOAD DUP2 MSTORE SWAP1 PUSH1 0x1 ADD SWAP1 PUSH1 0x20 ADD DUP1 DUP4 GT PUSH2 0x32CE JUMPI DUP3 SWAP1 SUB PUSH1 0x1F AND DUP3 ADD SWAP2 JUMPDEST POP POP POP POP POP DUP2 MSTORE PUSH1 0x20 ADD PUSH1 0x6 DUP3 ADD DUP1 SLOAD PUSH2 0x3304 SWAP1 PUSH2 0x5B0B JUMP JUMPDEST DUP1 PUSH1 0x1F ADD PUSH1 0x20 DUP1 SWAP2 DIV MUL PUSH1 0x20 ADD PUSH1 0x40 MLOAD SWAP1 DUP2 ADD PUSH1 0x40 MSTORE DUP1 SWAP3 SWAP2 SWAP1 DUP2 DUP2 MSTORE PUSH1 0x20 ADD DUP3 DUP1 SLOAD PUSH2 0x3330 SWAP1 PUSH2 0x5B0B JUMP JUMPDEST DUP1 ISZERO PUSH2 0x337D JUMPI DUP1 PUSH1 0x1F LT PUSH2 0x3352 JUMPI PUSH2 0x100 DUP1 DUP4 SLOAD DIV MUL DUP4 MSTORE SWAP2 PUSH1 0x20 ADD SWAP2 PUSH2 0x337D JUMP JUMPDEST DUP3 ADD SWAP2 SWAP1 PUSH1 0x0 MSTORE PUSH1 0x20 PUSH1 0x0 KECCAK256 SWAP1 JUMPDEST DUP2 SLOAD DUP2 MSTORE SWAP1 PUSH1 0x1 ADD SWAP1 PUSH1 0x20 ADD DUP1 DUP4 GT PUSH2 0x3360 JUMPI DUP3 SWAP1 SUB PUSH1 0x1F AND DUP3 ADD SWAP2 JUMPDEST POP POP POP POP POP DUP2 MSTORE POP POP DUP5 DUP7 DUP2 MLOAD DUP2 LT PUSH2 0x3398 JUMPI PUSH2 0x3398 PUSH2 0x5B8B JUMP JUMPDEST PUSH1 0x20 SWAP1 DUP2 MUL SWAP2 SWAP1 SWAP2 ADD ADD MSTORE PUSH2 0x33AE PUSH1 0x1 DUP7 PUSH2 0x5B73 JUMP JUMPDEST SWAP5 POP POP POP DUP1 DUP1 PUSH2 0x33BD SWAP1 PUSH2 0x5BA1 JUMP JUMPDEST SWAP2 POP POP PUSH2 0x30D9 JUMP JUMPDEST PUSH1 0x60 PUSH2 0x33D0 DUP3 PUSH2 0x4522 JUMP JUMPDEST PUSH1 0x0 DUP3 DUP2 MSTORE PUSH1 0x6 PUSH1 0x20 MSTORE PUSH1 0x40 DUP2 KECCAK256 DUP1 SLOAD PUSH2 0x33E9 SWAP1 PUSH2 0x5B0B JUMP JUMPDEST DUP1 PUSH1 0x1F ADD PUSH1 0x20 DUP1 SWAP2 DIV MUL PUSH1 0x20 ADD PUSH1 0x40 MLOAD SWAP1 DUP2 ADD PUSH1 0x40 MSTORE DUP1 SWAP3 SWAP2 SWAP1 DUP2 DUP2 MSTORE PUSH1 0x20 ADD DUP3 DUP1 SLOAD PUSH2 0x3415 SWAP1 PUSH2 0x5B0B JUMP JUMPDEST DUP1 ISZERO PUSH2 0x3462 JUMPI DUP1 PUSH1 0x1F LT PUSH2 0x3437 JUMPI PUSH2 0x100 DUP1 DUP4 SLOAD DIV MUL DUP4 MSTORE SWAP2 PUSH1 0x20 ADD SWAP2 PUSH2 0x3462 JUMP JUMPDEST DUP3 ADD SWAP2 SWAP1 PUSH1 0x0 MSTORE PUSH1 0x20 PUSH1 0x0 KECCAK256 SWAP1 JUMPDEST DUP2 SLOAD DUP2 MSTORE SWAP1 PUSH1 0x1 ADD SWAP1 PUSH1 0x20 ADD DUP1 DUP4 GT PUSH2 0x3445 JUMPI DUP3 SWAP1 SUB PUSH1 0x1F AND DUP3 ADD SWAP2 JUMPDEST POP POP POP POP POP SWAP1 POP PUSH1 0x0 PUSH2 0x3480 PUSH1 0x40 DUP1 MLOAD PUSH1 0x20 DUP2 ADD SWAP1 SWAP2 MSTORE PUSH1 0x0 DUP2 MSTORE SWAP1 JUMP JUMPDEST SWAP1 POP DUP1 MLOAD PUSH1 0x0 EQ ISZERO PUSH2 0x3493 JUMPI POP SWAP3 SWAP2 POP POP JUMP JUMPDEST DUP2 MLOAD ISZERO PUSH2 0x34C5 JUMPI DUP1 DUP3 PUSH1 0x40 MLOAD PUSH1 0x20 ADD PUSH2 0x34AD SWAP3 SWAP2 SWAP1 PUSH2 0x5C97 JUMP JUMPDEST PUSH1 0x40 MLOAD PUSH1 0x20 DUP2 DUP4 SUB SUB DUP2 MSTORE SWAP1 PUSH1 0x40 MSTORE SWAP3 POP POP POP SWAP2 SWAP1 POP JUMP JUMPDEST PUSH2 0x34CE DUP5 PUSH2 0x4BF4 JUMP JUMPDEST SWAP5 SWAP4 POP POP POP POP JUMP JUMPDEST PUSH1 0x40 MLOAD PUSH1 0x1 PUSH1 0x1 PUSH1 0xA0 SHL SUB DUP3 AND SWAP1 CALLVALUE DUP1 ISZERO PUSH2 0x8FC MUL SWAP2 PUSH1 0x0 DUP2 DUP2 DUP2 DUP6 DUP9 DUP9 CALL SWAP4 POP POP POP POP ISZERO DUP1 ISZERO PUSH2 0x2AF5 JUMPI RETURNDATASIZE PUSH1 0x0 DUP1 RETURNDATACOPY RETURNDATASIZE PUSH1 0x0 REVERT JUMPDEST PUSH1 0x0 DUP2 DUP2 MSTORE PUSH1 0x17 PUSH1 0x20 MSTORE PUSH1 0x40 DUP1 DUP3 KECCAK256 PUSH1 0x2 DUP2 ADD SLOAD SWAP2 MLOAD SWAP1 SWAP3 PUSH1 0x1 PUSH1 0x1 PUSH1 0xA0 SHL SUB SWAP1 SWAP3 AND SWAP2 CALLVALUE DUP1 ISZERO PUSH2 0x8FC MUL SWAP3 SWAP1 SWAP2 DUP2 DUP2 DUP2 DUP6 DUP9 DUP9 CALL SWAP4 POP POP POP POP ISZERO DUP1 ISZERO PUSH2 0x3556 JUMPI RETURNDATASIZE PUSH1 0x0 DUP1 RETURNDATACOPY RETURNDATASIZE PUSH1 0x0 REVERT JUMPDEST POP CALLVALUE DUP2 PUSH1 0x3 ADD SLOAD PUSH2 0x3567 SWAP2 SWAP1 PUSH2 0x5B73 JUMP JUMPDEST PUSH1 0x3 DUP3 ADD SSTORE PUSH1 0x0 DUP3 DUP2 MSTORE PUSH1 0x17 PUSH1 0x20 MSTORE PUSH1 0x40 SWAP1 KECCAK256 DUP2 SLOAD DUP2 SSTORE PUSH1 0x1 DUP1 DUP4 ADD DUP1 SLOAD DUP5 SWAP4 SWAP3 DUP4 ADD SWAP2 SWAP1 PUSH2 0x3595 SWAP1 PUSH2 0x5B0B JUMP JUMPDEST PUSH2 0x35A0 SWAP3 SWAP2 SWAP1 PUSH2 0x4F6C JUMP JUMPDEST POP PUSH1 0x2 DUP3 DUP2 ADD SLOAD SWAP1 DUP3 ADD DUP1 SLOAD PUSH1 0x1 PUSH1 0x1 PUSH1 0xA0 SHL SUB NOT AND PUSH1 0x1 PUSH1 0x1 PUSH1 0xA0 SHL SUB SWAP1 SWAP3 AND SWAP2 SWAP1 SWAP2 OR SWAP1 SSTORE PUSH1 0x3 DUP1 DUP4 ADD SLOAD SWAP1 DUP3 ADD SSTORE PUSH1 0x4 DUP1 DUP4 ADD DUP1 SLOAD SWAP2 DUP4 ADD SWAP2 PUSH2 0x35E5 SWAP1 PUSH2 0x5B0B JUMP JUMPDEST PUSH2 0x35F0 SWAP3 SWAP2 SWAP1 PUSH2 0x4F6C JUMP JUMPDEST POP PUSH1 0x5 DUP3 ADD DUP2 PUSH1 0x5 ADD SWAP1 DUP1 SLOAD PUSH2 0x3605 SWAP1 PUSH2 0x5B0B JUMP JUMPDEST PUSH2 0x3610 SWAP3 SWAP2 SWAP1 PUSH2 0x4F6C JUMP JUMPDEST POP PUSH1 0x6 DUP3 ADD DUP2 PUSH1 0x6 ADD SWAP1 DUP1 SLOAD PUSH2 0x3625 SWAP1 PUSH2 0x5B0B JUMP JUMPDEST PUSH2 0x3630 SWAP3 SWAP2 SWAP1 PUSH2 0x4F6C JUMP JUMPDEST POP POP POP POP POP JUMP JUMPDEST PUSH1 0x11 PUSH1 0x20 MSTORE PUSH1 0x0 SWAP1 DUP2 MSTORE PUSH1 0x40 SWAP1 KECCAK256 DUP1 SLOAD PUSH1 0x1 DUP3 ADD DUP1 SLOAD SWAP2 SWAP3 SWAP2 PUSH2 0x3659 SWAP1 PUSH2 0x5B0B JUMP JUMPDEST DUP1 PUSH1 0x1F ADD PUSH1 0x20 DUP1 SWAP2 DIV MUL PUSH1 0x20 ADD PUSH1 0x40 MLOAD SWAP1 DUP2 ADD PUSH1 0x40 MSTORE DUP1 SWAP3 SWAP2 SWAP1 DUP2 DUP2 MSTORE PUSH1 0x20 ADD DUP3 DUP1 SLOAD PUSH2 0x3685 SWAP1 PUSH2 0x5B0B JUMP JUMPDEST DUP1 ISZERO PUSH2 0x36D2 JUMPI DUP1 PUSH1 0x1F LT PUSH2 0x36A7 JUMPI PUSH2 0x100 DUP1 DUP4 SLOAD DIV MUL DUP4 MSTORE SWAP2 PUSH1 0x20 ADD SWAP2 PUSH2 0x36D2 JUMP JUMPDEST DUP3 ADD SWAP2 SWAP1 PUSH1 0x0 MSTORE PUSH1 0x20 PUSH1 0x0 KECCAK256 SWAP1 JUMPDEST DUP2 SLOAD DUP2 MSTORE SWAP1 PUSH1 0x1 ADD SWAP1 PUSH1 0x20 ADD DUP1 DUP4 GT PUSH2 0x36B5 JUMPI DUP3 SWAP1 SUB PUSH1 0x1F AND DUP3 ADD SWAP2 JUMPDEST POP POP POP POP POP SWAP1 DUP1 PUSH1 0x2 ADD DUP1 SLOAD PUSH2 0x36E7 SWAP1 PUSH2 0x5B0B JUMP JUMPDEST DUP1 PUSH1 0x1F ADD PUSH1 0x20 DUP1 SWAP2 DIV MUL PUSH1 0x20 ADD PUSH1 0x40 MLOAD SWAP1 DUP2 ADD PUSH1 0x40 MSTORE DUP1 SWAP3 SWAP2 SWAP1 DUP2 DUP2 MSTORE PUSH1 0x20 ADD DUP3 DUP1 SLOAD PUSH2 0x3713 SWAP1 PUSH2 0x5B0B JUMP JUMPDEST DUP1 ISZERO PUSH2 0x3760 JUMPI DUP1 PUSH1 0x1F LT PUSH2 0x3735 JUMPI PUSH2 0x100 DUP1 DUP4 SLOAD DIV MUL DUP4 MSTORE SWAP2 PUSH1 0x20 ADD SWAP2 PUSH2 0x3760 JUMP JUMPDEST DUP3 ADD SWAP2 SWAP1 PUSH1 0x0 MSTORE PUSH1 0x20 PUSH1 0x0 KECCAK256 SWAP1 JUMPDEST DUP2 SLOAD DUP2 MSTORE SWAP1 PUSH1 0x1 ADD SWAP1 PUSH1 0x20 ADD DUP1 DUP4 GT PUSH2 0x3743 JUMPI DUP3 SWAP1 SUB PUSH1 0x1F AND DUP3 ADD SWAP2 JUMPDEST POP POP POP POP POP SWAP1 DUP1 PUSH1 0x3 ADD DUP1 SLOAD PUSH2 0x3775 SWAP1 PUSH2 0x5B0B JUMP JUMPDEST DUP1 PUSH1 0x1F ADD PUSH1 0x20 DUP1 SWAP2 DIV MUL PUSH1 0x20 ADD PUSH1 0x40 MLOAD SWAP1 DUP2 ADD PUSH1 0x40 MSTORE DUP1 SWAP3 SWAP2 SWAP1 DUP2 DUP2 MSTORE PUSH1 0x20 ADD DUP3 DUP1 SLOAD PUSH2 0x37A1 SWAP1 PUSH2 0x5B0B JUMP JUMPDEST DUP1 ISZERO PUSH2 0x37EE JUMPI DUP1 PUSH1 0x1F LT PUSH2 0x37C3 JUMPI PUSH2 0x100 DUP1 DUP4 SLOAD DIV MUL DUP4 MSTORE SWAP2 PUSH1 0x20 ADD SWAP2 PUSH2 0x37EE JUMP JUMPDEST DUP3 ADD SWAP2 SWAP1 PUSH1 0x0 MSTORE PUSH1 0x20 PUSH1 0x0 KECCAK256 SWAP1 JUMPDEST DUP2 SLOAD DUP2 MSTORE SWAP1 PUSH1 0x1 ADD SWAP1 PUSH1 0x20 ADD DUP1 DUP4 GT PUSH2 0x37D1 JUMPI DUP3 SWAP1 SUB PUSH1 0x1F AND DUP3 ADD SWAP2 JUMPDEST POP POP POP POP POP SWAP1 DUP1 PUSH1 0x4 ADD DUP1 SLOAD PUSH2 0x3803 SWAP1 PUSH2 0x5B0B JUMP JUMPDEST DUP1 PUSH1 0x1F ADD PUSH1 0x20 DUP1 SWAP2 DIV MUL PUSH1 0x20 ADD PUSH1 0x40 MLOAD SWAP1 DUP2 ADD PUSH1 0x40 MSTORE DUP1 SWAP3 SWAP2 SWAP1 DUP2 DUP2 MSTORE PUSH1 0x20 ADD DUP3 DUP1 SLOAD PUSH2 0x382F SWAP1 PUSH2 0x5B0B JUMP JUMPDEST DUP1 ISZERO PUSH2 0x387C JUMPI DUP1 PUSH1 0x1F LT PUSH2 0x3851 JUMPI PUSH2 0x100 DUP1 DUP4 SLOAD DIV MUL DUP4 MSTORE SWAP2 PUSH1 0x20 ADD SWAP2 PUSH2 0x387C JUMP JUMPDEST DUP3 ADD SWAP2 SWAP1 PUSH1 0x0 MSTORE PUSH1 0x20 PUSH1 0x0 KECCAK256 SWAP1 JUMPDEST DUP2 SLOAD DUP2 MSTORE SWAP1 PUSH1 0x1 ADD SWAP1 PUSH1 0x20 ADD DUP1 DUP4 GT PUSH2 0x385F JUMPI DUP3 SWAP1 SUB PUSH1 0x1F AND DUP3 ADD SWAP2 JUMPDEST POP POP POP POP POP SWAP1 DUP1 PUSH1 0x5 ADD PUSH1 0x40 MLOAD DUP1 PUSH1 0xE0 ADD PUSH1 0x40 MSTORE SWAP1 DUP2 PUSH1 0x0 DUP3 ADD SLOAD DUP2 MSTORE PUSH1 0x20 ADD PUSH1 0x1 DUP3 ADD DUP1 SLOAD PUSH2 0x38AB SWAP1 PUSH2 0x5B0B JUMP JUMPDEST DUP1 PUSH1 0x1F ADD PUSH1 0x20 DUP1 SWAP2 DIV MUL PUSH1 0x20 ADD PUSH1 0x40 MLOAD SWAP1 DUP2 ADD PUSH1 0x40 MSTORE DUP1 SWAP3 SWAP2 SWAP1 DUP2 DUP2 MSTORE PUSH1 0x20 ADD DUP3 DUP1 SLOAD PUSH2 0x38D7 SWAP1 PUSH2 0x5B0B JUMP JUMPDEST DUP1 ISZERO PUSH2 0x3924 JUMPI DUP1 PUSH1 0x1F LT PUSH2 0x38F9 JUMPI PUSH2 0x100 DUP1 DUP4 SLOAD DIV MUL DUP4 MSTORE SWAP2 PUSH1 0x20 ADD SWAP2 PUSH2 0x3924 JUMP JUMPDEST DUP3 ADD SWAP2 SWAP1 PUSH1 0x0 MSTORE PUSH1 0x20 PUSH1 0x0 KECCAK256 SWAP1 JUMPDEST DUP2 SLOAD DUP2 MSTORE SWAP1 PUSH1 0x1 ADD SWAP1 PUSH1 0x20 ADD DUP1 DUP4 GT PUSH2 0x3907 JUMPI DUP3 SWAP1 SUB PUSH1 0x1F AND DUP3 ADD SWAP2 JUMPDEST POP POP POP POP POP DUP2 MSTORE PUSH1 0x20 ADD PUSH1 0x2 DUP3 ADD SLOAD DUP2 MSTORE PUSH1 0x20 ADD PUSH1 0x3 DUP3 ADD PUSH1 0x40 MLOAD DUP1 PUSH1 0xE0 ADD PUSH1 0x40 MSTORE SWAP1 DUP2 PUSH1 0x0 DUP3 ADD SLOAD DUP2 MSTORE PUSH1 0x20 ADD PUSH1 0x1 DUP3 ADD DUP1 SLOAD PUSH2 0x3961 SWAP1 PUSH2 0x5B0B JUMP JUMPDEST DUP1 PUSH1 0x1F ADD PUSH1 0x20 DUP1 SWAP2 DIV MUL PUSH1 0x20 ADD PUSH1 0x40 MLOAD SWAP1 DUP2 ADD PUSH1 0x40 MSTORE DUP1 SWAP3 SWAP2 SWAP1 DUP2 DUP2 MSTORE PUSH1 0x20 ADD DUP3 DUP1 SLOAD PUSH2 0x398D SWAP1 PUSH2 0x5B0B JUMP JUMPDEST DUP1 ISZERO PUSH2 0x39DA JUMPI DUP1 PUSH1 0x1F LT PUSH2 0x39AF JUMPI PUSH2 0x100 DUP1 DUP4 SLOAD DIV MUL DUP4 MSTORE SWAP2 PUSH1 0x20 ADD SWAP2 PUSH2 0x39DA JUMP JUMPDEST DUP3 ADD SWAP2 SWAP1 PUSH1 0x0 MSTORE PUSH1 0x20 PUSH1 0x0 KECCAK256 SWAP1 JUMPDEST DUP2 SLOAD DUP2 MSTORE SWAP1 PUSH1 0x1 ADD SWAP1 PUSH1 0x20 ADD DUP1 DUP4 GT PUSH2 0x39BD JUMPI DUP3 SWAP1 SUB PUSH1 0x1F AND DUP3 ADD SWAP2 JUMPDEST POP POP POP SWAP2 DUP4 MSTORE POP POP PUSH1 0x2 DUP3 ADD SLOAD PUSH1 0x1 PUSH1 0x1 PUSH1 0xA0 SHL SUB AND PUSH1 0x20 DUP3 ADD MSTORE PUSH1 0x3 DUP3 ADD SLOAD PUSH1 0x40 DUP3 ADD MSTORE PUSH1 0x4 DUP3 ADD DUP1 SLOAD PUSH1 0x60 SWAP1 SWAP3 ADD SWAP2 PUSH2 0x3A14 SWAP1 PUSH2 0x5B0B JUMP JUMPDEST DUP1 PUSH1 0x1F ADD PUSH1 0x20 DUP1 SWAP2 DIV MUL PUSH1 0x20 ADD PUSH1 0x40 MLOAD SWAP1 DUP2 ADD PUSH1 0x40 MSTORE DUP1 SWAP3 SWAP2 SWAP1 DUP2 DUP2 MSTORE PUSH1 0x20 ADD DUP3 DUP1 SLOAD PUSH2 0x3A40 SWAP1 PUSH2 0x5B0B JUMP JUMPDEST DUP1 ISZERO PUSH2 0x3A8D JUMPI DUP1 PUSH1 0x1F LT PUSH2 0x3A62 JUMPI PUSH2 0x100 DUP1 DUP4 SLOAD DIV MUL DUP4 MSTORE SWAP2 PUSH1 0x20 ADD SWAP2 PUSH2 0x3A8D JUMP JUMPDEST DUP3 ADD SWAP2 SWAP1 PUSH1 0x0 MSTORE PUSH1 0x20 PUSH1 0x0 KECCAK256 SWAP1 JUMPDEST DUP2 SLOAD DUP2 MSTORE SWAP1 PUSH1 0x1 ADD SWAP1 PUSH1 0x20 ADD DUP1 DUP4 GT PUSH2 0x3A70 JUMPI DUP3 SWAP1 SUB PUSH1 0x1F AND DUP3 ADD SWAP2 JUMPDEST POP POP POP POP POP DUP2 MSTORE PUSH1 0x20 ADD PUSH1 0x5 DUP3 ADD DUP1 SLOAD PUSH2 0x3AA6 SWAP1 PUSH2 0x5B0B JUMP JUMPDEST DUP1 PUSH1 0x1F ADD PUSH1 0x20 DUP1 SWAP2 DIV MUL PUSH1 0x20 ADD PUSH1 0x40 MLOAD SWAP1 DUP2 ADD PUSH1 0x40 MSTORE DUP1 SWAP3 SWAP2 SWAP1 DUP2 DUP2 MSTORE PUSH1 0x20 ADD DUP3 DUP1 SLOAD PUSH2 0x3AD2 SWAP1 PUSH2 0x5B0B JUMP JUMPDEST DUP1 ISZERO PUSH2 0x3B1F JUMPI DUP1 PUSH1 0x1F LT PUSH2 0x3AF4 JUMPI PUSH2 0x100 DUP1 DUP4 SLOAD DIV MUL DUP4 MSTORE SWAP2 PUSH1 0x20 ADD SWAP2 PUSH2 0x3B1F JUMP JUMPDEST DUP3 ADD SWAP2 SWAP1 PUSH1 0x0 MSTORE PUSH1 0x20 PUSH1 0x0 KECCAK256 SWAP1 JUMPDEST DUP2 SLOAD DUP2 MSTORE SWAP1 PUSH1 0x1 ADD SWAP1 PUSH1 0x20 ADD DUP1 DUP4 GT PUSH2 0x3B02 JUMPI DUP3 SWAP1 SUB PUSH1 0x1F AND DUP3 ADD SWAP2 JUMPDEST POP POP POP POP POP DUP2 MSTORE PUSH1 0x20 ADD PUSH1 0x6 DUP3 ADD DUP1 SLOAD PUSH2 0x3B38 SWAP1 PUSH2 0x5B0B JUMP JUMPDEST DUP1 PUSH1 0x1F ADD PUSH1 0x20 DUP1 SWAP2 DIV MUL PUSH1 0x20 ADD PUSH1 0x40 MLOAD SWAP1 DUP2 ADD PUSH1 0x40 MSTORE DUP1 SWAP3 SWAP2 SWAP1 DUP2 DUP2 MSTORE PUSH1 0x20 ADD DUP3 DUP1 SLOAD PUSH2 0x3B64 SWAP1 PUSH2 0x5B0B JUMP JUMPDEST DUP1 ISZERO PUSH2 0x3BB1 JUMPI DUP1 PUSH1 0x1F LT PUSH2 0x3B86 JUMPI PUSH2 0x100 DUP1 DUP4 SLOAD DIV MUL DUP4 MSTORE SWAP2 PUSH1 0x20 ADD SWAP2 PUSH2 0x3BB1 JUMP JUMPDEST DUP3 ADD SWAP2 SWAP1 PUSH1 0x0 MSTORE PUSH1 0x20 PUSH1 0x0 KECCAK256 SWAP1 JUMPDEST DUP2 SLOAD DUP2 MSTORE SWAP1 PUSH1 0x1 ADD SWAP1 PUSH1 0x20 ADD DUP1 DUP4 GT PUSH2 0x3B94 JUMPI DUP3 SWAP1 SUB PUSH1 0x1F AND DUP3 ADD SWAP2 JUMPDEST POP POP POP POP POP DUP2 MSTORE POP POP DUP2 MSTORE PUSH1 0x20 ADD PUSH1 0xA DUP3 ADD DUP1 SLOAD PUSH2 0x3BCE SWAP1 PUSH2 0x5B0B JUMP JUMPDEST DUP1 PUSH1 0x1F ADD PUSH1 0x20 DUP1 SWAP2 DIV MUL PUSH1 0x20 ADD PUSH1 0x40 MLOAD SWAP1 DUP2 ADD PUSH1 0x40 MSTORE DUP1 SWAP3 SWAP2 SWAP1 DUP2 DUP2 MSTORE PUSH1 0x20 ADD DUP3 DUP1 SLOAD PUSH2 0x3BFA SWAP1 PUSH2 0x5B0B JUMP JUMPDEST DUP1 ISZERO PUSH2 0x3C47 JUMPI DUP1 PUSH1 0x1F LT PUSH2 0x3C1C JUMPI PUSH2 0x100 DUP1 DUP4 SLOAD DIV MUL DUP4 MSTORE SWAP2 PUSH1 0x20 ADD SWAP2 PUSH2 0x3C47 JUMP JUMPDEST DUP3 ADD SWAP2 SWAP1 PUSH1 0x0 MSTORE PUSH1 0x20 PUSH1 0x0 KECCAK256 SWAP1 JUMPDEST DUP2 SLOAD DUP2 MSTORE SWAP1 PUSH1 0x1 ADD SWAP1 PUSH1 0x20 ADD DUP1 DUP4 GT PUSH2 0x3C2A JUMPI DUP3 SWAP1 SUB PUSH1 0x1F AND DUP3 ADD SWAP2 JUMPDEST POP POP POP POP POP DUP2 MSTORE PUSH1 0x20 ADD PUSH1 0xB DUP3 ADD DUP1 SLOAD PUSH2 0x3C60 SWAP1 PUSH2 0x5B0B JUMP JUMPDEST DUP1 PUSH1 0x1F ADD PUSH1 0x20 DUP1 SWAP2 DIV MUL PUSH1 0x20 ADD PUSH1 0x40 MLOAD SWAP1 DUP2 ADD PUSH1 0x40 MSTORE DUP1 SWAP3 SWAP2 SWAP1 DUP2 DUP2 MSTORE PUSH1 0x20 ADD DUP3 DUP1 SLOAD PUSH2 0x3C8C SWAP1 PUSH2 0x5B0B JUMP JUMPDEST DUP1 ISZERO PUSH2 0x3CD9 JUMPI DUP1 PUSH1 0x1F LT PUSH2 0x3CAE JUMPI PUSH2 0x100 DUP1 DUP4 SLOAD DIV MUL DUP4 MSTORE SWAP2 PUSH1 0x20 ADD SWAP2 PUSH2 0x3CD9 JUMP JUMPDEST DUP3 ADD SWAP2 SWAP1 PUSH1 0x0 MSTORE PUSH1 0x20 PUSH1 0x0 KECCAK256 SWAP1 JUMPDEST DUP2 SLOAD DUP2 MSTORE SWAP1 PUSH1 0x1 ADD SWAP1 PUSH1 0x20 ADD DUP1 DUP4 GT PUSH2 0x3CBC JUMPI DUP3 SWAP1 SUB PUSH1 0x1F AND DUP3 ADD SWAP2 JUMPDEST POP POP POP SWAP2 DUP4 MSTORE POP POP PUSH1 0xC SWAP2 SWAP1 SWAP2 ADD SLOAD PUSH1 0xFF SWAP1 DUP2 AND ISZERO ISZERO PUSH1 0x20 SWAP1 SWAP3 ADD SWAP2 SWAP1 SWAP2 MSTORE PUSH1 0x12 SWAP1 SWAP3 ADD SLOAD SWAP1 SWAP2 AND DUP8 JUMP JUMPDEST PUSH1 0x1 PUSH1 0x1 PUSH1 0xA0 SHL SUB SWAP2 DUP3 AND PUSH1 0x0 SWAP1 DUP2 MSTORE PUSH1 0x5 PUSH1 0x20 SWAP1 DUP2 MSTORE PUSH1 0x40 DUP1 DUP4 KECCAK256 SWAP4 SWAP1 SWAP5 AND DUP3 MSTORE SWAP2 SWAP1 SWAP2 MSTORE KECCAK256 SLOAD PUSH1 0xFF AND SWAP1 JUMP JUMPDEST PUSH1 0x18 PUSH1 0x20 MSTORE PUSH1 0x0 SWAP1 DUP2 MSTORE PUSH1 0x40 SWAP1 KECCAK256 DUP1 SLOAD PUSH1 0x1 DUP3 ADD DUP1 SLOAD SWAP2 SWAP3 SWAP2 PUSH2 0x15A4 SWAP1 PUSH2 0x5B0B JUMP JUMPDEST CALLER PUSH1 0x0 SWAP1 DUP2 MSTORE PUSH1 0x13 PUSH1 0x20 SWAP1 DUP2 MSTORE PUSH1 0x40 DUP1 DUP4 KECCAK256 PUSH1 0x12 DUP4 MSTORE DUP2 DUP5 KECCAK256 SLOAD DUP5 MSTORE SWAP1 SWAP2 MSTORE DUP2 KECCAK256 SLOAD PUSH1 0x60 SWAP2 DUP1 DUP3 PUSH1 0x1 PUSH1 0x1 PUSH1 0x40 SHL SUB DUP2 GT ISZERO PUSH2 0x3D92 JUMPI PUSH2 0x3D92 PUSH2 0x52F9 JUMP JUMPDEST PUSH1 0x40 MLOAD SWAP1 DUP1 DUP3 MSTORE DUP1 PUSH1 0x20 MUL PUSH1 0x20 ADD DUP3 ADD PUSH1 0x40 MSTORE DUP1 ISZERO PUSH2 0x3DCB JUMPI DUP2 PUSH1 0x20 ADD JUMPDEST PUSH2 0x3DB8 PUSH2 0x4FE7 JUMP JUMPDEST DUP2 MSTORE PUSH1 0x20 ADD SWAP1 PUSH1 0x1 SWAP1 SUB SWAP1 DUP2 PUSH2 0x3DB0 JUMPI SWAP1 POP JUMPDEST POP SWAP1 POP PUSH1 0x0 JUMPDEST DUP4 DUP2 LT ISZERO PUSH2 0x1FA5 JUMPI PUSH1 0x0 PUSH2 0x3DE6 DUP3 PUSH1 0x1 PUSH2 0x5B73 JUMP JUMPDEST SWAP1 POP PUSH1 0x0 PUSH1 0x11 PUSH1 0x0 DUP4 DUP2 MSTORE PUSH1 0x20 ADD SWAP1 DUP2 MSTORE PUSH1 0x20 ADD PUSH1 0x0 KECCAK256 SWAP1 POP DUP1 PUSH1 0x40 MLOAD DUP1 PUSH1 0xE0 ADD PUSH1 0x40 MSTORE SWAP1 DUP2 PUSH1 0x0 DUP3 ADD SLOAD DUP2 MSTORE PUSH1 0x20 ADD PUSH1 0x1 DUP3 ADD DUP1 SLOAD PUSH2 0x3E25 SWAP1 PUSH2 0x5B0B JUMP JUMPDEST DUP1 PUSH1 0x1F ADD PUSH1 0x20 DUP1 SWAP2 DIV MUL PUSH1 0x20 ADD PUSH1 0x40 MLOAD SWAP1 DUP2 ADD PUSH1 0x40 MSTORE DUP1 SWAP3 SWAP2 SWAP1 DUP2 DUP2 MSTORE PUSH1 0x20 ADD DUP3 DUP1 SLOAD PUSH2 0x3E51 SWAP1 PUSH2 0x5B0B JUMP JUMPDEST DUP1 ISZERO PUSH2 0x3E9E JUMPI DUP1 PUSH1 0x1F LT PUSH2 0x3E73 JUMPI PUSH2 0x100 DUP1 DUP4 SLOAD DIV MUL DUP4 MSTORE SWAP2 PUSH1 0x20 ADD SWAP2 PUSH2 0x3E9E JUMP JUMPDEST DUP3 ADD SWAP2 SWAP1 PUSH1 0x0 MSTORE PUSH1 0x20 PUSH1 0x0 KECCAK256 SWAP1 JUMPDEST DUP2 SLOAD DUP2 MSTORE SWAP1 PUSH1 0x1 ADD SWAP1 PUSH1 0x20 ADD DUP1 DUP4 GT PUSH2 0x3E81 JUMPI DUP3 SWAP1 SUB PUSH1 0x1F AND DUP3 ADD SWAP2 JUMPDEST POP POP POP POP POP DUP2 MSTORE PUSH1 0x20 ADD PUSH1 0x2 DUP3 ADD DUP1 SLOAD PUSH2 0x3EB7 SWAP1 PUSH2 0x5B0B JUMP JUMPDEST DUP1 PUSH1 0x1F ADD PUSH1 0x20 DUP1 SWAP2 DIV MUL PUSH1 0x20 ADD PUSH1 0x40 MLOAD SWAP1 DUP2 ADD PUSH1 0x40 MSTORE DUP1 SWAP3 SWAP2 SWAP1 DUP2 DUP2 MSTORE PUSH1 0x20 ADD DUP3 DUP1 SLOAD PUSH2 0x3EE3 SWAP1 PUSH2 0x5B0B JUMP JUMPDEST DUP1 ISZERO PUSH2 0x3F30 JUMPI DUP1 PUSH1 0x1F LT PUSH2 0x3F05 JUMPI PUSH2 0x100 DUP1 DUP4 SLOAD DIV MUL DUP4 MSTORE SWAP2 PUSH1 0x20 ADD SWAP2 PUSH2 0x3F30 JUMP JUMPDEST DUP3 ADD SWAP2 SWAP1 PUSH1 0x0 MSTORE PUSH1 0x20 PUSH1 0x0 KECCAK256 SWAP1 JUMPDEST DUP2 SLOAD DUP2 MSTORE SWAP1 PUSH1 0x1 ADD SWAP1 PUSH1 0x20 ADD DUP1 DUP4 GT PUSH2 0x3F13 JUMPI DUP3 SWAP1 SUB PUSH1 0x1F AND DUP3 ADD SWAP2 JUMPDEST POP POP POP POP POP DUP2 MSTORE PUSH1 0x20 ADD PUSH1 0x3 DUP3 ADD DUP1 SLOAD PUSH2 0x3F49 SWAP1 PUSH2 0x5B0B JUMP JUMPDEST DUP1 PUSH1 0x1F ADD PUSH1 0x20 DUP1 SWAP2 DIV MUL PUSH1 0x20 ADD PUSH1 0x40 MLOAD SWAP1 DUP2 ADD PUSH1 0x40 MSTORE DUP1 SWAP3 SWAP2 SWAP1 DUP2 DUP2 MSTORE PUSH1 0x20 ADD DUP3 DUP1 SLOAD PUSH2 0x3F75 SWAP1 PUSH2 0x5B0B JUMP JUMPDEST DUP1 ISZERO PUSH2 0x3FC2 JUMPI DUP1 PUSH1 0x1F LT PUSH2 0x3F97 JUMPI PUSH2 0x100 DUP1 DUP4 SLOAD DIV MUL DUP4 MSTORE SWAP2 PUSH1 0x20 ADD SWAP2 PUSH2 0x3FC2 JUMP JUMPDEST DUP3 ADD SWAP2 SWAP1 PUSH1 0x0 MSTORE PUSH1 0x20 PUSH1 0x0 KECCAK256 SWAP1 JUMPDEST DUP2 SLOAD DUP2 MSTORE SWAP1 PUSH1 0x1 ADD SWAP1 PUSH1 0x20 ADD DUP1 DUP4 GT PUSH2 0x3FA5 JUMPI DUP3 SWAP1 SUB PUSH1 0x1F AND DUP3 ADD SWAP2 JUMPDEST POP POP POP POP POP DUP2 MSTORE PUSH1 0x20 ADD PUSH1 0x4 DUP3 ADD DUP1 SLOAD PUSH2 0x3FDB SWAP1 PUSH2 0x5B0B JUMP JUMPDEST DUP1 PUSH1 0x1F ADD PUSH1 0x20 DUP1 SWAP2 DIV MUL PUSH1 0x20 ADD PUSH1 0x40 MLOAD SWAP1 DUP2 ADD PUSH1 0x40 MSTORE DUP1 SWAP3 SWAP2 SWAP1 DUP2 DUP2 MSTORE PUSH1 0x20 ADD DUP3 DUP1 SLOAD PUSH2 0x4007 SWAP1 PUSH2 0x5B0B JUMP JUMPDEST DUP1 ISZERO PUSH2 0x4054 JUMPI DUP1 PUSH1 0x1F LT PUSH2 0x4029 JUMPI PUSH2 0x100 DUP1 DUP4 SLOAD DIV MUL DUP4 MSTORE SWAP2 PUSH1 0x20 ADD SWAP2 PUSH2 0x4054 JUMP JUMPDEST DUP3 ADD SWAP2 SWAP1 PUSH1 0x0 MSTORE PUSH1 0x20 PUSH1 0x0 KECCAK256 SWAP1 JUMPDEST DUP2 SLOAD DUP2 MSTORE SWAP1 PUSH1 0x1 ADD SWAP1 PUSH1 0x20 ADD DUP1 DUP4 GT PUSH2 0x4037 JUMPI DUP3 SWAP1 SUB PUSH1 0x1F AND DUP3 ADD SWAP2 JUMPDEST POP POP POP POP POP DUP2 MSTORE PUSH1 0x20 ADD PUSH1 0x5 DUP3 ADD PUSH1 0x40 MLOAD DUP1 PUSH1 0xE0 ADD PUSH1 0x40 MSTORE SWAP1 DUP2 PUSH1 0x0 DUP3 ADD SLOAD DUP2 MSTORE PUSH1 0x20 ADD PUSH1 0x1 DUP3 ADD DUP1 SLOAD PUSH2 0x4087 SWAP1 PUSH2 0x5B0B JUMP JUMPDEST DUP1 PUSH1 0x1F ADD PUSH1 0x20 DUP1 SWAP2 DIV MUL PUSH1 0x20 ADD PUSH1 0x40 MLOAD SWAP1 DUP2 ADD PUSH1 0x40 MSTORE DUP1 SWAP3 SWAP2 SWAP1 DUP2 DUP2 MSTORE PUSH1 0x20 ADD DUP3 DUP1 SLOAD PUSH2 0x40B3 SWAP1 PUSH2 0x5B0B JUMP JUMPDEST DUP1 ISZERO PUSH2 0x4100 JUMPI DUP1 PUSH1 0x1F LT PUSH2 0x40D5 JUMPI PUSH2 0x100 DUP1 DUP4 SLOAD DIV MUL DUP4 MSTORE SWAP2 PUSH1 0x20 ADD SWAP2 PUSH2 0x4100 JUMP JUMPDEST DUP3 ADD SWAP2 SWAP1 PUSH1 0x0 MSTORE PUSH1 0x20 PUSH1 0x0 KECCAK256 SWAP1 JUMPDEST DUP2 SLOAD DUP2 MSTORE SWAP1 PUSH1 0x1 ADD SWAP1 PUSH1 0x20 ADD DUP1 DUP4 GT PUSH2 0x40E3 JUMPI DUP3 SWAP1 SUB PUSH1 0x1F AND DUP3 ADD SWAP2 JUMPDEST POP POP POP POP POP DUP2 MSTORE PUSH1 0x20 ADD PUSH1 0x2 DUP3 ADD SLOAD DUP2 MSTORE PUSH1 0x20 ADD PUSH1 0x3 DUP3 ADD PUSH1 0x40 MLOAD DUP1 PUSH1 0xE0 ADD PUSH1 0x40 MSTORE SWAP1 DUP2 PUSH1 0x0 DUP3 ADD SLOAD DUP2 MSTORE PUSH1 0x20 ADD PUSH1 0x1 DUP3 ADD DUP1 SLOAD PUSH2 0x413D SWAP1 PUSH2 0x5B0B JUMP JUMPDEST DUP1 PUSH1 0x1F ADD PUSH1 0x20 DUP1 SWAP2 DIV MUL PUSH1 0x20 ADD PUSH1 0x40 MLOAD SWAP1 DUP2 ADD PUSH1 0x40 MSTORE DUP1 SWAP3 SWAP2 SWAP1 DUP2 DUP2 MSTORE PUSH1 0x20 ADD DUP3 DUP1 SLOAD PUSH2 0x4169 SWAP1 PUSH2 0x5B0B JUMP JUMPDEST DUP1 ISZERO PUSH2 0x41B6 JUMPI DUP1 PUSH1 0x1F LT PUSH2 0x418B JUMPI PUSH2 0x100 DUP1 DUP4 SLOAD DIV MUL DUP4 MSTORE SWAP2 PUSH1 0x20 ADD SWAP2 PUSH2 0x41B6 JUMP JUMPDEST DUP3 ADD SWAP2 SWAP1 PUSH1 0x0 MSTORE PUSH1 0x20 PUSH1 0x0 KECCAK256 SWAP1 JUMPDEST DUP2 SLOAD DUP2 MSTORE SWAP1 PUSH1 0x1 ADD SWAP1 PUSH1 0x20 ADD DUP1 DUP4 GT PUSH2 0x4199 JUMPI DUP3 SWAP1 SUB PUSH1 0x1F AND DUP3 ADD SWAP2 JUMPDEST POP POP POP SWAP2 DUP4 MSTORE POP POP PUSH1 0x2 DUP3 ADD SLOAD PUSH1 0x1 PUSH1 0x1 PUSH1 0xA0 SHL SUB AND PUSH1 0x20 DUP3 ADD MSTORE PUSH1 0x3 DUP3 ADD SLOAD PUSH1 0x40 DUP3 ADD MSTORE PUSH1 0x4 DUP3 ADD DUP1 SLOAD PUSH1 0x60 SWAP1 SWAP3 ADD SWAP2 PUSH2 0x41F0 SWAP1 PUSH2 0x5B0B JUMP JUMPDEST DUP1 PUSH1 0x1F ADD PUSH1 0x20 DUP1 SWAP2 DIV MUL PUSH1 0x20 ADD PUSH1 0x40 MLOAD SWAP1 DUP2 ADD PUSH1 0x40 MSTORE DUP1 SWAP3 SWAP2 SWAP1 DUP2 DUP2 MSTORE PUSH1 0x20 ADD DUP3 DUP1 SLOAD PUSH2 0x421C SWAP1 PUSH2 0x5B0B JUMP JUMPDEST DUP1 ISZERO PUSH2 0x4269 JUMPI DUP1 PUSH1 0x1F LT PUSH2 0x423E JUMPI PUSH2 0x100 DUP1 DUP4 SLOAD DIV MUL DUP4 MSTORE SWAP2 PUSH1 0x20 ADD SWAP2 PUSH2 0x4269 JUMP JUMPDEST DUP3 ADD SWAP2 SWAP1 PUSH1 0x0 MSTORE PUSH1 0x20 PUSH1 0x0 KECCAK256 SWAP1 JUMPDEST DUP2 SLOAD DUP2 MSTORE SWAP1 PUSH1 0x1 ADD SWAP1 PUSH1 0x20 ADD DUP1 DUP4 GT PUSH2 0x424C JUMPI DUP3 SWAP1 SUB PUSH1 0x1F AND DUP3 ADD SWAP2 JUMPDEST POP POP POP POP POP DUP2 MSTORE PUSH1 0x20 ADD PUSH1 0x5 DUP3 ADD DUP1 SLOAD PUSH2 0x4282 SWAP1 PUSH2 0x5B0B JUMP JUMPDEST DUP1 PUSH1 0x1F ADD PUSH1 0x20 DUP1 SWAP2 DIV MUL PUSH1 0x20 ADD PUSH1 0x40 MLOAD SWAP1 DUP2 ADD PUSH1 0x40 MSTORE DUP1 SWAP3 SWAP2 SWAP1 DUP2 DUP2 MSTORE PUSH1 0x20 ADD DUP3 DUP1 SLOAD PUSH2 0x42AE SWAP1 PUSH2 0x5B0B JUMP JUMPDEST DUP1 ISZERO PUSH2 0x42FB JUMPI DUP1 PUSH1 0x1F LT PUSH2 0x42D0 JUMPI PUSH2 0x100 DUP1 DUP4 SLOAD DIV MUL DUP4 MSTORE SWAP2 PUSH1 0x20 ADD SWAP2 PUSH2 0x42FB JUMP JUMPDEST DUP3 ADD SWAP2 SWAP1 PUSH1 0x0 MSTORE PUSH1 0x20 PUSH1 0x0 KECCAK256 SWAP1 JUMPDEST DUP2 SLOAD DUP2 MSTORE SWAP1 PUSH1 0x1 ADD SWAP1 PUSH1 0x20 ADD DUP1 DUP4 GT PUSH2 0x42DE JUMPI DUP3 SWAP1 SUB PUSH1 0x1F AND DUP3 ADD SWAP2 JUMPDEST POP POP POP POP POP DUP2 MSTORE PUSH1 0x20 ADD PUSH1 0x6 DUP3 ADD DUP1 SLOAD PUSH2 0x4314 SWAP1 PUSH2 0x5B0B JUMP JUMPDEST DUP1 PUSH1 0x1F ADD PUSH1 0x20 DUP1 SWAP2 DIV MUL PUSH1 0x20 ADD PUSH1 0x40 MLOAD SWAP1 DUP2 ADD PUSH1 0x40 MSTORE DUP1 SWAP3 SWAP2 SWAP1 DUP2 DUP2 MSTORE PUSH1 0x20 ADD DUP3 DUP1 SLOAD PUSH2 0x4340 SWAP1 PUSH2 0x5B0B JUMP JUMPDEST DUP1 ISZERO PUSH2 0x438D JUMPI DUP1 PUSH1 0x1F LT PUSH2 0x4362 JUMPI PUSH2 0x100 DUP1 DUP4 SLOAD DIV MUL DUP4 MSTORE SWAP2 PUSH1 0x20 ADD SWAP2 PUSH2 0x438D JUMP JUMPDEST DUP3 ADD SWAP2 SWAP1 PUSH1 0x0 MSTORE PUSH1 0x20 PUSH1 0x0 KECCAK256 SWAP1 JUMPDEST DUP2 SLOAD DUP2 MSTORE SWAP1 PUSH1 0x1 ADD SWAP1 PUSH1 0x20 ADD DUP1 DUP4 GT PUSH2 0x4370 JUMPI DUP3 SWAP1 SUB PUSH1 0x1F AND DUP3 ADD SWAP2 JUMPDEST POP POP POP POP POP DUP2 MSTORE POP POP DUP2 MSTORE PUSH1 0x20 ADD PUSH1 0xA DUP3 ADD DUP1 SLOAD PUSH2 0x43AA SWAP1 PUSH2 0x5B0B JUMP JUMPDEST DUP1 PUSH1 0x1F ADD PUSH1 0x20 DUP1 SWAP2 DIV MUL PUSH1 0x20 ADD PUSH1 0x40 MLOAD SWAP1 DUP2 ADD PUSH1 0x40 MSTORE DUP1 SWAP3 SWAP2 SWAP1 DUP2 DUP2 MSTORE PUSH1 0x20 ADD DUP3 DUP1 SLOAD PUSH2 0x43D6 SWAP1 PUSH2 0x5B0B JUMP JUMPDEST DUP1 ISZERO PUSH2 0x4423 JUMPI DUP1 PUSH1 0x1F LT PUSH2 0x43F8 JUMPI PUSH2 0x100 DUP1 DUP4 SLOAD DIV MUL DUP4 MSTORE SWAP2 PUSH1 0x20 ADD SWAP2 PUSH2 0x4423 JUMP JUMPDEST DUP3 ADD SWAP2 SWAP1 PUSH1 0x0 MSTORE PUSH1 0x20 PUSH1 0x0 KECCAK256 SWAP1 JUMPDEST DUP2 SLOAD DUP2 MSTORE SWAP1 PUSH1 0x1 ADD SWAP1 PUSH1 0x20 ADD DUP1 DUP4 GT PUSH2 0x4406 JUMPI DUP3 SWAP1 SUB PUSH1 0x1F AND DUP3 ADD SWAP2 JUMPDEST POP POP POP POP POP DUP2 MSTORE PUSH1 0x20 ADD PUSH1 0xB DUP3 ADD DUP1 SLOAD PUSH2 0x443C SWAP1 PUSH2 0x5B0B JUMP JUMPDEST DUP1 PUSH1 0x1F ADD PUSH1 0x20 DUP1 SWAP2 DIV MUL PUSH1 0x20 ADD PUSH1 0x40 MLOAD SWAP1 DUP2 ADD PUSH1 0x40 MSTORE DUP1 SWAP3 SWAP2 SWAP1 DUP2 DUP2 MSTORE PUSH1 0x20 ADD DUP3 DUP1 SLOAD PUSH2 0x4468 SWAP1 PUSH2 0x5B0B JUMP JUMPDEST DUP1 ISZERO PUSH2 0x44B5 JUMPI DUP1 PUSH1 0x1F LT PUSH2 0x448A JUMPI PUSH2 0x100 DUP1 DUP4 SLOAD DIV MUL DUP4 MSTORE SWAP2 PUSH1 0x20 ADD SWAP2 PUSH2 0x44B5 JUMP JUMPDEST DUP3 ADD SWAP2 SWAP1 PUSH1 0x0 MSTORE PUSH1 0x20 PUSH1 0x0 KECCAK256 SWAP1 JUMPDEST DUP2 SLOAD DUP2 MSTORE SWAP1 PUSH1 0x1 ADD SWAP1 PUSH1 0x20 ADD DUP1 DUP4 GT PUSH2 0x4498 JUMPI DUP3 SWAP1 SUB PUSH1 0x1F AND DUP3 ADD SWAP2 JUMPDEST POP POP POP SWAP2 DUP4 MSTORE POP POP PUSH1 0xC SWAP2 SWAP1 SWAP2 ADD SLOAD PUSH1 0xFF SWAP1 DUP2 AND ISZERO ISZERO PUSH1 0x20 SWAP3 DUP4 ADD MSTORE SWAP2 DUP4 MSTORE PUSH1 0x12 SWAP4 SWAP1 SWAP4 ADD SLOAD AND ISZERO ISZERO SWAP2 ADD MSTORE DUP5 MLOAD DUP6 SWAP1 DUP8 SWAP1 DUP2 LT PUSH2 0x44F5 JUMPI PUSH2 0x44F5 PUSH2 0x5B8B JUMP JUMPDEST PUSH1 0x20 SWAP1 DUP2 MUL SWAP2 SWAP1 SWAP2 ADD ADD MSTORE PUSH2 0x450B PUSH1 0x1 DUP7 PUSH2 0x5B73 JUMP JUMPDEST SWAP5 POP POP POP DUP1 DUP1 PUSH2 0x451A SWAP1 PUSH2 0x5BA1 JUMP JUMPDEST SWAP2 POP POP PUSH2 0x3DD1 JUMP JUMPDEST PUSH2 0x452B DUP2 PUSH2 0x4C68 JUMP JUMPDEST PUSH2 0x4547 JUMPI PUSH1 0x40 MLOAD PUSH3 0x461BCD PUSH1 0xE5 SHL DUP2 MSTORE PUSH1 0x4 ADD PUSH2 0x82E SWAP1 PUSH2 0x5C0A JUMP JUMPDEST POP JUMP JUMPDEST PUSH1 0x0 DUP2 DUP2 MSTORE PUSH1 0x4 PUSH1 0x20 MSTORE PUSH1 0x40 SWAP1 KECCAK256 DUP1 SLOAD PUSH1 0x1 PUSH1 0x1 PUSH1 0xA0 SHL SUB NOT AND PUSH1 0x1 PUSH1 0x1 PUSH1 0xA0 SHL SUB DUP5 AND SWAP1 DUP2 OR SWAP1 SWAP2 SSTORE DUP2 SWAP1 PUSH2 0x457F DUP3 PUSH2 0x1FAD JUMP JUMPDEST PUSH1 0x1 PUSH1 0x1 PUSH1 0xA0 SHL SUB AND PUSH32 0x8C5BE1E5EBEC7D5BD14F71427D1E84F3DD0314C0F7B2291E5B200AC8C7C3B925 PUSH1 0x40 MLOAD PUSH1 0x40 MLOAD DUP1 SWAP2 SUB SWAP1 LOG4 POP POP JUMP JUMPDEST PUSH1 0x0 DUP1 PUSH2 0x45C4 DUP4 PUSH2 0x1FAD JUMP JUMPDEST SWAP1 POP DUP1 PUSH1 0x1 PUSH1 0x1 PUSH1 0xA0 SHL SUB AND DUP5 PUSH1 0x1 PUSH1 0x1 PUSH1 0xA0 SHL SUB AND EQ DUP1 PUSH2 0x45EB JUMPI POP PUSH2 0x45EB DUP2 DUP6 PUSH2 0x3D04 JUMP JUMPDEST DUP1 PUSH2 0x34CE JUMPI POP DUP4 PUSH1 0x1 PUSH1 0x1 PUSH1 0xA0 SHL SUB AND PUSH2 0x4604 DUP5 PUSH2 0x792 JUMP JUMPDEST PUSH1 0x1 PUSH1 0x1 PUSH1 0xA0 SHL SUB AND EQ SWAP5 SWAP4 POP POP POP POP JUMP JUMPDEST DUP3 PUSH1 0x1 PUSH1 0x1 PUSH1 0xA0 SHL SUB AND PUSH2 0x4629 DUP3 PUSH2 0x1FAD JUMP JUMPDEST PUSH1 0x1 PUSH1 0x1 PUSH1 0xA0 SHL SUB AND EQ PUSH2 0x468D JUMPI PUSH1 0x40 MLOAD PUSH3 0x461BCD PUSH1 0xE5 SHL DUP2 MSTORE PUSH1 0x20 PUSH1 0x4 DUP3 ADD MSTORE PUSH1 0x25 PUSH1 0x24 DUP3 ADD MSTORE PUSH32 0x4552433732313A207472616E736665722066726F6D20696E636F727265637420 PUSH1 0x44 DUP3 ADD MSTORE PUSH5 0x37BBB732B9 PUSH1 0xD9 SHL PUSH1 0x64 DUP3 ADD MSTORE PUSH1 0x84 ADD PUSH2 0x82E JUMP JUMPDEST PUSH1 0x1 PUSH1 0x1 PUSH1 0xA0 SHL SUB DUP3 AND PUSH2 0x46EF JUMPI PUSH1 0x40 MLOAD PUSH3 0x461BCD PUSH1 0xE5 SHL DUP2 MSTORE PUSH1 0x20 PUSH1 0x4 DUP3 ADD MSTORE PUSH1 0x24 DUP1 DUP3 ADD MSTORE PUSH32 0x4552433732313A207472616E7366657220746F20746865207A65726F20616464 PUSH1 0x44 DUP3 ADD MSTORE PUSH4 0x72657373 PUSH1 0xE0 SHL PUSH1 0x64 DUP3 ADD MSTORE PUSH1 0x84 ADD PUSH2 0x82E JUMP JUMPDEST PUSH2 0x46FA PUSH1 0x0 DUP3 PUSH2 0x454A JUMP JUMPDEST PUSH1 0x1 PUSH1 0x1 PUSH1 0xA0 SHL SUB DUP4 AND PUSH1 0x0 SWAP1 DUP2 MSTORE PUSH1 0x3 PUSH1 0x20 MSTORE PUSH1 0x40 DUP2 KECCAK256 DUP1 SLOAD PUSH1 0x1 SWAP3 SWAP1 PUSH2 0x4723 SWAP1 DUP5 SWAP1 PUSH2 0x5B5C JUMP JUMPDEST SWAP1 SWAP2 SSTORE POP POP PUSH1 0x1 PUSH1 0x1 PUSH1 0xA0 SHL SUB DUP3 AND PUSH1 0x0 SWAP1 DUP2 MSTORE PUSH1 0x3 PUSH1 0x20 MSTORE PUSH1 0x40 DUP2 KECCAK256 DUP1 SLOAD PUSH1 0x1 SWAP3 SWAP1 PUSH2 0x4751 SWAP1 DUP5 SWAP1 PUSH2 0x5B73 JUMP JUMPDEST SWAP1 SWAP2 SSTORE POP POP PUSH1 0x0 DUP2 DUP2 MSTORE PUSH1 0x2 PUSH1 0x20 MSTORE PUSH1 0x40 DUP1 DUP3 KECCAK256 DUP1 SLOAD PUSH1 0x1 PUSH1 0x1 PUSH1 0xA0 SHL SUB NOT AND PUSH1 0x1 PUSH1 0x1 PUSH1 0xA0 SHL SUB DUP7 DUP2 AND SWAP2 DUP3 OR SWAP1 SWAP3 SSTORE SWAP2 MLOAD DUP5 SWAP4 SWAP2 DUP8 AND SWAP2 PUSH1 0x0 DUP1 MLOAD PUSH1 0x20 PUSH2 0x5DA7 DUP4 CODECOPY DUP2 MLOAD SWAP2 MSTORE SWAP2 LOG4 POP POP POP JUMP JUMPDEST PUSH1 0x1 PUSH1 0x1 PUSH1 0xA0 SHL SUB DUP3 AND PUSH2 0x47F6 JUMPI PUSH1 0x40 MLOAD PUSH3 0x461BCD PUSH1 0xE5 SHL DUP2 MSTORE PUSH1 0x20 PUSH1 0x4 DUP3 ADD DUP2 SWAP1 MSTORE PUSH1 0x24 DUP3 ADD MSTORE PUSH32 0x4552433732313A206D696E7420746F20746865207A65726F2061646472657373 PUSH1 0x44 DUP3 ADD MSTORE PUSH1 0x64 ADD PUSH2 0x82E JUMP JUMPDEST PUSH2 0x47FF DUP2 PUSH2 0x4C68 JUMP JUMPDEST ISZERO PUSH2 0x484B JUMPI PUSH1 0x40 MLOAD PUSH3 0x461BCD PUSH1 0xE5 SHL DUP2 MSTORE PUSH1 0x20 PUSH1 0x4 DUP3 ADD MSTORE PUSH1 0x1C PUSH1 0x24 DUP3 ADD MSTORE PUSH28 0x115490CDCC8C4E881D1BDAD95B88185B1C9958591E481B5A5B9D1959 PUSH1 0x22 SHL PUSH1 0x44 DUP3 ADD MSTORE PUSH1 0x64 ADD PUSH2 0x82E JUMP JUMPDEST PUSH1 0x1 PUSH1 0x1 PUSH1 0xA0 SHL SUB DUP3 AND PUSH1 0x0 SWAP1 DUP2 MSTORE PUSH1 0x3 PUSH1 0x20 MSTORE PUSH1 0x40 DUP2 KECCAK256 DUP1 SLOAD PUSH1 0x1 SWAP3 SWAP1 PUSH2 0x4874 SWAP1 DUP5 SWAP1 PUSH2 0x5B73 JUMP JUMPDEST SWAP1 SWAP2 SSTORE POP POP PUSH1 0x0 DUP2 DUP2 MSTORE PUSH1 0x2 PUSH1 0x20 MSTORE PUSH1 0x40 DUP1 DUP3 KECCAK256 DUP1 SLOAD PUSH1 0x1 PUSH1 0x1 PUSH1 0xA0 SHL SUB NOT AND PUSH1 0x1 PUSH1 0x1 PUSH1 0xA0 SHL SUB DUP7 AND SWAP1 DUP2 OR SWAP1 SWAP2 SSTORE SWAP1 MLOAD DUP4 SWAP3 SWAP1 PUSH1 0x0 DUP1 MLOAD PUSH1 0x20 PUSH2 0x5DA7 DUP4 CODECOPY DUP2 MLOAD SWAP2 MSTORE SWAP1 DUP3 SWAP1 LOG4 POP POP JUMP JUMPDEST PUSH2 0x48C9 DUP3 PUSH2 0x4C68 JUMP JUMPDEST PUSH2 0x492C JUMPI PUSH1 0x40 MLOAD PUSH3 0x461BCD PUSH1 0xE5 SHL DUP2 MSTORE PUSH1 0x20 PUSH1 0x4 DUP3 ADD MSTORE PUSH1 0x2E PUSH1 0x24 DUP3 ADD MSTORE PUSH32 0x45524337323155524953746F726167653A2055524920736574206F66206E6F6E PUSH1 0x44 DUP3 ADD MSTORE PUSH14 0x32BC34B9BA32B73A103A37B5B2B7 PUSH1 0x91 SHL PUSH1 0x64 DUP3 ADD MSTORE PUSH1 0x84 ADD PUSH2 0x82E JUMP JUMPDEST PUSH1 0x0 DUP3 DUP2 MSTORE PUSH1 0x6 PUSH1 0x20 SWAP1 DUP2 MSTORE PUSH1 0x40 SWAP1 SWAP2 KECCAK256 DUP3 MLOAD PUSH2 0x8CF SWAP3 DUP5 ADD SWAP1 PUSH2 0x4EE8 JUMP JUMPDEST PUSH1 0x0 DUP5 GT PUSH2 0x499A JUMPI PUSH1 0x40 MLOAD PUSH3 0x461BCD PUSH1 0xE5 SHL DUP2 MSTORE PUSH1 0x20 PUSH1 0x4 DUP3 ADD MSTORE PUSH1 0x1C PUSH1 0x24 DUP3 ADD MSTORE PUSH28 0x5072696365206D757374206265206174206C65617374203120776569 PUSH1 0x20 SHL PUSH1 0x44 DUP3 ADD MSTORE PUSH1 0x64 ADD PUSH2 0x82E JUMP JUMPDEST PUSH1 0xC SLOAD CALLVALUE EQ PUSH2 0x49F7 JUMPI PUSH1 0x40 MLOAD PUSH3 0x461BCD PUSH1 0xE5 SHL DUP2 MSTORE PUSH1 0x20 PUSH1 0x4 DUP3 ADD MSTORE PUSH1 0x24 DUP1 DUP3 ADD MSTORE PUSH32 0x5072696365206D75737420626520657175616C20746F206C697374696E672070 PUSH1 0x44 DUP3 ADD MSTORE PUSH4 0x72696365 PUSH1 0xE0 SHL PUSH1 0x64 DUP3 ADD MSTORE PUSH1 0x84 ADD PUSH2 0x82E JUMP JUMPDEST PUSH1 0x40 DUP1 MLOAD PUSH2 0x100 DUP2 ADD DUP3 MSTORE DUP7 DUP2 MSTORE CALLER PUSH1 0x20 DUP1 DUP4 ADD SWAP2 DUP3 MSTORE ADDRESS DUP4 DUP6 ADD SWAP1 DUP2 MSTORE PUSH1 0x60 DUP5 ADD DUP10 DUP2 MSTORE PUSH1 0x0 PUSH1 0x80 DUP7 ADD DUP2 DUP2 MSTORE PUSH1 0xA0 DUP8 ADD DUP12 DUP2 MSTORE PUSH1 0xC0 DUP9 ADD DUP12 SWAP1 MSTORE PUSH1 0xE0 DUP9 ADD DUP11 SWAP1 MSTORE DUP14 DUP4 MSTORE PUSH1 0xF DUP7 MSTORE SWAP8 SWAP1 SWAP2 KECCAK256 DUP7 MLOAD DUP2 SSTORE SWAP5 MLOAD PUSH1 0x1 DUP7 ADD DUP1 SLOAD PUSH1 0x1 PUSH1 0x1 PUSH1 0xA0 SHL SUB NOT SWAP1 DUP2 AND PUSH1 0x1 PUSH1 0x1 PUSH1 0xA0 SHL SUB SWAP4 DUP5 AND OR SWAP1 SWAP2 SSTORE SWAP4 MLOAD PUSH1 0x2 DUP8 ADD DUP1 SLOAD SWAP1 SWAP6 AND SWAP2 AND OR SWAP1 SWAP3 SSTORE MLOAD PUSH1 0x3 DUP5 ADD SSTORE MLOAD PUSH1 0x4 DUP4 ADD DUP1 SLOAD PUSH1 0xFF NOT AND SWAP2 ISZERO ISZERO SWAP2 SWAP1 SWAP2 OR SWAP1 SSTORE SWAP3 MLOAD DUP1 MLOAD SWAP3 SWAP4 SWAP2 SWAP3 PUSH2 0x4AAF SWAP3 PUSH1 0x5 DUP6 ADD SWAP3 ADD SWAP1 PUSH2 0x4EE8 JUMP JUMPDEST POP PUSH1 0xC0 DUP3 ADD MLOAD DUP1 MLOAD PUSH2 0x4ACB SWAP2 PUSH1 0x6 DUP5 ADD SWAP2 PUSH1 0x20 SWAP1 SWAP2 ADD SWAP1 PUSH2 0x4EE8 JUMP JUMPDEST POP PUSH1 0xE0 DUP3 ADD MLOAD DUP1 MLOAD PUSH2 0x4AE7 SWAP2 PUSH1 0x7 DUP5 ADD SWAP2 PUSH1 0x20 SWAP1 SWAP2 ADD SWAP1 PUSH2 0x4EE8 JUMP JUMPDEST POP SWAP1 POP POP PUSH2 0x3630 CALLER ADDRESS DUP8 PUSH2 0x4616 JUMP JUMPDEST DUP2 PUSH1 0x1 PUSH1 0x1 PUSH1 0xA0 SHL SUB AND DUP4 PUSH1 0x1 PUSH1 0x1 PUSH1 0xA0 SHL SUB AND EQ ISZERO PUSH2 0x4B54 JUMPI PUSH1 0x40 MLOAD PUSH3 0x461BCD PUSH1 0xE5 SHL DUP2 MSTORE PUSH1 0x20 PUSH1 0x4 DUP3 ADD MSTORE PUSH1 0x19 PUSH1 0x24 DUP3 ADD MSTORE PUSH25 0x22A9219B99189D1030B8383937BB32903A379031B0B63632B9 PUSH1 0x39 SHL PUSH1 0x44 DUP3 ADD MSTORE PUSH1 0x64 ADD PUSH2 0x82E JUMP JUMPDEST PUSH1 0x1 PUSH1 0x1 PUSH1 0xA0 SHL SUB DUP4 DUP2 AND PUSH1 0x0 DUP2 DUP2 MSTORE PUSH1 0x5 PUSH1 0x20 SWAP1 DUP2 MSTORE PUSH1 0x40 DUP1 DUP4 KECCAK256 SWAP5 DUP8 AND DUP1 DUP5 MSTORE SWAP5 DUP3 MSTORE SWAP2 DUP3 SWAP1 KECCAK256 DUP1 SLOAD PUSH1 0xFF NOT AND DUP7 ISZERO ISZERO SWAP1 DUP2 OR SWAP1 SWAP2 SSTORE SWAP2 MLOAD SWAP2 DUP3 MSTORE PUSH32 0x17307EAB39AB6107E8899845AD3D59BD9653F200F220920489CA2B5937696C31 SWAP2 ADD PUSH1 0x40 MLOAD DUP1 SWAP2 SUB SWAP1 LOG3 POP POP POP JUMP JUMPDEST PUSH2 0x4BCC DUP5 DUP5 DUP5 PUSH2 0x4616 JUMP JUMPDEST PUSH2 0x4BD8 DUP5 DUP5 DUP5 DUP5 PUSH2 0x4C85 JUMP JUMPDEST PUSH2 0x2E72 JUMPI PUSH1 0x40 MLOAD PUSH3 0x461BCD PUSH1 0xE5 SHL DUP2 MSTORE PUSH1 0x4 ADD PUSH2 0x82E SWAP1 PUSH2 0x5CC6 JUMP JUMPDEST PUSH1 0x60 PUSH2 0x4BFF DUP3 PUSH2 0x4522 JUMP JUMPDEST PUSH1 0x0 PUSH2 0x4C16 PUSH1 0x40 DUP1 MLOAD PUSH1 0x20 DUP2 ADD SWAP1 SWAP2 MSTORE PUSH1 0x0 DUP2 MSTORE SWAP1 JUMP JUMPDEST SWAP1 POP PUSH1 0x0 DUP2 MLOAD GT PUSH2 0x4C36 JUMPI PUSH1 0x40 MLOAD DUP1 PUSH1 0x20 ADD PUSH1 0x40 MSTORE DUP1 PUSH1 0x0 DUP2 MSTORE POP PUSH2 0x4C61 JUMP JUMPDEST DUP1 PUSH2 0x4C40 DUP5 PUSH2 0x4D92 JUMP JUMPDEST PUSH1 0x40 MLOAD PUSH1 0x20 ADD PUSH2 0x4C51 SWAP3 SWAP2 SWAP1 PUSH2 0x5C97 JUMP JUMPDEST PUSH1 0x40 MLOAD PUSH1 0x20 DUP2 DUP4 SUB SUB DUP2 MSTORE SWAP1 PUSH1 0x40 MSTORE JUMPDEST SWAP4 SWAP3 POP POP POP JUMP JUMPDEST PUSH1 0x0 SWAP1 DUP2 MSTORE PUSH1 0x2 PUSH1 0x20 MSTORE PUSH1 0x40 SWAP1 KECCAK256 SLOAD PUSH1 0x1 PUSH1 0x1 PUSH1 0xA0 SHL SUB AND ISZERO ISZERO SWAP1 JUMP JUMPDEST PUSH1 0x0 PUSH1 0x1 PUSH1 0x1 PUSH1 0xA0 SHL SUB DUP5 AND EXTCODESIZE ISZERO PUSH2 0x4D87 JUMPI PUSH1 0x40 MLOAD PUSH4 0xA85BD01 PUSH1 0xE1 SHL DUP2 MSTORE PUSH1 0x1 PUSH1 0x1 PUSH1 0xA0 SHL SUB DUP6 AND SWAP1 PUSH4 0x150B7A02 SWAP1 PUSH2 0x4CC9 SWAP1 CALLER SWAP1 DUP10 SWAP1 DUP9 SWAP1 DUP9 SWAP1 PUSH1 0x4 ADD PUSH2 0x5D18 JUMP JUMPDEST PUSH1 0x20 PUSH1 0x40 MLOAD DUP1 DUP4 SUB DUP2 PUSH1 0x0 DUP8 DUP1 EXTCODESIZE ISZERO DUP1 ISZERO PUSH2 0x4CE3 JUMPI PUSH1 0x0 DUP1 REVERT JUMPDEST POP GAS CALL SWAP3 POP POP POP DUP1 ISZERO PUSH2 0x4D13 JUMPI POP PUSH1 0x40 DUP1 MLOAD PUSH1 0x1F RETURNDATASIZE SWAP1 DUP2 ADD PUSH1 0x1F NOT AND DUP3 ADD SWAP1 SWAP3 MSTORE PUSH2 0x4D10 SWAP2 DUP2 ADD SWAP1 PUSH2 0x5D4B JUMP JUMPDEST PUSH1 0x1 JUMPDEST PUSH2 0x4D6D JUMPI RETURNDATASIZE DUP1 DUP1 ISZERO PUSH2 0x4D41 JUMPI PUSH1 0x40 MLOAD SWAP2 POP PUSH1 0x1F NOT PUSH1 0x3F RETURNDATASIZE ADD AND DUP3 ADD PUSH1 0x40 MSTORE RETURNDATASIZE DUP3 MSTORE RETURNDATASIZE PUSH1 0x0 PUSH1 0x20 DUP5 ADD RETURNDATACOPY PUSH2 0x4D46 JUMP JUMPDEST PUSH1 0x60 SWAP2 POP JUMPDEST POP DUP1 MLOAD PUSH2 0x4D65 JUMPI PUSH1 0x40 MLOAD PUSH3 0x461BCD PUSH1 0xE5 SHL DUP2 MSTORE PUSH1 0x4 ADD PUSH2 0x82E SWAP1 PUSH2 0x5CC6 JUMP JUMPDEST DUP1 MLOAD DUP2 PUSH1 0x20 ADD REVERT JUMPDEST PUSH1 0x1 PUSH1 0x1 PUSH1 0xE0 SHL SUB NOT AND PUSH4 0xA85BD01 PUSH1 0xE1 SHL EQ SWAP1 POP PUSH2 0x34CE JUMP JUMPDEST POP PUSH1 0x1 SWAP5 SWAP4 POP POP POP POP JUMP JUMPDEST PUSH1 0x60 DUP2 PUSH2 0x4DB6 JUMPI POP POP PUSH1 0x40 DUP1 MLOAD DUP1 DUP3 ADD SWAP1 SWAP2 MSTORE PUSH1 0x1 DUP2 MSTORE PUSH1 0x3 PUSH1 0xFC SHL PUSH1 0x20 DUP3 ADD MSTORE SWAP1 JUMP JUMPDEST DUP2 PUSH1 0x0 JUMPDEST DUP2 ISZERO PUSH2 0x4DE0 JUMPI DUP1 PUSH2 0x4DCA DUP2 PUSH2 0x5BA1 JUMP JUMPDEST SWAP2 POP PUSH2 0x4DD9 SWAP1 POP PUSH1 0xA DUP4 PUSH2 0x5D7E JUMP JUMPDEST SWAP2 POP PUSH2 0x4DBA JUMP JUMPDEST PUSH1 0x0 DUP2 PUSH1 0x1 PUSH1 0x1 PUSH1 0x40 SHL SUB DUP2 GT ISZERO PUSH2 0x4DFA JUMPI PUSH2 0x4DFA PUSH2 0x52F9 JUMP JUMPDEST PUSH1 0x40 MLOAD SWAP1 DUP1 DUP3 MSTORE DUP1 PUSH1 0x1F ADD PUSH1 0x1F NOT AND PUSH1 0x20 ADD DUP3 ADD PUSH1 0x40 MSTORE DUP1 ISZERO PUSH2 0x4E24 JUMPI PUSH1 0x20 DUP3 ADD DUP2 DUP1 CALLDATASIZE DUP4 CALLDATACOPY ADD SWAP1 POP JUMPDEST POP SWAP1 POP JUMPDEST DUP5 ISZERO PUSH2 0x34CE JUMPI PUSH2 0x4E39 PUSH1 0x1 DUP4 PUSH2 0x5B5C JUMP JUMPDEST SWAP2 POP PUSH2 0x4E46 PUSH1 0xA DUP7 PUSH2 0x5D92 JUMP JUMPDEST PUSH2 0x4E51 SWAP1 PUSH1 0x30 PUSH2 0x5B73 JUMP JUMPDEST PUSH1 0xF8 SHL DUP2 DUP4 DUP2 MLOAD DUP2 LT PUSH2 0x4E66 JUMPI PUSH2 0x4E66 PUSH2 0x5B8B JUMP JUMPDEST PUSH1 0x20 ADD ADD SWAP1 PUSH1 0x1 PUSH1 0x1 PUSH1 0xF8 SHL SUB NOT AND SWAP1 DUP2 PUSH1 0x0 BYTE SWAP1 MSTORE8 POP PUSH2 0x4E88 PUSH1 0xA DUP7 PUSH2 0x5D7E JUMP JUMPDEST SWAP5 POP PUSH2 0x4E28 JUMP JUMPDEST PUSH1 0x40 MLOAD DUP1 PUSH2 0x100 ADD PUSH1 0x40 MSTORE DUP1 PUSH1 0x0 DUP2 MSTORE PUSH1 0x20 ADD PUSH1 0x0 PUSH1 0x1 PUSH1 0x1 PUSH1 0xA0 SHL SUB AND DUP2 MSTORE PUSH1 0x20 ADD PUSH1 0x0 PUSH1 0x1 PUSH1 0x1 PUSH1 0xA0 SHL SUB AND DUP2 MSTORE PUSH1 0x20 ADD PUSH1 0x0 DUP2 MSTORE PUSH1 0x20 ADD PUSH1 0x0 ISZERO ISZERO DUP2 MSTORE PUSH1 0x20 ADD PUSH1 0x60 DUP2 MSTORE PUSH1 0x20 ADD PUSH1 0x60 DUP2 MSTORE PUSH1 0x20 ADD PUSH1 0x60 DUP2 MSTORE POP SWAP1 JUMP JUMPDEST DUP3 DUP1 SLOAD PUSH2 0x4EF4 SWAP1 PUSH2 0x5B0B JUMP JUMPDEST SWAP1 PUSH1 0x0 MSTORE PUSH1 0x20 PUSH1 0x0 KECCAK256 SWAP1 PUSH1 0x1F ADD PUSH1 0x20 SWAP1 DIV DUP2 ADD SWAP3 DUP3 PUSH2 0x4F16 JUMPI PUSH1 0x0 DUP6 SSTORE PUSH2 0x4F5C JUMP JUMPDEST DUP3 PUSH1 0x1F LT PUSH2 0x4F2F JUMPI DUP1 MLOAD PUSH1 0xFF NOT AND DUP4 DUP1 ADD OR DUP6 SSTORE PUSH2 0x4F5C JUMP JUMPDEST DUP3 DUP1 ADD PUSH1 0x1 ADD DUP6 SSTORE DUP3 ISZERO PUSH2 0x4F5C JUMPI SWAP2 DUP3 ADD JUMPDEST DUP3 DUP2 GT ISZERO PUSH2 0x4F5C JUMPI DUP3 MLOAD DUP3 SSTORE SWAP2 PUSH1 0x20 ADD SWAP2 SWAP1 PUSH1 0x1 ADD SWAP1 PUSH2 0x4F41 JUMP JUMPDEST POP PUSH2 0x4F68 SWAP3 SWAP2 POP PUSH2 0x50B2 JUMP JUMPDEST POP SWAP1 JUMP JUMPDEST DUP3 DUP1 SLOAD PUSH2 0x4F78 SWAP1 PUSH2 0x5B0B JUMP JUMPDEST SWAP1 PUSH1 0x0 MSTORE PUSH1 0x20 PUSH1 0x0 KECCAK256 SWAP1 PUSH1 0x1F ADD PUSH1 0x20 SWAP1 DIV DUP2 ADD SWAP3 DUP3 PUSH2 0x4F9A JUMPI PUSH1 0x0 DUP6 SSTORE PUSH2 0x4F5C JUMP JUMPDEST DUP3 PUSH1 0x1F LT PUSH2 0x4FAB JUMPI DUP1 SLOAD DUP6 SSTORE PUSH2 0x4F5C JUMP JUMPDEST DUP3 DUP1 ADD PUSH1 0x1 ADD DUP6 SSTORE DUP3 ISZERO PUSH2 0x4F5C JUMPI PUSH1 0x0 MSTORE PUSH1 0x20 PUSH1 0x0 KECCAK256 SWAP2 PUSH1 0x1F ADD PUSH1 0x20 SWAP1 DIV DUP3 ADD JUMPDEST DUP3 DUP2 GT ISZERO PUSH2 0x4F5C JUMPI DUP3 SLOAD DUP3 SSTORE SWAP2 PUSH1 0x1 ADD SWAP2 SWAP1 PUSH1 0x1 ADD SWAP1 PUSH2 0x4FCC JUMP JUMPDEST PUSH1 0x40 MLOAD DUP1 PUSH1 0xE0 ADD PUSH1 0x40 MSTORE DUP1 PUSH1 0x0 DUP2 MSTORE PUSH1 0x20 ADD PUSH1 0x60 DUP2 MSTORE PUSH1 0x20 ADD PUSH1 0x60 DUP2 MSTORE PUSH1 0x20 ADD PUSH1 0x60 DUP2 MSTORE PUSH1 0x20 ADD PUSH1 0x60 DUP2 MSTORE PUSH1 0x20 ADD PUSH2 0x501D PUSH2 0x5070 JUMP JUMPDEST DUP2 MSTORE PUSH1 0x0 PUSH1 0x20 SWAP1 SWAP2 ADD MSTORE SWAP1 JUMP JUMPDEST PUSH1 0x40 MLOAD DUP1 PUSH1 0xE0 ADD PUSH1 0x40 MSTORE DUP1 PUSH1 0x0 DUP2 MSTORE PUSH1 0x20 ADD PUSH1 0x60 DUP2 MSTORE PUSH1 0x20 ADD PUSH1 0x0 PUSH1 0x1 PUSH1 0x1 PUSH1 0xA0 SHL SUB AND DUP2 MSTORE PUSH1 0x20 ADD PUSH1 0x0 DUP2 MSTORE PUSH1 0x20 ADD PUSH1 0x60 DUP2 MSTORE PUSH1 0x20 ADD PUSH1 0x60 DUP2 MSTORE PUSH1 0x20 ADD PUSH1 0x60 DUP2 MSTORE POP SWAP1 JUMP JUMPDEST PUSH1 0x40 MLOAD DUP1 PUSH1 0xE0 ADD PUSH1 0x40 MSTORE DUP1 PUSH1 0x0 DUP2 MSTORE PUSH1 0x20 ADD PUSH1 0x60 DUP2 MSTORE PUSH1 0x20 ADD PUSH1 0x0 DUP2 MSTORE PUSH1 0x20 ADD PUSH2 0x5098 PUSH2 0x502A JUMP JUMPDEST DUP2 MSTORE PUSH1 0x60 PUSH1 0x20 DUP3 ADD DUP2 SWAP1 MSTORE PUSH1 0x40 DUP3 ADD DUP2 SWAP1 MSTORE PUSH1 0x0 SWAP2 ADD MSTORE SWAP1 JUMP JUMPDEST JUMPDEST DUP1 DUP3 GT ISZERO PUSH2 0x4F68 JUMPI PUSH1 0x0 DUP2 SSTORE PUSH1 0x1 ADD PUSH2 0x50B3 JUMP JUMPDEST PUSH1 0x1 PUSH1 0x1 PUSH1 0xE0 SHL SUB NOT DUP2 AND DUP2 EQ PUSH2 0x4547 JUMPI PUSH1 0x0 DUP1 REVERT JUMPDEST PUSH1 0x0 PUSH1 0x20 DUP3 DUP5 SUB SLT ISZERO PUSH2 0x50EF JUMPI PUSH1 0x0 DUP1 REVERT JUMPDEST DUP2 CALLDATALOAD PUSH2 0x4C61 DUP2 PUSH2 0x50C7 JUMP JUMPDEST PUSH1 0x0 JUMPDEST DUP4 DUP2 LT ISZERO PUSH2 0x5115 JUMPI DUP2 DUP2 ADD MLOAD DUP4 DUP3 ADD MSTORE PUSH1 0x20 ADD PUSH2 0x50FD JUMP JUMPDEST DUP4 DUP2 GT ISZERO PUSH2 0x2E72 JUMPI POP POP PUSH1 0x0 SWAP2 ADD MSTORE JUMP JUMPDEST PUSH1 0x0 DUP2 MLOAD DUP1 DUP5 MSTORE PUSH2 0x513E DUP2 PUSH1 0x20 DUP7 ADD PUSH1 0x20 DUP7 ADD PUSH2 0x50FA JUMP JUMPDEST PUSH1 0x1F ADD PUSH1 0x1F NOT AND SWAP3 SWAP1 SWAP3 ADD PUSH1 0x20 ADD SWAP3 SWAP2 POP POP JUMP JUMPDEST PUSH1 0x20 DUP2 MSTORE PUSH1 0x0 PUSH2 0x4C61 PUSH1 0x20 DUP4 ADD DUP5 PUSH2 0x5126 JUMP JUMPDEST PUSH1 0x0 PUSH1 0x20 DUP3 DUP5 SUB SLT ISZERO PUSH2 0x5177 JUMPI PUSH1 0x0 DUP1 REVERT JUMPDEST POP CALLDATALOAD SWAP2 SWAP1 POP JUMP JUMPDEST PUSH1 0x1 PUSH1 0x1 PUSH1 0xA0 SHL SUB AND SWAP1 MSTORE JUMP JUMPDEST DUP1 CALLDATALOAD PUSH1 0x1 PUSH1 0x1 PUSH1 0xA0 SHL SUB DUP2 AND DUP2 EQ PUSH2 0x51A2 JUMPI PUSH1 0x0 DUP1 REVERT JUMPDEST SWAP2 SWAP1 POP JUMP JUMPDEST PUSH1 0x0 DUP1 PUSH1 0x40 DUP4 DUP6 SUB SLT ISZERO PUSH2 0x51BA JUMPI PUSH1 0x0 DUP1 REVERT JUMPDEST PUSH2 0x51C3 DUP4 PUSH2 0x518B JUMP JUMPDEST SWAP5 PUSH1 0x20 SWAP4 SWAP1 SWAP4 ADD CALLDATALOAD SWAP4 POP POP POP JUMP JUMPDEST PUSH1 0x0 PUSH1 0x20 DUP1 DUP4 ADD DUP2 DUP5 MSTORE DUP1 DUP6 MLOAD DUP1 DUP4 MSTORE PUSH1 0x40 SWAP3 POP DUP3 DUP7 ADD SWAP2 POP DUP3 DUP2 PUSH1 0x5 SHL DUP8 ADD ADD DUP5 DUP9 ADD PUSH1 0x0 JUMPDEST DUP4 DUP2 LT ISZERO PUSH2 0x52AF JUMPI PUSH1 0x3F NOT DUP10 DUP5 SUB ADD DUP6 MSTORE DUP2 MLOAD PUSH2 0x100 DUP2 MLOAD DUP6 MSTORE DUP9 DUP3 ADD MLOAD PUSH2 0x5222 DUP11 DUP8 ADD DUP3 PUSH2 0x517E JUMP JUMPDEST POP DUP8 DUP3 ADD MLOAD PUSH2 0x5233 DUP10 DUP8 ADD DUP3 PUSH2 0x517E JUMP JUMPDEST POP PUSH1 0x60 DUP3 DUP2 ADD MLOAD SWAP1 DUP7 ADD MSTORE PUSH1 0x80 DUP1 DUP4 ADD MLOAD ISZERO ISZERO SWAP1 DUP7 ADD MSTORE PUSH1 0xA0 DUP1 DUP4 ADD MLOAD DUP2 DUP8 ADD DUP4 SWAP1 MSTORE PUSH2 0x5262 DUP4 DUP9 ADD DUP3 PUSH2 0x5126 JUMP JUMPDEST SWAP3 POP POP POP PUSH1 0xC0 DUP1 DUP4 ADD MLOAD DUP7 DUP4 SUB DUP3 DUP9 ADD MSTORE PUSH2 0x527D DUP4 DUP3 PUSH2 0x5126 JUMP JUMPDEST SWAP3 POP POP POP PUSH1 0xE0 DUP1 DUP4 ADD MLOAD SWAP3 POP DUP6 DUP3 SUB DUP2 DUP8 ADD MSTORE POP PUSH2 0x529B DUP2 DUP4 PUSH2 0x5126 JUMP JUMPDEST SWAP7 DUP10 ADD SWAP7 SWAP5 POP POP POP SWAP1 DUP7 ADD SWAP1 PUSH1 0x1 ADD PUSH2 0x51F8 JUMP JUMPDEST POP SWAP1 SWAP9 SWAP8 POP POP POP POP POP POP POP POP JUMP JUMPDEST PUSH1 0x0 DUP1 PUSH1 0x0 PUSH1 0x60 DUP5 DUP7 SUB SLT ISZERO PUSH2 0x52D2 JUMPI PUSH1 0x0 DUP1 REVERT JUMPDEST PUSH2 0x52DB DUP5 PUSH2 0x518B JUMP JUMPDEST SWAP3 POP PUSH2 0x52E9 PUSH1 0x20 DUP6 ADD PUSH2 0x518B JUMP JUMPDEST SWAP2 POP PUSH1 0x40 DUP5 ADD CALLDATALOAD SWAP1 POP SWAP3 POP SWAP3 POP SWAP3 JUMP JUMPDEST PUSH4 0x4E487B71 PUSH1 0xE0 SHL PUSH1 0x0 MSTORE PUSH1 0x41 PUSH1 0x4 MSTORE PUSH1 0x24 PUSH1 0x0 REVERT JUMPDEST PUSH1 0x0 PUSH1 0x1 PUSH1 0x1 PUSH1 0x40 SHL SUB DUP1 DUP5 GT ISZERO PUSH2 0x5329 JUMPI PUSH2 0x5329 PUSH2 0x52F9 JUMP JUMPDEST PUSH1 0x40 MLOAD PUSH1 0x1F DUP6 ADD PUSH1 0x1F NOT SWAP1 DUP2 AND PUSH1 0x3F ADD AND DUP2 ADD SWAP1 DUP3 DUP3 GT DUP2 DUP4 LT OR ISZERO PUSH2 0x5351 JUMPI PUSH2 0x5351 PUSH2 0x52F9 JUMP JUMPDEST DUP2 PUSH1 0x40 MSTORE DUP1 SWAP4 POP DUP6 DUP2 MSTORE DUP7 DUP7 DUP7 ADD GT ISZERO PUSH2 0x536A JUMPI PUSH1 0x0 DUP1 REVERT JUMPDEST DUP6 DUP6 PUSH1 0x20 DUP4 ADD CALLDATACOPY PUSH1 0x0 PUSH1 0x20 DUP8 DUP4 ADD ADD MSTORE POP POP POP SWAP4 SWAP3 POP POP POP JUMP JUMPDEST PUSH1 0x0 DUP3 PUSH1 0x1F DUP4 ADD SLT PUSH2 0x5395 JUMPI PUSH1 0x0 DUP1 REVERT JUMPDEST PUSH2 0x4C61 DUP4 DUP4 CALLDATALOAD PUSH1 0x20 DUP6 ADD PUSH2 0x530F JUMP JUMPDEST DUP1 CALLDATALOAD DUP1 ISZERO ISZERO DUP2 EQ PUSH2 0x51A2 JUMPI PUSH1 0x0 DUP1 REVERT JUMPDEST PUSH1 0x0 DUP1 PUSH1 0x0 DUP1 PUSH1 0x0 PUSH1 0xA0 DUP7 DUP9 SUB SLT ISZERO PUSH2 0x53CC JUMPI PUSH1 0x0 DUP1 REVERT JUMPDEST DUP6 CALLDATALOAD PUSH1 0x1 PUSH1 0x1 PUSH1 0x40 SHL SUB DUP1 DUP3 GT ISZERO PUSH2 0x53E3 JUMPI PUSH1 0x0 DUP1 REVERT JUMPDEST PUSH2 0x53EF DUP10 DUP4 DUP11 ADD PUSH2 0x5384 JUMP JUMPDEST SWAP7 POP PUSH1 0x20 DUP9 ADD CALLDATALOAD SWAP2 POP DUP1 DUP3 GT ISZERO PUSH2 0x5405 JUMPI PUSH1 0x0 DUP1 REVERT JUMPDEST PUSH2 0x5411 DUP10 DUP4 DUP11 ADD PUSH2 0x5384 JUMP JUMPDEST SWAP6 POP PUSH1 0x40 DUP9 ADD CALLDATALOAD SWAP2 POP DUP1 DUP3 GT ISZERO PUSH2 0x5427 JUMPI PUSH1 0x0 DUP1 REVERT JUMPDEST PUSH2 0x5433 DUP10 DUP4 DUP11 ADD PUSH2 0x5384 JUMP JUMPDEST SWAP5 POP PUSH1 0x60 DUP9 ADD CALLDATALOAD SWAP2 POP DUP1 DUP3 GT ISZERO PUSH2 0x5449 JUMPI PUSH1 0x0 DUP1 REVERT JUMPDEST POP PUSH2 0x5456 DUP9 DUP3 DUP10 ADD PUSH2 0x5384 JUMP JUMPDEST SWAP3 POP POP PUSH2 0x5465 PUSH1 0x80 DUP8 ADD PUSH2 0x53A4 JUMP JUMPDEST SWAP1 POP SWAP3 SWAP6 POP SWAP3 SWAP6 SWAP1 SWAP4 POP JUMP JUMPDEST DUP8 DUP2 MSTORE PUSH1 0xE0 PUSH1 0x20 DUP3 ADD MSTORE PUSH1 0x0 PUSH2 0x548A PUSH1 0xE0 DUP4 ADD DUP10 PUSH2 0x5126 JUMP JUMPDEST PUSH1 0x1 PUSH1 0x1 PUSH1 0xA0 SHL SUB DUP9 AND PUSH1 0x40 DUP5 ADD MSTORE PUSH1 0x60 DUP4 ADD DUP8 SWAP1 MSTORE DUP3 DUP2 SUB PUSH1 0x80 DUP5 ADD MSTORE PUSH2 0x54B2 DUP2 DUP8 PUSH2 0x5126 JUMP JUMPDEST SWAP1 POP DUP3 DUP2 SUB PUSH1 0xA0 DUP5 ADD MSTORE PUSH2 0x54C6 DUP2 DUP7 PUSH2 0x5126 JUMP JUMPDEST SWAP1 POP DUP3 DUP2 SUB PUSH1 0xC0 DUP5 ADD MSTORE PUSH2 0x54DA DUP2 DUP6 PUSH2 0x5126 JUMP JUMPDEST SWAP11 SWAP10 POP POP POP POP POP POP POP POP POP POP JUMP JUMPDEST DUP1 MLOAD DUP3 MSTORE PUSH1 0x0 PUSH1 0x20 DUP3 ADD MLOAD PUSH1 0xE0 PUSH1 0x20 DUP6 ADD MSTORE PUSH2 0x5507 PUSH1 0xE0 DUP6 ADD DUP3 PUSH2 0x5126 JUMP JUMPDEST SWAP1 POP PUSH1 0x1 DUP1 PUSH1 0xA0 SHL SUB PUSH1 0x40 DUP5 ADD MLOAD AND PUSH1 0x40 DUP6 ADD MSTORE PUSH1 0x60 DUP4 ADD MLOAD PUSH1 0x60 DUP6 ADD MSTORE PUSH1 0x80 DUP4 ADD MLOAD DUP5 DUP3 SUB PUSH1 0x80 DUP7 ADD MSTORE PUSH2 0x553C DUP3 DUP3 PUSH2 0x5126 JUMP JUMPDEST SWAP2 POP POP PUSH1 0xA0 DUP4 ADD MLOAD DUP5 DUP3 SUB PUSH1 0xA0 DUP7 ADD MSTORE PUSH2 0x5556 DUP3 DUP3 PUSH2 0x5126 JUMP JUMPDEST SWAP2 POP POP PUSH1 0xC0 DUP4 ADD MLOAD DUP5 DUP3 SUB PUSH1 0xC0 DUP7 ADD MSTORE PUSH2 0x5570 DUP3 DUP3 PUSH2 0x5126 JUMP JUMPDEST SWAP6 SWAP5 POP POP POP POP POP JUMP JUMPDEST DUP1 MLOAD DUP3 MSTORE PUSH1 0x0 PUSH1 0x20 DUP3 ADD MLOAD PUSH1 0xE0 PUSH1 0x20 DUP6 ADD MSTORE PUSH2 0x5598 PUSH1 0xE0 DUP6 ADD DUP3 PUSH2 0x5126 JUMP JUMPDEST SWAP1 POP PUSH1 0x40 DUP4 ADD MLOAD PUSH1 0x40 DUP6 ADD MSTORE PUSH1 0x60 DUP4 ADD MLOAD DUP5 DUP3 SUB PUSH1 0x60 DUP7 ADD MSTORE PUSH2 0x55BB DUP3 DUP3 PUSH2 0x54E8 JUMP JUMPDEST SWAP2 POP POP PUSH1 0x80 DUP4 ADD MLOAD DUP5 DUP3 SUB PUSH1 0x80 DUP7 ADD MSTORE PUSH2 0x55D5 DUP3 DUP3 PUSH2 0x5126 JUMP JUMPDEST SWAP2 POP POP PUSH1 0xA0 DUP4 ADD MLOAD DUP5 DUP3 SUB PUSH1 0xA0 DUP7 ADD MSTORE PUSH2 0x55EF DUP3 DUP3 PUSH2 0x5126 JUMP JUMPDEST SWAP2 POP POP PUSH1 0xC0 DUP4 ADD MLOAD ISZERO ISZERO PUSH1 0xC0 DUP6 ADD MSTORE DUP1 SWAP2 POP POP SWAP3 SWAP2 POP POP JUMP JUMPDEST PUSH1 0x0 PUSH1 0x20 DUP1 DUP4 ADD DUP2 DUP5 MSTORE DUP1 DUP6 MLOAD DUP1 DUP4 MSTORE PUSH1 0x40 SWAP3 POP DUP3 DUP7 ADD SWAP2 POP DUP3 DUP2 PUSH1 0x5 SHL DUP8 ADD ADD DUP5 DUP9 ADD PUSH1 0x0 JUMPDEST DUP4 DUP2 LT ISZERO PUSH2 0x52AF JUMPI PUSH1 0x3F NOT DUP10 DUP5 SUB ADD DUP6 MSTORE DUP2 MLOAD PUSH1 0xE0 DUP2 MLOAD DUP6 MSTORE DUP9 DUP3 ADD MLOAD DUP2 DUP11 DUP8 ADD MSTORE PUSH2 0x565D DUP3 DUP8 ADD DUP3 PUSH2 0x5126 JUMP JUMPDEST SWAP2 POP POP DUP8 DUP3 ADD MLOAD DUP6 DUP3 SUB DUP10 DUP8 ADD MSTORE PUSH2 0x5675 DUP3 DUP3 PUSH2 0x5126 JUMP JUMPDEST SWAP2 POP POP PUSH1 0x60 DUP1 DUP4 ADD MLOAD DUP7 DUP4 SUB DUP3 DUP9 ADD MSTORE PUSH2 0x568F DUP4 DUP3 PUSH2 0x5126 JUMP JUMPDEST SWAP3 POP POP POP PUSH1 0x80 DUP1 DUP4 ADD MLOAD DUP7 DUP4 SUB DUP3 DUP9 ADD MSTORE PUSH2 0x56AA DUP4 DUP3 PUSH2 0x5126 JUMP JUMPDEST SWAP3 POP POP POP PUSH1 0xA0 DUP1 DUP4 ADD MLOAD DUP7 DUP4 SUB DUP3 DUP9 ADD MSTORE PUSH2 0x56C5 DUP4 DUP3 PUSH2 0x5579 JUMP JUMPDEST PUSH1 0xC0 SWAP5 DUP6 ADD MLOAD ISZERO ISZERO SWAP8 SWAP1 SWAP5 ADD SWAP7 SWAP1 SWAP7 MSTORE POP POP SWAP5 DUP8 ADD SWAP5 SWAP3 POP SWAP1 DUP7 ADD SWAP1 PUSH1 0x1 ADD PUSH2 0x562F JUMP JUMPDEST PUSH1 0x0 PUSH1 0x20 DUP3 DUP5 SUB SLT ISZERO PUSH2 0x56FB JUMPI PUSH1 0x0 DUP1 REVERT JUMPDEST PUSH2 0x4C61 DUP3 PUSH2 0x518B JUMP JUMPDEST PUSH1 0x20 DUP2 MSTORE PUSH1 0x0 PUSH2 0x4C61 PUSH1 0x20 DUP4 ADD DUP5 PUSH2 0x54E8 JUMP JUMPDEST PUSH1 0x0 PUSH1 0x20 DUP1 DUP4 ADD DUP2 DUP5 MSTORE DUP1 DUP6 MLOAD DUP1 DUP4 MSTORE PUSH1 0x40 DUP7 ADD SWAP2 POP PUSH1 0x40 DUP2 PUSH1 0x5 SHL DUP8 ADD ADD SWAP3 POP DUP4 DUP8 ADD PUSH1 0x0 JUMPDEST DUP3 DUP2 LT ISZERO PUSH2 0x576C JUMPI PUSH1 0x3F NOT DUP9 DUP7 SUB ADD DUP5 MSTORE PUSH2 0x575A DUP6 DUP4 MLOAD PUSH2 0x5579 JUMP JUMPDEST SWAP5 POP SWAP3 DUP6 ADD SWAP3 SWAP1 DUP6 ADD SWAP1 PUSH1 0x1 ADD PUSH2 0x573E JUMP JUMPDEST POP SWAP3 SWAP8 SWAP7 POP POP POP POP POP POP POP JUMP JUMPDEST PUSH1 0x0 DUP1 PUSH1 0x0 PUSH1 0x60 DUP5 DUP7 SUB SLT ISZERO PUSH2 0x578E JUMPI PUSH1 0x0 DUP1 REVERT JUMPDEST DUP4 CALLDATALOAD PUSH1 0x1 PUSH1 0x1 PUSH1 0x40 SHL SUB DUP1 DUP3 GT ISZERO PUSH2 0x57A5 JUMPI PUSH1 0x0 DUP1 REVERT JUMPDEST PUSH2 0x57B1 DUP8 DUP4 DUP9 ADD PUSH2 0x5384 JUMP JUMPDEST SWAP5 POP PUSH1 0x20 DUP7 ADD CALLDATALOAD SWAP2 POP DUP1 DUP3 GT ISZERO PUSH2 0x57C7 JUMPI PUSH1 0x0 DUP1 REVERT JUMPDEST PUSH2 0x57D3 DUP8 DUP4 DUP9 ADD PUSH2 0x5384 JUMP JUMPDEST SWAP4 POP PUSH1 0x40 DUP7 ADD CALLDATALOAD SWAP2 POP DUP1 DUP3 GT ISZERO PUSH2 0x57E9 JUMPI PUSH1 0x0 DUP1 REVERT JUMPDEST POP PUSH2 0x57F6 DUP7 DUP3 DUP8 ADD PUSH2 0x5384 JUMP JUMPDEST SWAP2 POP POP SWAP3 POP SWAP3 POP SWAP3 JUMP JUMPDEST PUSH1 0x0 DUP1 PUSH1 0x0 DUP1 PUSH1 0x0 PUSH1 0xA0 DUP7 DUP9 SUB SLT ISZERO PUSH2 0x5818 JUMPI PUSH1 0x0 DUP1 REVERT JUMPDEST DUP6 CALLDATALOAD PUSH1 0x1 PUSH1 0x1 PUSH1 0x40 SHL SUB DUP1 DUP3 GT ISZERO PUSH2 0x582F JUMPI PUSH1 0x0 DUP1 REVERT JUMPDEST PUSH2 0x583B DUP10 DUP4 DUP11 ADD PUSH2 0x5384 JUMP JUMPDEST SWAP7 POP PUSH1 0x20 DUP9 ADD CALLDATALOAD SWAP6 POP PUSH1 0x40 DUP9 ADD CALLDATALOAD SWAP2 POP DUP1 DUP3 GT ISZERO PUSH2 0x5858 JUMPI PUSH1 0x0 DUP1 REVERT JUMPDEST PUSH2 0x5864 DUP10 DUP4 DUP11 ADD PUSH2 0x5384 JUMP JUMPDEST SWAP5 POP PUSH1 0x60 DUP9 ADD CALLDATALOAD SWAP2 POP DUP1 DUP3 GT ISZERO PUSH2 0x587A JUMPI PUSH1 0x0 DUP1 REVERT JUMPDEST PUSH2 0x5886 DUP10 DUP4 DUP11 ADD PUSH2 0x5384 JUMP JUMPDEST SWAP4 POP PUSH1 0x80 DUP9 ADD CALLDATALOAD SWAP2 POP DUP1 DUP3 GT ISZERO PUSH2 0x589C JUMPI PUSH1 0x0 DUP1 REVERT JUMPDEST POP PUSH2 0x58A9 DUP9 DUP3 DUP10 ADD PUSH2 0x5384 JUMP JUMPDEST SWAP2 POP POP SWAP3 SWAP6 POP SWAP3 SWAP6 SWAP1 SWAP4 POP JUMP JUMPDEST PUSH1 0x0 DUP1 PUSH1 0x40 DUP4 DUP6 SUB SLT ISZERO PUSH2 0x58C9 JUMPI PUSH1 0x0 DUP1 REVERT JUMPDEST PUSH2 0x58D2 DUP4 PUSH2 0x518B JUMP JUMPDEST SWAP2 POP PUSH2 0x58E0 PUSH1 0x20 DUP5 ADD PUSH2 0x53A4 JUMP JUMPDEST SWAP1 POP SWAP3 POP SWAP3 SWAP1 POP JUMP JUMPDEST PUSH1 0x0 DUP1 PUSH1 0x0 DUP1 PUSH1 0x0 DUP1 PUSH1 0xC0 DUP8 DUP10 SUB SLT ISZERO PUSH2 0x5902 JUMPI PUSH1 0x0 DUP1 REVERT JUMPDEST DUP7 CALLDATALOAD SWAP6 POP PUSH1 0x20 DUP8 ADD CALLDATALOAD SWAP5 POP PUSH1 0x40 DUP8 ADD CALLDATALOAD PUSH1 0x1 PUSH1 0x1 PUSH1 0x40 SHL SUB DUP1 DUP3 GT ISZERO PUSH2 0x5927 JUMPI PUSH1 0x0 DUP1 REVERT JUMPDEST PUSH2 0x5933 DUP11 DUP4 DUP12 ADD PUSH2 0x5384 JUMP JUMPDEST SWAP6 POP PUSH1 0x60 DUP10 ADD CALLDATALOAD SWAP2 POP DUP1 DUP3 GT ISZERO PUSH2 0x5949 JUMPI PUSH1 0x0 DUP1 REVERT JUMPDEST PUSH2 0x5955 DUP11 DUP4 DUP12 ADD PUSH2 0x5384 JUMP JUMPDEST SWAP5 POP PUSH2 0x5963 PUSH1 0x80 DUP11 ADD PUSH2 0x53A4 JUMP JUMPDEST SWAP4 POP PUSH1 0xA0 DUP10 ADD CALLDATALOAD SWAP2 POP DUP1 DUP3 GT ISZERO PUSH2 0x5979 JUMPI PUSH1 0x0 DUP1 REVERT JUMPDEST POP PUSH2 0x5986 DUP10 DUP3 DUP11 ADD PUSH2 0x5384 JUMP JUMPDEST SWAP2 POP POP SWAP3 SWAP6 POP SWAP3 SWAP6 POP SWAP3 SWAP6 JUMP JUMPDEST PUSH1 0x0 DUP1 PUSH1 0x0 DUP1 PUSH1 0x80 DUP6 DUP8 SUB SLT ISZERO PUSH2 0x59A9 JUMPI PUSH1 0x0 DUP1 REVERT JUMPDEST PUSH2 0x59B2 DUP6 PUSH2 0x518B JUMP JUMPDEST SWAP4 POP PUSH2 0x59C0 PUSH1 0x20 DUP7 ADD PUSH2 0x518B JUMP JUMPDEST SWAP3 POP PUSH1 0x40 DUP6 ADD CALLDATALOAD SWAP2 POP PUSH1 0x60 DUP6 ADD CALLDATALOAD PUSH1 0x1 PUSH1 0x1 PUSH1 0x40 SHL SUB DUP2 GT ISZERO PUSH2 0x59E2 JUMPI PUSH1 0x0 DUP1 REVERT JUMPDEST DUP6 ADD PUSH1 0x1F DUP2 ADD DUP8 SGT PUSH2 0x59F3 JUMPI PUSH1 0x0 DUP1 REVERT JUMPDEST PUSH2 0x5A02 DUP8 DUP3 CALLDATALOAD PUSH1 0x20 DUP5 ADD PUSH2 0x530F JUMP JUMPDEST SWAP2 POP POP SWAP3 SWAP6 SWAP2 SWAP5 POP SWAP3 POP JUMP JUMPDEST PUSH1 0x0 PUSH1 0x20 DUP1 DUP4 ADD DUP2 DUP5 MSTORE DUP1 DUP6 MLOAD DUP1 DUP4 MSTORE PUSH1 0x40 DUP7 ADD SWAP2 POP PUSH1 0x40 DUP2 PUSH1 0x5 SHL DUP8 ADD ADD SWAP3 POP DUP4 DUP8 ADD PUSH1 0x0 JUMPDEST DUP3 DUP2 LT ISZERO PUSH2 0x576C JUMPI PUSH1 0x3F NOT DUP9 DUP7 SUB ADD DUP5 MSTORE PUSH2 0x5A51 DUP6 DUP4 MLOAD PUSH2 0x54E8 JUMP JUMPDEST SWAP5 POP SWAP3 DUP6 ADD SWAP3 SWAP1 DUP6 ADD SWAP1 PUSH1 0x1 ADD PUSH2 0x5A35 JUMP JUMPDEST DUP8 DUP2 MSTORE PUSH1 0xE0 PUSH1 0x20 DUP3 ADD MSTORE PUSH1 0x0 PUSH2 0x5A7C PUSH1 0xE0 DUP4 ADD DUP10 PUSH2 0x5126 JUMP JUMPDEST DUP3 DUP2 SUB PUSH1 0x40 DUP5 ADD MSTORE PUSH2 0x5A8E DUP2 DUP10 PUSH2 0x5126 JUMP JUMPDEST SWAP1 POP DUP3 DUP2 SUB PUSH1 0x60 DUP5 ADD MSTORE PUSH2 0x5AA2 DUP2 DUP9 PUSH2 0x5126 JUMP JUMPDEST SWAP1 POP DUP3 DUP2 SUB PUSH1 0x80 DUP5 ADD MSTORE PUSH2 0x5AB6 DUP2 DUP8 PUSH2 0x5126 JUMP JUMPDEST SWAP1 POP DUP3 DUP2 SUB PUSH1 0xA0 DUP5 ADD MSTORE PUSH2 0x5ACA DUP2 DUP7 PUSH2 0x5579 JUMP JUMPDEST SWAP2 POP POP DUP3 ISZERO ISZERO PUSH1 0xC0 DUP4 ADD MSTORE SWAP9 SWAP8 POP POP POP POP POP POP POP POP JUMP JUMPDEST PUSH1 0x0 DUP1 PUSH1 0x40 DUP4 DUP6 SUB SLT ISZERO PUSH2 0x5AF4 JUMPI PUSH1 0x0 DUP1 REVERT JUMPDEST PUSH2 0x5AFD DUP4 PUSH2 0x518B JUMP JUMPDEST SWAP2 POP PUSH2 0x58E0 PUSH1 0x20 DUP5 ADD PUSH2 0x518B JUMP JUMPDEST PUSH1 0x1 DUP2 DUP2 SHR SWAP1 DUP3 AND DUP1 PUSH2 0x5B1F JUMPI PUSH1 0x7F DUP3 AND SWAP2 POP JUMPDEST PUSH1 0x20 DUP3 LT DUP2 EQ ISZERO PUSH2 0x5B40 JUMPI PUSH4 0x4E487B71 PUSH1 0xE0 SHL PUSH1 0x0 MSTORE PUSH1 0x22 PUSH1 0x4 MSTORE PUSH1 0x24 PUSH1 0x0 REVERT JUMPDEST POP SWAP2 SWAP1 POP JUMP JUMPDEST PUSH4 0x4E487B71 PUSH1 0xE0 SHL PUSH1 0x0 MSTORE PUSH1 0x11 PUSH1 0x4 MSTORE PUSH1 0x24 PUSH1 0x0 REVERT JUMPDEST PUSH1 0x0 DUP3 DUP3 LT ISZERO PUSH2 0x5B6E JUMPI PUSH2 0x5B6E PUSH2 0x5B46 JUMP JUMPDEST POP SUB SWAP1 JUMP JUMPDEST PUSH1 0x0 DUP3 NOT DUP3 GT ISZERO PUSH2 0x5B86 JUMPI PUSH2 0x5B86 PUSH2 0x5B46 JUMP JUMPDEST POP ADD SWAP1 JUMP JUMPDEST PUSH4 0x4E487B71 PUSH1 0xE0 SHL PUSH1 0x0 MSTORE PUSH1 0x32 PUSH1 0x4 MSTORE PUSH1 0x24 PUSH1 0x0 REVERT JUMPDEST PUSH1 0x0 PUSH1 0x0 NOT DUP3 EQ ISZERO PUSH2 0x5BB5 JUMPI PUSH2 0x5BB5 PUSH2 0x5B46 JUMP JUMPDEST POP PUSH1 0x1 ADD SWAP1 JUMP JUMPDEST PUSH1 0x20 DUP1 DUP3 MSTORE PUSH1 0x2E SWAP1 DUP3 ADD MSTORE PUSH32 0x4552433732313A2063616C6C6572206973206E6F7420746F6B656E206F776E65 PUSH1 0x40 DUP3 ADD MSTORE PUSH14 0x1C881B9BDC88185C1C1C9BDD9959 PUSH1 0x92 SHL PUSH1 0x60 DUP3 ADD MSTORE PUSH1 0x80 ADD SWAP1 JUMP JUMPDEST PUSH1 0x20 DUP1 DUP3 MSTORE PUSH1 0x18 SWAP1 DUP3 ADD MSTORE PUSH24 0x115490CDCC8C4E881A5B9D985B1A59081D1BDAD95B881251 PUSH1 0x42 SHL PUSH1 0x40 DUP3 ADD MSTORE PUSH1 0x60 ADD SWAP1 JUMP JUMPDEST DUP1 MLOAD PUSH1 0x1 PUSH1 0x1 PUSH1 0x50 SHL SUB DUP2 AND DUP2 EQ PUSH2 0x51A2 JUMPI PUSH1 0x0 DUP1 REVERT JUMPDEST PUSH1 0x0 DUP1 PUSH1 0x0 DUP1 PUSH1 0x0 PUSH1 0xA0 DUP7 DUP9 SUB SLT ISZERO PUSH2 0x5C6B JUMPI PUSH1 0x0 DUP1 REVERT JUMPDEST PUSH2 0x5C74 DUP7 PUSH2 0x5C3C JUMP JUMPDEST SWAP5 POP PUSH1 0x20 DUP7 ADD MLOAD SWAP4 POP PUSH1 0x40 DUP7 ADD MLOAD SWAP3 POP PUSH1 0x60 DUP7 ADD MLOAD SWAP2 POP PUSH2 0x5465 PUSH1 0x80 DUP8 ADD PUSH2 0x5C3C JUMP JUMPDEST PUSH1 0x0 DUP4 MLOAD PUSH2 0x5CA9 DUP2 DUP5 PUSH1 0x20 DUP9 ADD PUSH2 0x50FA JUMP JUMPDEST DUP4 MLOAD SWAP1 DUP4 ADD SWAP1 PUSH2 0x5CBD DUP2 DUP4 PUSH1 0x20 DUP9 ADD PUSH2 0x50FA JUMP JUMPDEST ADD SWAP5 SWAP4 POP POP POP POP JUMP JUMPDEST PUSH1 0x20 DUP1 DUP3 MSTORE PUSH1 0x32 SWAP1 DUP3 ADD MSTORE PUSH32 0x4552433732313A207472616E7366657220746F206E6F6E204552433732315265 PUSH1 0x40 DUP3 ADD MSTORE PUSH18 0x31B2B4BB32B91034B6B83632B6B2B73A32B9 PUSH1 0x71 SHL PUSH1 0x60 DUP3 ADD MSTORE PUSH1 0x80 ADD SWAP1 JUMP JUMPDEST PUSH1 0x1 PUSH1 0x1 PUSH1 0xA0 SHL SUB DUP6 DUP2 AND DUP3 MSTORE DUP5 AND PUSH1 0x20 DUP3 ADD MSTORE PUSH1 0x40 DUP2 ADD DUP4 SWAP1 MSTORE PUSH1 0x80 PUSH1 0x60 DUP3 ADD DUP2 SWAP1 MSTORE PUSH1 0x0 SWAP1 PUSH2 0x2AE0 SWAP1 DUP4 ADD DUP5 PUSH2 0x5126 JUMP JUMPDEST PUSH1 0x0 PUSH1 0x20 DUP3 DUP5 SUB SLT ISZERO PUSH2 0x5D5D JUMPI PUSH1 0x0 DUP1 REVERT JUMPDEST DUP2 MLOAD PUSH2 0x4C61 DUP2 PUSH2 0x50C7 JUMP JUMPDEST PUSH4 0x4E487B71 PUSH1 0xE0 SHL PUSH1 0x0 MSTORE PUSH1 0x12 PUSH1 0x4 MSTORE PUSH1 0x24 PUSH1 0x0 REVERT JUMPDEST PUSH1 0x0 DUP3 PUSH2 0x5D8D JUMPI PUSH2 0x5D8D PUSH2 0x5D68 JUMP JUMPDEST POP DIV SWAP1 JUMP JUMPDEST PUSH1 0x0 DUP3 PUSH2 0x5DA1 JUMPI PUSH2 0x5DA1 PUSH2 0x5D68 JUMP JUMPDEST POP MOD SWAP1 JUMP INVALID 0xDD CALLCODE MSTORE 0xAD SHL 0xE2 0xC8 SWAP12 PUSH10 0xC2B068FC378DAA952BA7 CALL PUSH4 0xC4A11628 CREATE2 GAS 0x4D CREATE2 0x23 0xB3 0xEF LOG2 PUSH5 0x6970667358 0x22 SLT KECCAK256 0x2B 0xAB DUP14 LT DUP8 MSTORE 0x4A LOG0 0xC1 LOG0 0xD5 DUP10 0x4F 0xD7 ADD 0xD3 0x5F PUSH16 0x165D626FE29464B754CC7B298C126473 PUSH16 0x6C634300080900330000000000000000 "},"methodIdentifiers":{"UserAlbumCount(address)":"7ff97188","UserMusicCount(address,uint256)":"d5c25f19","addArt(uint256,uint256,string,string,bool,string)":"b756a20d","album(uint256)":"e89e6a00","approve(address,uint256)":"095ea7b3","artist(uint256)":"4b1b7b84","artistSingle(address)":"ec7fe52d","balanceOf(address)":"70a08231","createAlbum(string,string,string,string,bool)":"421bac1a","createMarketSale(uint256)":"be9af536","createProfile(string,string,string)":"9841c82c","createToken(string,uint256,string,string,string)":"9e0d2da8","fetchAllUsers()":"c3374315","fetchItemsListed()":"45f8fa80","fetchMarketItems()":"0f08efe0","getAlbums()":"5c517234","getApproved(uint256)":"081812fc","getArt(uint256)":"8c4796c7","getEthUsd()":"bb27e0ce","getListingPrice()":"12e85585","getSingleUser()":"8865ba66","getUserAlbums()":"fcefc5db","isApprovedForAll(address,address)":"e985e9c5","isRegistered(address)":"c3c5a547","isRegisteredFunc()":"4869f631","name()":"06fdde03","ownerOf(uint256)":"6352211e","safeTransferFrom(address,address,uint256)":"42842e0e","safeTransferFrom(address,address,uint256,bytes)":"b88d4fde","setApprovalForAll(address,bool)":"a22cb465","setRegistered()":"49f0c1e5","supportsInterface(bytes4)":"01ffc9a7","symbol()":"95d89b41","tipUser(uint256)":"d1d8a068","tipUserSpace(address)":"cb0df56c","tokenURI(uint256)":"c87b56dd","transferFrom(address,address,uint256)":"23b872dd","updateListingPrice(uint256)":"ae677aa3"}}}}}