{
  "_format": "hh-sol-artifact-1",
  "contractName": "Donation",
  "sourceName": "contracts/Lock.sol",
  "abi": [
    {
      "inputs": [
        {
          "internalType": "address",
          "name": "companyaddress_",
          "type": "address"
        }
      ],
      "stateMutability": "nonpayable",
      "type": "constructor"
    },
    {
      "anonymous": false,
      "inputs": [
        {
          "indexed": false,
          "internalType": "uint256",
          "name": "_id",
          "type": "uint256"
        },
        {
          "indexed": false,
          "internalType": "address",
          "name": "_owner",
          "type": "address"
        },
        {
          "indexed": false,
          "internalType": "uint256",
          "name": "donersCount",
          "type": "uint256"
        },
        {
          "indexed": false,
          "internalType": "uint256",
          "name": "donationsRaised",
          "type": "uint256"
        },
        {
          "indexed": false,
          "internalType": "uint256",
          "name": "startDate",
          "type": "uint256"
        },
        {
          "indexed": false,
          "internalType": "uint256",
          "name": "endDate",
          "type": "uint256"
        },
        {
          "indexed": false,
          "internalType": "uint256",
          "name": "targetedAmount",
          "type": "uint256"
        },
        {
          "indexed": false,
          "internalType": "string",
          "name": "category",
          "type": "string"
        },
        {
          "indexed": false,
          "internalType": "string",
          "name": "title",
          "type": "string"
        },
        {
          "indexed": false,
          "internalType": "string",
          "name": "hash",
          "type": "string"
        },
        {
          "indexed": false,
          "internalType": "string",
          "name": "purpose",
          "type": "string"
        },
        {
          "indexed": false,
          "internalType": "string",
          "name": "description",
          "type": "string"
        }
      ],
      "name": "DonationAdded",
      "type": "event"
    },
    {
      "inputs": [
        {
          "internalType": "uint256",
          "name": "_id",
          "type": "uint256"
        }
      ],
      "name": "addDonation",
      "outputs": [],
      "stateMutability": "payable",
      "type": "function"
    },
    {
      "inputs": [],
      "name": "amountRaised",
      "outputs": [
        {
          "internalType": "uint256",
          "name": "",
          "type": "uint256"
        }
      ],
      "stateMutability": "view",
      "type": "function"
    },
    {
      "inputs": [
        {
          "internalType": "uint256",
          "name": "_id",
          "type": "uint256"
        }
      ],
      "name": "approveDonation",
      "outputs": [],
      "stateMutability": "nonpayable",
      "type": "function"
    },
    {
      "inputs": [
        {
          "components": [
            {
              "internalType": "uint256",
              "name": "id",
              "type": "uint256"
            },
            {
              "internalType": "address payable",
              "name": "owner",
              "type": "address"
            },
            {
              "components": [
                {
                  "internalType": "uint256",
                  "name": "id",
                  "type": "uint256"
                },
                {
                  "internalType": "address",
                  "name": "_address",
                  "type": "address"
                },
                {
                  "internalType": "string",
                  "name": "userType",
                  "type": "string"
                },
                {
                  "internalType": "string",
                  "name": "country",
                  "type": "string"
                },
                {
                  "internalType": "string",
                  "name": "city",
                  "type": "string"
                },
                {
                  "internalType": "string",
                  "name": "email",
                  "type": "string"
                },
                {
                  "internalType": "string",
                  "name": "residenceAddress",
                  "type": "string"
                },
                {
                  "internalType": "bool",
                  "name": "isRegistered",
                  "type": "bool"
                },
                {
                  "internalType": "string",
                  "name": "website",
                  "type": "string"
                },
                {
                  "internalType": "string",
                  "name": "facebookUrl",
                  "type": "string"
                },
                {
                  "internalType": "string",
                  "name": "twitterUrl",
                  "type": "string"
                },
                {
                  "internalType": "string",
                  "name": "instagramUrl",
                  "type": "string"
                },
                {
                  "internalType": "string",
                  "name": "youtubeUrl",
                  "type": "string"
                },
                {
                  "internalType": "string",
                  "name": "hash",
                  "type": "string"
                }
              ],
              "internalType": "struct Donation.User",
              "name": "user",
              "type": "tuple"
            },
            {
              "internalType": "uint256",
              "name": "donersCount",
              "type": "uint256"
            },
            {
              "internalType": "uint256",
              "name": "donationsRaised",
              "type": "uint256"
            },
            {
              "internalType": "uint256",
              "name": "startDate",
              "type": "uint256"
            },
            {
              "internalType": "uint256",
              "name": "endDate",
              "type": "uint256"
            },
            {
              "internalType": "uint256",
              "name": "targetedAmount",
              "type": "uint256"
            },
            {
              "internalType": "string",
              "name": "category",
              "type": "string"
            },
            {
              "internalType": "string",
              "name": "title",
              "type": "string"
            },
            {
              "internalType": "string",
              "name": "hash",
              "type": "string"
            },
            {
              "internalType": "string",
              "name": "purpose",
              "type": "string"
            },
            {
              "internalType": "string",
              "name": "description",
              "type": "string"
            },
            {
              "components": [
                {
                  "internalType": "bool",
                  "name": "completed",
                  "type": "bool"
                },
                {
                  "internalType": "bool",
                  "name": "isPinned",
                  "type": "bool"
                },
                {
                  "internalType": "uint256",
                  "name": "pinnedDuration",
                  "type": "uint256"
                },
                {
                  "internalType": "uint256",
                  "name": "pinnedEndDate",
                  "type": "uint256"
                },
                {
                  "internalType": "bool",
                  "name": "isVisible",
                  "type": "bool"
                },
                {
                  "internalType": "bool",
                  "name": "isApproved",
                  "type": "bool"
                },
                {
                  "internalType": "uint256",
                  "name": "approvedDate",
                  "type": "uint256"
                },
                {
                  "internalType": "bool",
                  "name": "isRejected",
                  "type": "bool"
                }
              ],
              "internalType": "struct Donation.DonationStatus",
              "name": "donationstatus",
              "type": "tuple"
            }
          ],
          "internalType": "struct Donation.DonationItem",
          "name": "donation_",
          "type": "tuple"
        },
        {
          "internalType": "uint256",
          "name": "id_",
          "type": "uint256"
        }
      ],
      "name": "createDonation",
      "outputs": [],
      "stateMutability": "payable",
      "type": "function"
    },
    {
      "inputs": [
        {
          "internalType": "uint256",
          "name": "_id",
          "type": "uint256"
        }
      ],
      "name": "disablePinnedDonation",
      "outputs": [],
      "stateMutability": "nonpayable",
      "type": "function"
    },
    {
      "inputs": [],
      "name": "donationCount",
      "outputs": [
        {
          "internalType": "uint256",
          "name": "",
          "type": "uint256"
        }
      ],
      "stateMutability": "view",
      "type": "function"
    },
    {
      "inputs": [
        {
          "internalType": "uint256",
          "name": "",
          "type": "uint256"
        },
        {
          "internalType": "uint256",
          "name": "",
          "type": "uint256"
        }
      ],
      "name": "doners",
      "outputs": [
        {
          "internalType": "uint256",
          "name": "id",
          "type": "uint256"
        },
        {
          "internalType": "uint256",
          "name": "amount",
          "type": "uint256"
        },
        {
          "internalType": "uint256",
          "name": "date",
          "type": "uint256"
        },
        {
          "internalType": "address",
          "name": "doner",
          "type": "address"
        }
      ],
      "stateMutability": "view",
      "type": "function"
    },
    {
      "inputs": [],
      "name": "donersCount",
      "outputs": [
        {
          "internalType": "uint256",
          "name": "",
          "type": "uint256"
        }
      ],
      "stateMutability": "view",
      "type": "function"
    },
    {
      "inputs": [],
      "name": "fetchAllDonationItems",
      "outputs": [
        {
          "components": [
            {
              "internalType": "uint256",
              "name": "id",
              "type": "uint256"
            },
            {
              "internalType": "address payable",
              "name": "owner",
              "type": "address"
            },
            {
              "components": [
                {
                  "internalType": "uint256",
                  "name": "id",
                  "type": "uint256"
                },
                {
                  "internalType": "address",
                  "name": "_address",
                  "type": "address"
                },
                {
                  "internalType": "string",
                  "name": "userType",
                  "type": "string"
                },
                {
                  "internalType": "string",
                  "name": "country",
                  "type": "string"
                },
                {
                  "internalType": "string",
                  "name": "city",
                  "type": "string"
                },
                {
                  "internalType": "string",
                  "name": "email",
                  "type": "string"
                },
                {
                  "internalType": "string",
                  "name": "residenceAddress",
                  "type": "string"
                },
                {
                  "internalType": "bool",
                  "name": "isRegistered",
                  "type": "bool"
                },
                {
                  "internalType": "string",
                  "name": "website",
                  "type": "string"
                },
                {
                  "internalType": "string",
                  "name": "facebookUrl",
                  "type": "string"
                },
                {
                  "internalType": "string",
                  "name": "twitterUrl",
                  "type": "string"
                },
                {
                  "internalType": "string",
                  "name": "instagramUrl",
                  "type": "string"
                },
                {
                  "internalType": "string",
                  "name": "youtubeUrl",
                  "type": "string"
                },
                {
                  "internalType": "string",
                  "name": "hash",
                  "type": "string"
                }
              ],
              "internalType": "struct Donation.User",
              "name": "user",
              "type": "tuple"
            },
            {
              "internalType": "uint256",
              "name": "donersCount",
              "type": "uint256"
            },
            {
              "internalType": "uint256",
              "name": "donationsRaised",
              "type": "uint256"
            },
            {
              "internalType": "uint256",
              "name": "startDate",
              "type": "uint256"
            },
            {
              "internalType": "uint256",
              "name": "endDate",
              "type": "uint256"
            },
            {
              "internalType": "uint256",
              "name": "targetedAmount",
              "type": "uint256"
            },
            {
              "internalType": "string",
              "name": "category",
              "type": "string"
            },
            {
              "internalType": "string",
              "name": "title",
              "type": "string"
            },
            {
              "internalType": "string",
              "name": "hash",
              "type": "string"
            },
            {
              "internalType": "string",
              "name": "purpose",
              "type": "string"
            },
            {
              "internalType": "string",
              "name": "description",
              "type": "string"
            },
            {
              "components": [
                {
                  "internalType": "bool",
                  "name": "completed",
                  "type": "bool"
                },
                {
                  "internalType": "bool",
                  "name": "isPinned",
                  "type": "bool"
                },
                {
                  "internalType": "uint256",
                  "name": "pinnedDuration",
                  "type": "uint256"
                },
                {
                  "internalType": "uint256",
                  "name": "pinnedEndDate",
                  "type": "uint256"
                },
                {
                  "internalType": "bool",
                  "name": "isVisible",
                  "type": "bool"
                },
                {
                  "internalType": "bool",
                  "name": "isApproved",
                  "type": "bool"
                },
                {
                  "internalType": "uint256",
                  "name": "approvedDate",
                  "type": "uint256"
                },
                {
                  "internalType": "bool",
                  "name": "isRejected",
                  "type": "bool"
                }
              ],
              "internalType": "struct Donation.DonationStatus",
              "name": "donationstatus",
              "type": "tuple"
            }
          ],
          "internalType": "struct Donation.DonationItem[]",
          "name": "",
          "type": "tuple[]"
        }
      ],
      "stateMutability": "view",
      "type": "function"
    },
    {
      "inputs": [],
      "name": "fetchAllUsers",
      "outputs": [
        {
          "components": [
            {
              "internalType": "uint256",
              "name": "id",
              "type": "uint256"
            },
            {
              "internalType": "address",
              "name": "_address",
              "type": "address"
            },
            {
              "internalType": "string",
              "name": "userType",
              "type": "string"
            },
            {
              "internalType": "string",
              "name": "country",
              "type": "string"
            },
            {
              "internalType": "string",
              "name": "city",
              "type": "string"
            },
            {
              "internalType": "string",
              "name": "email",
              "type": "string"
            },
            {
              "internalType": "string",
              "name": "residenceAddress",
              "type": "string"
            },
            {
              "internalType": "bool",
              "name": "isRegistered",
              "type": "bool"
            },
            {
              "internalType": "string",
              "name": "website",
              "type": "string"
            },
            {
              "internalType": "string",
              "name": "facebookUrl",
              "type": "string"
            },
            {
              "internalType": "string",
              "name": "twitterUrl",
              "type": "string"
            },
            {
              "internalType": "string",
              "name": "instagramUrl",
              "type": "string"
            },
            {
              "internalType": "string",
              "name": "youtubeUrl",
              "type": "string"
            },
            {
              "internalType": "string",
              "name": "hash",
              "type": "string"
            }
          ],
          "internalType": "struct Donation.User[]",
          "name": "",
          "type": "tuple[]"
        }
      ],
      "stateMutability": "view",
      "type": "function"
    },
    {
      "inputs": [
        {
          "internalType": "uint256",
          "name": "_id",
          "type": "uint256"
        }
      ],
      "name": "getDonation",
      "outputs": [
        {
          "components": [
            {
              "internalType": "uint256",
              "name": "id",
              "type": "uint256"
            },
            {
              "internalType": "address payable",
              "name": "owner",
              "type": "address"
            },
            {
              "components": [
                {
                  "internalType": "uint256",
                  "name": "id",
                  "type": "uint256"
                },
                {
                  "internalType": "address",
                  "name": "_address",
                  "type": "address"
                },
                {
                  "internalType": "string",
                  "name": "userType",
                  "type": "string"
                },
                {
                  "internalType": "string",
                  "name": "country",
                  "type": "string"
                },
                {
                  "internalType": "string",
                  "name": "city",
                  "type": "string"
                },
                {
                  "internalType": "string",
                  "name": "email",
                  "type": "string"
                },
                {
                  "internalType": "string",
                  "name": "residenceAddress",
                  "type": "string"
                },
                {
                  "internalType": "bool",
                  "name": "isRegistered",
                  "type": "bool"
                },
                {
                  "internalType": "string",
                  "name": "website",
                  "type": "string"
                },
                {
                  "internalType": "string",
                  "name": "facebookUrl",
                  "type": "string"
                },
                {
                  "internalType": "string",
                  "name": "twitterUrl",
                  "type": "string"
                },
                {
                  "internalType": "string",
                  "name": "instagramUrl",
                  "type": "string"
                },
                {
                  "internalType": "string",
                  "name": "youtubeUrl",
                  "type": "string"
                },
                {
                  "internalType": "string",
                  "name": "hash",
                  "type": "string"
                }
              ],
              "internalType": "struct Donation.User",
              "name": "user",
              "type": "tuple"
            },
            {
              "internalType": "uint256",
              "name": "donersCount",
              "type": "uint256"
            },
            {
              "internalType": "uint256",
              "name": "donationsRaised",
              "type": "uint256"
            },
            {
              "internalType": "uint256",
              "name": "startDate",
              "type": "uint256"
            },
            {
              "internalType": "uint256",
              "name": "endDate",
              "type": "uint256"
            },
            {
              "internalType": "uint256",
              "name": "targetedAmount",
              "type": "uint256"
            },
            {
              "internalType": "string",
              "name": "category",
              "type": "string"
            },
            {
              "internalType": "string",
              "name": "title",
              "type": "string"
            },
            {
              "internalType": "string",
              "name": "hash",
              "type": "string"
            },
            {
              "internalType": "string",
              "name": "purpose",
              "type": "string"
            },
            {
              "internalType": "string",
              "name": "description",
              "type": "string"
            },
            {
              "components": [
                {
                  "internalType": "bool",
                  "name": "completed",
                  "type": "bool"
                },
                {
                  "internalType": "bool",
                  "name": "isPinned",
                  "type": "bool"
                },
                {
                  "internalType": "uint256",
                  "name": "pinnedDuration",
                  "type": "uint256"
                },
                {
                  "internalType": "uint256",
                  "name": "pinnedEndDate",
                  "type": "uint256"
                },
                {
                  "internalType": "bool",
                  "name": "isVisible",
                  "type": "bool"
                },
                {
                  "internalType": "bool",
                  "name": "isApproved",
                  "type": "bool"
                },
                {
                  "internalType": "uint256",
                  "name": "approvedDate",
                  "type": "uint256"
                },
                {
                  "internalType": "bool",
                  "name": "isRejected",
                  "type": "bool"
                }
              ],
              "internalType": "struct Donation.DonationStatus",
              "name": "donationstatus",
              "type": "tuple"
            }
          ],
          "internalType": "struct Donation.DonationItem",
          "name": "",
          "type": "tuple"
        }
      ],
      "stateMutability": "view",
      "type": "function"
    },
    {
      "inputs": [
        {
          "internalType": "uint256",
          "name": "_id",
          "type": "uint256"
        }
      ],
      "name": "getDonersOfDonation",
      "outputs": [
        {
          "components": [
            {
              "internalType": "uint256",
              "name": "id",
              "type": "uint256"
            },
            {
              "internalType": "uint256",
              "name": "amount",
              "type": "uint256"
            },
            {
              "internalType": "uint256",
              "name": "date",
              "type": "uint256"
            },
            {
              "internalType": "address",
              "name": "doner",
              "type": "address"
            }
          ],
          "internalType": "struct Donation.Doners[]",
          "name": "",
          "type": "tuple[]"
        }
      ],
      "stateMutability": "view",
      "type": "function"
    },
    {
      "inputs": [],
      "name": "getEthUsd",
      "outputs": [
        {
          "internalType": "uint256",
          "name": "",
          "type": "uint256"
        }
      ],
      "stateMutability": "view",
      "type": "function"
    },
    {
      "inputs": [
        {
          "internalType": "uint256",
          "name": "",
          "type": "uint256"
        }
      ],
      "name": "idToDonationItem",
      "outputs": [
        {
          "internalType": "uint256",
          "name": "id",
          "type": "uint256"
        },
        {
          "internalType": "address payable",
          "name": "owner",
          "type": "address"
        },
        {
          "components": [
            {
              "internalType": "uint256",
              "name": "id",
              "type": "uint256"
            },
            {
              "internalType": "address",
              "name": "_address",
              "type": "address"
            },
            {
              "internalType": "string",
              "name": "userType",
              "type": "string"
            },
            {
              "internalType": "string",
              "name": "country",
              "type": "string"
            },
            {
              "internalType": "string",
              "name": "city",
              "type": "string"
            },
            {
              "internalType": "string",
              "name": "email",
              "type": "string"
            },
            {
              "internalType": "string",
              "name": "residenceAddress",
              "type": "string"
            },
            {
              "internalType": "bool",
              "name": "isRegistered",
              "type": "bool"
            },
            {
              "internalType": "string",
              "name": "website",
              "type": "string"
            },
            {
              "internalType": "string",
              "name": "facebookUrl",
              "type": "string"
            },
            {
              "internalType": "string",
              "name": "twitterUrl",
              "type": "string"
            },
            {
              "internalType": "string",
              "name": "instagramUrl",
              "type": "string"
            },
            {
              "internalType": "string",
              "name": "youtubeUrl",
              "type": "string"
            },
            {
              "internalType": "string",
              "name": "hash",
              "type": "string"
            }
          ],
          "internalType": "struct Donation.User",
          "name": "user",
          "type": "tuple"
        },
        {
          "internalType": "uint256",
          "name": "donersCount",
          "type": "uint256"
        },
        {
          "internalType": "uint256",
          "name": "donationsRaised",
          "type": "uint256"
        },
        {
          "internalType": "uint256",
          "name": "startDate",
          "type": "uint256"
        },
        {
          "internalType": "uint256",
          "name": "endDate",
          "type": "uint256"
        },
        {
          "internalType": "uint256",
          "name": "targetedAmount",
          "type": "uint256"
        },
        {
          "internalType": "string",
          "name": "category",
          "type": "string"
        },
        {
          "internalType": "string",
          "name": "title",
          "type": "string"
        },
        {
          "internalType": "string",
          "name": "hash",
          "type": "string"
        },
        {
          "internalType": "string",
          "name": "purpose",
          "type": "string"
        },
        {
          "internalType": "string",
          "name": "description",
          "type": "string"
        },
        {
          "components": [
            {
              "internalType": "bool",
              "name": "completed",
              "type": "bool"
            },
            {
              "internalType": "bool",
              "name": "isPinned",
              "type": "bool"
            },
            {
              "internalType": "uint256",
              "name": "pinnedDuration",
              "type": "uint256"
            },
            {
              "internalType": "uint256",
              "name": "pinnedEndDate",
              "type": "uint256"
            },
            {
              "internalType": "bool",
              "name": "isVisible",
              "type": "bool"
            },
            {
              "internalType": "bool",
              "name": "isApproved",
              "type": "bool"
            },
            {
              "internalType": "uint256",
              "name": "approvedDate",
              "type": "uint256"
            },
            {
              "internalType": "bool",
              "name": "isRejected",
              "type": "bool"
            }
          ],
          "internalType": "struct Donation.DonationStatus",
          "name": "donationstatus",
          "type": "tuple"
        }
      ],
      "stateMutability": "view",
      "type": "function"
    },
    {
      "inputs": [],
      "name": "isUserRegistered",
      "outputs": [
        {
          "components": [
            {
              "internalType": "bool",
              "name": "status",
              "type": "bool"
            },
            {
              "internalType": "string",
              "name": "userType",
              "type": "string"
            },
            {
              "internalType": "uint256",
              "name": "id",
              "type": "uint256"
            }
          ],
          "internalType": "struct Donation.IsRegistered",
          "name": "",
          "type": "tuple"
        }
      ],
      "stateMutability": "view",
      "type": "function"
    },
    {
      "inputs": [
        {
          "internalType": "uint256",
          "name": "_id",
          "type": "uint256"
        },
        {
          "internalType": "uint256",
          "name": "_duration",
          "type": "uint256"
        },
        {
          "internalType": "uint256",
          "name": "_pinnedEndDate",
          "type": "uint256"
        }
      ],
      "name": "pinDonation",
      "outputs": [],
      "stateMutability": "payable",
      "type": "function"
    },
    {
      "inputs": [
        {
          "internalType": "address",
          "name": "",
          "type": "address"
        }
      ],
      "name": "registeredUsers",
      "outputs": [
        {
          "internalType": "bool",
          "name": "status",
          "type": "bool"
        },
        {
          "internalType": "string",
          "name": "userType",
          "type": "string"
        },
        {
          "internalType": "uint256",
          "name": "id",
          "type": "uint256"
        }
      ],
      "stateMutability": "view",
      "type": "function"
    },
    {
      "inputs": [
        {
          "internalType": "uint256",
          "name": "_id",
          "type": "uint256"
        }
      ],
      "name": "rejectDonation",
      "outputs": [],
      "stateMutability": "nonpayable",
      "type": "function"
    },
    {
      "inputs": [
        {
          "internalType": "uint256",
          "name": "",
          "type": "uint256"
        }
      ],
      "name": "users",
      "outputs": [
        {
          "internalType": "uint256",
          "name": "id",
          "type": "uint256"
        },
        {
          "internalType": "address",
          "name": "_address",
          "type": "address"
        },
        {
          "internalType": "string",
          "name": "userType",
          "type": "string"
        },
        {
          "internalType": "string",
          "name": "country",
          "type": "string"
        },
        {
          "internalType": "string",
          "name": "city",
          "type": "string"
        },
        {
          "internalType": "string",
          "name": "email",
          "type": "string"
        },
        {
          "internalType": "string",
          "name": "residenceAddress",
          "type": "string"
        },
        {
          "internalType": "bool",
          "name": "isRegistered",
          "type": "bool"
        },
        {
          "internalType": "string",
          "name": "website",
          "type": "string"
        },
        {
          "internalType": "string",
          "name": "facebookUrl",
          "type": "string"
        },
        {
          "internalType": "string",
          "name": "twitterUrl",
          "type": "string"
        },
        {
          "internalType": "string",
          "name": "instagramUrl",
          "type": "string"
        },
        {
          "internalType": "string",
          "name": "youtubeUrl",
          "type": "string"
        },
        {
          "internalType": "string",
          "name": "hash",
          "type": "string"
        }
      ],
      "stateMutability": "view",
      "type": "function"
    },
    {
      "inputs": [],
      "name": "usersCount",
      "outputs": [
        {
          "internalType": "uint256",
          "name": "",
          "type": "uint256"
        }
      ],
      "stateMutability": "view",
      "type": "function"
    }
  ],
  "bytecode": "0x60806040523480156200001157600080fd5b5060405162005d2e38038062005d2e833981016040819052620000349162000077565b600580546001600160a01b039092166001600160a01b031992831617905560008054909116739326bfa02add2366b30bacb125260af641031331179055620000a9565b6000602082840312156200008a57600080fd5b81516001600160a01b0381168114620000a257600080fd5b9392505050565b615c7580620000b96000396000f3fe6080604052600436106100ef5760003560e01c80630e50cee5146100f45780632abfab4d1461012c57806332536a5314610150578063365b98b2146101655780633776eac61461019f5780633f27607d146101c157806343ae959c146101fb57806351c7bd4b14610211578063568fefbf146102315780635fc2a547146102af5780636ba13a82146102dc5780637b3e5e7b146102f2578063873138f314610308578063bb27e0ce1461032a578063c33743151461033f578063c69f34a314610361578063c6e251a914610381578063cac83cb114610394578063d8251a14146103b4578063ef07a81f146103c7575b600080fd5b34801561010057600080fd5b5061011461010f366004614d5a565b6103f4565b60405161012393929190614dc4565b60405180910390f35b34801561013857600080fd5b5061014260075481565b604051908152602001610123565b61016361015e366004614def565b6104a3565b005b34801561017157600080fd5b50610185610180366004614e1b565b6108e6565b6040516101239e9d9c9b9a99989796959493929190614e41565b3480156101ab57600080fd5b506101b4610f36565b604051610123919061521c565b3480156101cd57600080fd5b506101e16101dc366004614e1b565b611a3a565b6040516101239e9d9c9b9a9998979695949392919061527e565b34801561020757600080fd5b5061014260065481565b34801561021d57600080fd5b5061016361022c366004614e1b565b61243d565b34801561023d57600080fd5b5061028661024c36600461534f565b600260208181526000938452604080852090915291835291208054600182015492820154600390920154909291906001600160a01b031684565b604080519485526020850193909352918301526001600160a01b03166060820152608001610123565b3480156102bb57600080fd5b506102cf6102ca366004614e1b565b6127ce565b6040516101239190615371565b3480156102e857600080fd5b5061014260085481565b3480156102fe57600080fd5b5061014260095481565b34801561031457600080fd5b5061031d61291a565b60405161012391906153de565b34801561033657600080fd5b50610142612a60565b34801561034b57600080fd5b50610354612af2565b604051610123919061541c565b34801561036d57600080fd5b5061016361037c366004614e1b565b613240565b61016361038f3660046157f2565b61333d565b3480156103a057600080fd5b506101636103af366004614e1b565b613975565b6101636103c2366004614e1b565b613a10565b3480156103d357600080fd5b506103e76103e2366004614e1b565b61400b565b6040516101239190615989565b6004602052600090815260409020805460018201805460ff909216929161041a9061599c565b80601f01602080910402602001604051908101604052809291908181526020018280546104469061599c565b80156104935780601f1061046857610100808354040283529160200191610493565b820191906000526020600020905b81548152906001019060200180831161047657829003601f168201915b5050505050908060020154905083565b6000831180156104b557506007548311155b6104da5760405162461bcd60e51b81526004016104d1906159d7565b60405180910390fd5b6000838152600160205260409020601a810154610100900460ff16156104ff57600080fd5b601d81015460ff61010090910416151560011461051b57600080fd5b601c810154421161052b57600080fd5b6005546040516001600160a01b039091169081903480156108fc02916000818181858888f19350505050158015610566573d6000803e3d6000fd5b50601b8201849055601c8201839055601a8201805461ff0019166101001790556000858152600160208190526040909120835481558184015491810180546001600160a01b03199081166001600160a01b03948516179091556002808601805491840191825560038088015490850180549094169516949094179091556004808601805487959392850191906105fb9061599c565b610606929190614aeb565b50600382018160030190805461061b9061599c565b610626929190614aeb565b50600482018160040190805461063b9061599c565b610646929190614aeb565b50600582018160050190805461065b9061599c565b610666929190614aeb565b50600682018160060190805461067b9061599c565b610686929190614aeb565b50600782810154908201805460ff191660ff909216151591909117905560088083018054918301916106b79061599c565b6106c2929190614aeb565b5060098201816009019080546106d79061599c565b6106e2929190614aeb565b50600a820181600a019080546106f79061599c565b610702929190614aeb565b50600b820181600b019080546107179061599c565b610722929190614aeb565b50600c820181600c019080546107379061599c565b610742929190614aeb565b50600d820181600d019080546107579061599c565b610762929190614aeb565b505050601082015481601001556011820154816011015560128201548160120155601382015481601301556014820154816014015560158201816015019080546107ab9061599c565b6107b6929190614aeb565b5060168201816016019080546107cb9061599c565b6107d6929190614aeb565b5060178201816017019080546107eb9061599c565b6107f6929190614aeb565b50601882018160180190805461080b9061599c565b610816929190614aeb565b50601982018160190190805461082b9061599c565b610836929190614aeb565b50601a8281018054918301805460ff938416151560ff198083168217845593546101009081900486161515810261ff001992831661ffff199485161717909355601b8088015490870155601c8088015490870155601d808801805491880180549288161515838816811782559154869004881615159095029216921691909117179055601e8085015490840155601f93840154939092018054939091161515929091169190911790555050505050565b60036020526000908152604090208054600182015460028301805492936001600160a01b03909216926109189061599c565b80601f01602080910402602001604051908101604052809291908181526020018280546109449061599c565b80156109915780601f1061096657610100808354040283529160200191610991565b820191906000526020600020905b81548152906001019060200180831161097457829003601f168201915b5050505050908060030180546109a69061599c565b80601f01602080910402602001604051908101604052809291908181526020018280546109d29061599c565b8015610a1f5780601f106109f457610100808354040283529160200191610a1f565b820191906000526020600020905b815481529060010190602001808311610a0257829003601f168201915b505050505090806004018054610a349061599c565b80601f0160208091040260200160405190810160405280929190818152602001828054610a609061599c565b8015610aad5780601f10610a8257610100808354040283529160200191610aad565b820191906000526020600020905b815481529060010190602001808311610a9057829003601f168201915b505050505090806005018054610ac29061599c565b80601f0160208091040260200160405190810160405280929190818152602001828054610aee9061599c565b8015610b3b5780601f10610b1057610100808354040283529160200191610b3b565b820191906000526020600020905b815481529060010190602001808311610b1e57829003601f168201915b505050505090806006018054610b509061599c565b80601f0160208091040260200160405190810160405280929190818152602001828054610b7c9061599c565b8015610bc95780601f10610b9e57610100808354040283529160200191610bc9565b820191906000526020600020905b815481529060010190602001808311610bac57829003601f168201915b5050506007840154600885018054949560ff909216949193509150610bed9061599c565b80601f0160208091040260200160405190810160405280929190818152602001828054610c199061599c565b8015610c665780601f10610c3b57610100808354040283529160200191610c66565b820191906000526020600020905b815481529060010190602001808311610c4957829003601f168201915b505050505090806009018054610c7b9061599c565b80601f0160208091040260200160405190810160405280929190818152602001828054610ca79061599c565b8015610cf45780601f10610cc957610100808354040283529160200191610cf4565b820191906000526020600020905b815481529060010190602001808311610cd757829003601f168201915b50505050509080600a018054610d099061599c565b80601f0160208091040260200160405190810160405280929190818152602001828054610d359061599c565b8015610d825780601f10610d5757610100808354040283529160200191610d82565b820191906000526020600020905b815481529060010190602001808311610d6557829003601f168201915b50505050509080600b018054610d979061599c565b80601f0160208091040260200160405190810160405280929190818152602001828054610dc39061599c565b8015610e105780601f10610de557610100808354040283529160200191610e10565b820191906000526020600020905b815481529060010190602001808311610df357829003601f168201915b50505050509080600c018054610e259061599c565b80601f0160208091040260200160405190810160405280929190818152602001828054610e519061599c565b8015610e9e5780601f10610e7357610100808354040283529160200191610e9e565b820191906000526020600020905b815481529060010190602001808311610e8157829003601f168201915b50505050509080600d018054610eb39061599c565b80601f0160208091040260200160405190810160405280929190818152602001828054610edf9061599c565b8015610f2c5780601f10610f0157610100808354040283529160200191610f2c565b820191906000526020600020905b815481529060010190602001808311610f0f57829003601f168201915b505050505090508e565b600754606090600080826001600160401b03811115610f5757610f57615471565b604051908082528060200260200182016040528015610f9057816020015b610f7d614b72565b815260200190600190039081610f755790505b50905060005b83811015611a32576000610fab826001615a1c565b60008181526001602081815260409283902083516101c0808201865282548252938201546001600160a01b03908116828501528551948501865260028301805486526003840154909116938501939093526004820180549697509195909486948682019490939092918401916110209061599c565b80601f016020809104026020016040519081016040528092919081815260200182805461104c9061599c565b80156110995780601f1061106e57610100808354040283529160200191611099565b820191906000526020600020905b81548152906001019060200180831161107c57829003601f168201915b505050505081526020016003820180546110b29061599c565b80601f01602080910402602001604051908101604052809291908181526020018280546110de9061599c565b801561112b5780601f106111005761010080835404028352916020019161112b565b820191906000526020600020905b81548152906001019060200180831161110e57829003601f168201915b505050505081526020016004820180546111449061599c565b80601f01602080910402602001604051908101604052809291908181526020018280546111709061599c565b80156111bd5780601f10611192576101008083540402835291602001916111bd565b820191906000526020600020905b8154815290600101906020018083116111a057829003601f168201915b505050505081526020016005820180546111d69061599c565b80601f01602080910402602001604051908101604052809291908181526020018280546112029061599c565b801561124f5780601f106112245761010080835404028352916020019161124f565b820191906000526020600020905b81548152906001019060200180831161123257829003601f168201915b505050505081526020016006820180546112689061599c565b80601f01602080910402602001604051908101604052809291908181526020018280546112949061599c565b80156112e15780601f106112b6576101008083540402835291602001916112e1565b820191906000526020600020905b8154815290600101906020018083116112c457829003601f168201915b5050509183525050600782015460ff161515602082015260088201805460409092019161130d9061599c565b80601f01602080910402602001604051908101604052809291908181526020018280546113399061599c565b80156113865780601f1061135b57610100808354040283529160200191611386565b820191906000526020600020905b81548152906001019060200180831161136957829003601f168201915b5050505050815260200160098201805461139f9061599c565b80601f01602080910402602001604051908101604052809291908181526020018280546113cb9061599c565b80156114185780601f106113ed57610100808354040283529160200191611418565b820191906000526020600020905b8154815290600101906020018083116113fb57829003601f168201915b50505050508152602001600a820180546114319061599c565b80601f016020809104026020016040519081016040528092919081815260200182805461145d9061599c565b80156114aa5780601f1061147f576101008083540402835291602001916114aa565b820191906000526020600020905b81548152906001019060200180831161148d57829003601f168201915b50505050508152602001600b820180546114c39061599c565b80601f01602080910402602001604051908101604052809291908181526020018280546114ef9061599c565b801561153c5780601f106115115761010080835404028352916020019161153c565b820191906000526020600020905b81548152906001019060200180831161151f57829003601f168201915b50505050508152602001600c820180546115559061599c565b80601f01602080910402602001604051908101604052809291908181526020018280546115819061599c565b80156115ce5780601f106115a3576101008083540402835291602001916115ce565b820191906000526020600020905b8154815290600101906020018083116115b157829003601f168201915b50505050508152602001600d820180546115e79061599c565b80601f01602080910402602001604051908101604052809291908181526020018280546116139061599c565b80156116605780601f1061163557610100808354040283529160200191611660565b820191906000526020600020905b81548152906001019060200180831161164357829003601f168201915b505050505081525050815260200160108201548152602001601182015481526020016012820154815260200160138201548152602001601482015481526020016015820180546116af9061599c565b80601f01602080910402602001604051908101604052809291908181526020018280546116db9061599c565b80156117285780601f106116fd57610100808354040283529160200191611728565b820191906000526020600020905b81548152906001019060200180831161170b57829003601f168201915b505050505081526020016016820180546117419061599c565b80601f016020809104026020016040519081016040528092919081815260200182805461176d9061599c565b80156117ba5780601f1061178f576101008083540402835291602001916117ba565b820191906000526020600020905b81548152906001019060200180831161179d57829003601f168201915b505050505081526020016017820180546117d39061599c565b80601f01602080910402602001604051908101604052809291908181526020018280546117ff9061599c565b801561184c5780601f106118215761010080835404028352916020019161184c565b820191906000526020600020905b81548152906001019060200180831161182f57829003601f168201915b505050505081526020016018820180546118659061599c565b80601f01602080910402602001604051908101604052809291908181526020018280546118919061599c565b80156118de5780601f106118b3576101008083540402835291602001916118de565b820191906000526020600020905b8154815290600101906020018083116118c157829003601f168201915b505050505081526020016019820180546118f79061599c565b80601f01602080910402602001604051908101604052809291908181526020018280546119239061599c565b80156119705780601f1061194557610100808354040283529160200191611970565b820191906000526020600020905b81548152906001019060200180831161195357829003601f168201915b5050509183525050604080516101008082018352601a85015460ff808216151584529082900481161515602084810191909152601b87015494840194909452601c8601546060840152601d86015480821615156080850152919091048116151560a0830152601e85015460c0830152601f90940154909316151560e084015201528451859087908110611a0557611a05615a34565b6020908102919091010152611a1b600186615a1c565b945050508080611a2a90615a4a565b915050610f96565b509392505050565b60016020818152600092835260409283902080549281015484516101c081018652600283018054825260038401546001600160a01b0390811695830195909552600484018054969795909316959394919390929184019190611a9b9061599c565b80601f0160208091040260200160405190810160405280929190818152602001828054611ac79061599c565b8015611b145780601f10611ae957610100808354040283529160200191611b14565b820191906000526020600020905b815481529060010190602001808311611af757829003601f168201915b50505050508152602001600382018054611b2d9061599c565b80601f0160208091040260200160405190810160405280929190818152602001828054611b599061599c565b8015611ba65780601f10611b7b57610100808354040283529160200191611ba6565b820191906000526020600020905b815481529060010190602001808311611b8957829003601f168201915b50505050508152602001600482018054611bbf9061599c565b80601f0160208091040260200160405190810160405280929190818152602001828054611beb9061599c565b8015611c385780601f10611c0d57610100808354040283529160200191611c38565b820191906000526020600020905b815481529060010190602001808311611c1b57829003601f168201915b50505050508152602001600582018054611c519061599c565b80601f0160208091040260200160405190810160405280929190818152602001828054611c7d9061599c565b8015611cca5780601f10611c9f57610100808354040283529160200191611cca565b820191906000526020600020905b815481529060010190602001808311611cad57829003601f168201915b50505050508152602001600682018054611ce39061599c565b80601f0160208091040260200160405190810160405280929190818152602001828054611d0f9061599c565b8015611d5c5780601f10611d3157610100808354040283529160200191611d5c565b820191906000526020600020905b815481529060010190602001808311611d3f57829003601f168201915b5050509183525050600782015460ff1615156020820152600882018054604090920191611d889061599c565b80601f0160208091040260200160405190810160405280929190818152602001828054611db49061599c565b8015611e015780601f10611dd657610100808354040283529160200191611e01565b820191906000526020600020905b815481529060010190602001808311611de457829003601f168201915b50505050508152602001600982018054611e1a9061599c565b80601f0160208091040260200160405190810160405280929190818152602001828054611e469061599c565b8015611e935780601f10611e6857610100808354040283529160200191611e93565b820191906000526020600020905b815481529060010190602001808311611e7657829003601f168201915b50505050508152602001600a82018054611eac9061599c565b80601f0160208091040260200160405190810160405280929190818152602001828054611ed89061599c565b8015611f255780601f10611efa57610100808354040283529160200191611f25565b820191906000526020600020905b815481529060010190602001808311611f0857829003601f168201915b50505050508152602001600b82018054611f3e9061599c565b80601f0160208091040260200160405190810160405280929190818152602001828054611f6a9061599c565b8015611fb75780601f10611f8c57610100808354040283529160200191611fb7565b820191906000526020600020905b815481529060010190602001808311611f9a57829003601f168201915b50505050508152602001600c82018054611fd09061599c565b80601f0160208091040260200160405190810160405280929190818152602001828054611ffc9061599c565b80156120495780601f1061201e57610100808354040283529160200191612049565b820191906000526020600020905b81548152906001019060200180831161202c57829003601f168201915b50505050508152602001600d820180546120629061599c565b80601f016020809104026020016040519081016040528092919081815260200182805461208e9061599c565b80156120db5780601f106120b0576101008083540402835291602001916120db565b820191906000526020600020905b8154815290600101906020018083116120be57829003601f168201915b505050505081525050908060100154908060110154908060120154908060130154908060140154908060150180546121129061599c565b80601f016020809104026020016040519081016040528092919081815260200182805461213e9061599c565b801561218b5780601f106121605761010080835404028352916020019161218b565b820191906000526020600020905b81548152906001019060200180831161216e57829003601f168201915b5050505050908060160180546121a09061599c565b80601f01602080910402602001604051908101604052809291908181526020018280546121cc9061599c565b80156122195780601f106121ee57610100808354040283529160200191612219565b820191906000526020600020905b8154815290600101906020018083116121fc57829003601f168201915b50505050509080601701805461222e9061599c565b80601f016020809104026020016040519081016040528092919081815260200182805461225a9061599c565b80156122a75780601f1061227c576101008083540402835291602001916122a7565b820191906000526020600020905b81548152906001019060200180831161228a57829003601f168201915b5050505050908060180180546122bc9061599c565b80601f01602080910402602001604051908101604052809291908181526020018280546122e89061599c565b80156123355780601f1061230a57610100808354040283529160200191612335565b820191906000526020600020905b81548152906001019060200180831161231857829003601f168201915b50505050509080601901805461234a9061599c565b80601f01602080910402602001604051908101604052809291908181526020018280546123769061599c565b80156123c35780601f10612398576101008083540402835291602001916123c3565b820191906000526020600020905b8154815290600101906020018083116123a657829003601f168201915b5050604080516101008082018352601a88015460ff8082161515845290829004811615156020840152601b89015493830193909352601c8801546060830152601d88015480841615156080840152048216151560a0820152601e87015460c0820152601f9096015416151560e086015250919291508f9050565b60008111801561244f57506007548111155b61246b5760405162461bcd60e51b81526004016104d1906159d7565b6000818152600160208190526040909120601d8101805461ffff19169055601f8101805460ff19168317905590810180546001600160a01b03198082166001600160a01b039283161790925560038301805492831692909116919091179055600481018054829182916002830191829181906124e69061599c565b6124f1929190614aeb565b5060038201816003019080546125069061599c565b612511929190614aeb565b5060048201816004019080546125269061599c565b612531929190614aeb565b5060058201816005019080546125469061599c565b612551929190614aeb565b5060068201816006019080546125669061599c565b612571929190614aeb565b50600782810154908201805460ff191660ff909216151591909117905560088083018054918301916125a29061599c565b6125ad929190614aeb565b5060098201816009019080546125c29061599c565b6125cd929190614aeb565b50600a820181600a019080546125e29061599c565b6125ed929190614aeb565b50600b820181600b019080546126029061599c565b61260d929190614aeb565b50600c820181600c019080546126229061599c565b61262d929190614aeb565b50600d820181600d019080546126429061599c565b61264d929190614aeb565b505050601082015481601001556011820154816011015560128201548160120155601382015481601301556014820154816014015560158201816015019080546126969061599c565b6126a1929190614aeb565b5060168201816016019080546126b69061599c565b6126c1929190614aeb565b5060178201816017019080546126d69061599c565b6126e1929190614aeb565b5060188201816018019080546126f69061599c565b612701929190614aeb565b5060198201816019019080546127169061599c565b612721929190614aeb565b50601a8281018054918301805460ff938416151560ff198083168217845593546101009081900486161515810261ff001992831661ffff199485161717909355601b8088015490870155601c8088015490870155601d808801805491880180549288161515838816811782559154869004881615159095029216921691909117179055601e8085015490840155601f93840154939092018054939091161515929091169190911790555050565b60008181526001602052604081206010015460609180826001600160401b038111156127fc576127fc615471565b60405190808252806020026020018201604052801561286157816020015b61284e604051806080016040528060008152602001600081526020016000815260200160006001600160a01b031681525090565b81526020019060019003908161281a5790505b50905060005b8381101561291157600061287c826001615a1c565b6000888152600260208181526040808420858552825292839020835160808101855281548152600182015492810192909252918201549281019290925260038101546001600160a01b031660608301528551929350918590879081106128e4576128e4615a34565b60209081029190910101526128fa600186615a1c565b94505050808061290990615a4a565b915050612867565b50949350505050565b612940604051806060016040528060001515815260200160608152602001600081525090565b3360009081526004602052604090205460ff16151560011415612a275733600090815260046020908152604091829020825160608101909352805460ff161515835260018101805491928401916129969061599c565b80601f01602080910402602001604051908101604052809291908181526020018280546129c29061599c565b8015612a0f5780601f106129e457610100808354040283529160200191612a0f565b820191906000526020600020905b8154815290600101906020018083116129f257829003601f168201915b50505050508152602001600282015481525050905090565b33600090815260046020908152604091829020825160608101909352805460ff161515835260018101805491928401916129969061599c565b6000805460408051633fabe5a360e21b8152905183926001600160a01b03169163feaf968c9160048083019260a0929190829003018186803b158015612aa557600080fd5b505afa158015612ab9573d6000803e3d6000fd5b505050506040513d601f19601f82011682018060405250810190612add9190615a7c565b505050915050612aec81614a76565b91505090565b600854606090600080826001600160401b03811115612b1357612b13615471565b604051908082528060200260200182016040528015612b4c57816020015b612b39614c34565b815260200190600190039081612b315790505b50905060005b83811015611a32576000612b67826001615a1c565b60008181526003602090815260409182902082516101c0810184528154815260018201546001600160a01b0316928101929092526002810180549495509093919284929084019190612bb89061599c565b80601f0160208091040260200160405190810160405280929190818152602001828054612be49061599c565b8015612c315780601f10612c0657610100808354040283529160200191612c31565b820191906000526020600020905b815481529060010190602001808311612c1457829003601f168201915b50505050508152602001600382018054612c4a9061599c565b80601f0160208091040260200160405190810160405280929190818152602001828054612c769061599c565b8015612cc35780601f10612c9857610100808354040283529160200191612cc3565b820191906000526020600020905b815481529060010190602001808311612ca657829003601f168201915b50505050508152602001600482018054612cdc9061599c565b80601f0160208091040260200160405190810160405280929190818152602001828054612d089061599c565b8015612d555780601f10612d2a57610100808354040283529160200191612d55565b820191906000526020600020905b815481529060010190602001808311612d3857829003601f168201915b50505050508152602001600582018054612d6e9061599c565b80601f0160208091040260200160405190810160405280929190818152602001828054612d9a9061599c565b8015612de75780601f10612dbc57610100808354040283529160200191612de7565b820191906000526020600020905b815481529060010190602001808311612dca57829003601f168201915b50505050508152602001600682018054612e009061599c565b80601f0160208091040260200160405190810160405280929190818152602001828054612e2c9061599c565b8015612e795780601f10612e4e57610100808354040283529160200191612e79565b820191906000526020600020905b815481529060010190602001808311612e5c57829003601f168201915b5050509183525050600782015460ff1615156020820152600882018054604090920191612ea59061599c565b80601f0160208091040260200160405190810160405280929190818152602001828054612ed19061599c565b8015612f1e5780601f10612ef357610100808354040283529160200191612f1e565b820191906000526020600020905b815481529060010190602001808311612f0157829003601f168201915b50505050508152602001600982018054612f379061599c565b80601f0160208091040260200160405190810160405280929190818152602001828054612f639061599c565b8015612fb05780601f10612f8557610100808354040283529160200191612fb0565b820191906000526020600020905b815481529060010190602001808311612f9357829003601f168201915b50505050508152602001600a82018054612fc99061599c565b80601f0160208091040260200160405190810160405280929190818152602001828054612ff59061599c565b80156130425780601f1061301757610100808354040283529160200191613042565b820191906000526020600020905b81548152906001019060200180831161302557829003601f168201915b50505050508152602001600b8201805461305b9061599c565b80601f01602080910402602001604051908101604052809291908181526020018280546130879061599c565b80156130d45780601f106130a9576101008083540402835291602001916130d4565b820191906000526020600020905b8154815290600101906020018083116130b757829003601f168201915b50505050508152602001600c820180546130ed9061599c565b80601f01602080910402602001604051908101604052809291908181526020018280546131199061599c565b80156131665780601f1061313b57610100808354040283529160200191613166565b820191906000526020600020905b81548152906001019060200180831161314957829003601f168201915b50505050508152602001600d8201805461317f9061599c565b80601f01602080910402602001604051908101604052809291908181526020018280546131ab9061599c565b80156131f85780601f106131cd576101008083540402835291602001916131f8565b820191906000526020600020905b8154815290600101906020018083116131db57829003601f168201915b50505050508152505084868151811061321357613213615a34565b6020908102919091010152613229600186615a1c565b94505050808061323890615a4a565b915050612b52565b60008111801561325257506007548111155b61326e5760405162461bcd60e51b81526004016104d1906159d7565b6000818152600160205260409020601d810154610100900460ff161561329357600080fd5b601d81015460ff16156132a557600080fd5b601d8101805461ffff1916610101179055601f8101805460ff1916905542601e8201556000828152600160208190526040909120825481558183015491810180546001600160a01b039384166001600160a01b0319918216179091556002808501805491840191825560038087015490850180549190961693169290921790935560048085018054869592850191906124e69061599c565b3361334757600080fd5b6007805490600061335783615a4a565b9091555050600754600081815260016020819052604090912091825581810180546001600160a01b0319163317905560085461339291615a1c565b600881905560028201556003810180546001600160a01b03191633179055604080840151015180516133ce916004840191602090910190614cae565b5060408301516060015180516133ee916005840191602090910190614cae565b50604083015160800151805161340e916006840191602090910190614cae565b50604083015160a00151805161342e916007840191602090910190614cae565b50604083015160c00151805161344e916008840191602090910190614cae565b5060098101805460ff1916600117905560408301516101000151805161347e91600a840191602090910190614cae565b5060408301516101200151805161349f91600b840191602090910190614cae565b506040830151610140015180516134c091600c840191602090910190614cae565b506040830151610160015180516134e191600d840191602090910190614cae565b5060408301516101800151805161350291600e840191602090910190614cae565b5060408301516101a00151805161352391600f840191602090910190614cae565b50600880546000818152600360209081526040808320938455600190930180546001600160a01b0319163317905586830151830151935482529190208251613575936002909201929190910190614cae565b50604080840151606001516008546000908152600360208181529390912082516135a59491909201920190614cae565b5082604001516080015160036000600854815260200190815260200160002060040190805190602001906135da929190614cae565b50826040015160a00151600360006008548152602001908152602001600020600501908051906020019061360f929190614cae565b50826040015160c001516003600060085481526020019081526020016000206006019080519060200190613644929190614cae565b50600880546000908152600360209081526040808320600701805460ff19166001179055868101516101000151845484529220825161368b94919091019290910190614cae565b508260400151610120015160036000600854815260200190815260200160002060090190805190602001906136c1929190614cae565b5082604001516101400151600360006008548152602001908152602001600020600a0190805190602001906136f7929190614cae565b5082604001516101600151600360006008548152602001908152602001600020600b01908051906020019061372d929190614cae565b5082604001516101800151600360006008548152602001908152602001600020600c019080519060200190613763929190614cae565b5082604001516101a00151600360006008548152602001908152602001600020600d019080519060200190613799929190614cae565b5033600090815260046020908152604091829020805460ff191660019081178255868401519093015180516137d49492909201920190614cae565b5060085433600090815260046020908152604082206002019290925560118301819055601083015542601283015560c0840151601383015560e08401516014830155610100840151805161382e9260158501920190614cae565b50610120830151805161384b916016840191602090910190614cae565b506101408301518051613868916017840191602090910190614cae565b506101008301518051613885916015840191602090910190614cae565b5061016083015180516138a2916018840191602090910190614cae565b5061018083015180516138bf916019840191602090910190614cae565b50601a8101805461ffff19908116909155601d820180549091169055601f8101805460ff191690556000601e8201819055601b8201819055601c8201556007546006546009546012840154601385015460148601546040517f7c8a17aaa539b5bb8a8ea1700d5c6e2008e7baa2a6f82e7cd29308dbba896d7d96613968969095339591949093919290919060158b019060168c019060178d019060188e019060198f0190615b6c565b60405180910390a1505050565b60008111801561398757506007548111155b6139a35760405162461bcd60e51b81526004016104d1906159d7565b6000818152600160208190526040909120601a8101805461ff001916905590810180546001600160a01b03198082166001600160a01b039283161790925560038301805492831692909116919091179055600481018054829182916002830191829181906124e69061599c565b600081118015613a2257506007548111155b613a2b57600080fd5b60008181526001602052604090206014810154601182015410613a5857601a8101805460ff191660011790555b60018101546001600160a01b03166011600a6000613a768383614acc565b905060646000613a868284614acc565b90506000613a943483614acc565b90506001600160a01b0387166108fc613aad3484614adf565b6040518115909202916000818181858888f19350505050158015613ad5573d6000803e3d6000fd5b506005546040516001600160a01b0390911690819083156108fc029084906000818181858888f19350505050158015613b12573d6000803e3d6000fd5b5034600954613b219190615a1c565b6009556011890154613b34903490615a1c565b60118a01556010890154613b49906001615a1c565b60108a015560068054906000613b5e83615a4a565b91905055508860100154600260008b60000154815260200190815260200160002060008b6010015481526020019081526020016000206000018190555034600260008b60000154815260200190815260200160002060008b6010015481526020019081526020016000206001018190555042600260008b60000154815260200190815260200160002060008b6010015481526020019081526020016000206002018190555033600260008b60000154815260200190815260200160002060008b60100154815260200190815260200160002060030160006101000a8154816001600160a01b0302191690836001600160a01b0316021790555088600160008c8152602001908152602001600020600082015481600001556001820160009054906101000a90046001600160a01b03168160010160006101000a8154816001600160a01b0302191690836001600160a01b031602179055506002820181600201600082015481600001556001820160009054906101000a90046001600160a01b03168160010160006101000a8154816001600160a01b0302191690836001600160a01b031602179055506002820181600201908054613d1b9061599c565b613d26929190614aeb565b506003820181600301908054613d3b9061599c565b613d46929190614aeb565b506004820181600401908054613d5b9061599c565b613d66929190614aeb565b506005820181600501908054613d7b9061599c565b613d86929190614aeb565b506006820181600601908054613d9b9061599c565b613da6929190614aeb565b50600782810154908201805460ff191660ff90921615159190911790556008808301805491830191613dd79061599c565b613de2929190614aeb565b506009820181600901908054613df79061599c565b613e02929190614aeb565b50600a820181600a01908054613e179061599c565b613e22929190614aeb565b50600b820181600b01908054613e379061599c565b613e42929190614aeb565b50600c820181600c01908054613e579061599c565b613e62929190614aeb565b50600d820181600d01908054613e779061599c565b613e82929190614aeb565b50505060108201548160100155601182015481601101556012820154816012015560138201548160130155601482015481601401556015820181601501908054613ecb9061599c565b613ed6929190614aeb565b506016820181601601908054613eeb9061599c565b613ef6929190614aeb565b506017820181601701908054613f0b9061599c565b613f16929190614aeb565b506018820181601801908054613f2b9061599c565b613f36929190614aeb565b506019820181601901908054613f4b9061599c565b613f56929190614aeb565b50601a8281018054918301805460ff938416151560ff198083168217845593546101009081900486161515810261ff001992831661ffff199485161717909355601b8088015490870155601c8088015490870155601d808801805491880180549288161515838816811782559154869004881615159095029216921691909117179055601e8085015490840155601f938401549390920180549390911615159290911691909117905550505050505050505050565b614013614b72565b600082815260016020526040902054821415614a715760008281526001602081815260409283902083516101c0808201865282548252938201546001600160a01b0390811682850152855194850186526002830180548652600384015490911693850193909352600482018054919592948684019490939092908401919061409a9061599c565b80601f01602080910402602001604051908101604052809291908181526020018280546140c69061599c565b80156141135780601f106140e857610100808354040283529160200191614113565b820191906000526020600020905b8154815290600101906020018083116140f657829003601f168201915b5050505050815260200160038201805461412c9061599c565b80601f01602080910402602001604051908101604052809291908181526020018280546141589061599c565b80156141a55780601f1061417a576101008083540402835291602001916141a5565b820191906000526020600020905b81548152906001019060200180831161418857829003601f168201915b505050505081526020016004820180546141be9061599c565b80601f01602080910402602001604051908101604052809291908181526020018280546141ea9061599c565b80156142375780601f1061420c57610100808354040283529160200191614237565b820191906000526020600020905b81548152906001019060200180831161421a57829003601f168201915b505050505081526020016005820180546142509061599c565b80601f016020809104026020016040519081016040528092919081815260200182805461427c9061599c565b80156142c95780601f1061429e576101008083540402835291602001916142c9565b820191906000526020600020905b8154815290600101906020018083116142ac57829003601f168201915b505050505081526020016006820180546142e29061599c565b80601f016020809104026020016040519081016040528092919081815260200182805461430e9061599c565b801561435b5780601f106143305761010080835404028352916020019161435b565b820191906000526020600020905b81548152906001019060200180831161433e57829003601f168201915b5050509183525050600782015460ff16151560208201526008820180546040909201916143879061599c565b80601f01602080910402602001604051908101604052809291908181526020018280546143b39061599c565b80156144005780601f106143d557610100808354040283529160200191614400565b820191906000526020600020905b8154815290600101906020018083116143e357829003601f168201915b505050505081526020016009820180546144199061599c565b80601f01602080910402602001604051908101604052809291908181526020018280546144459061599c565b80156144925780601f1061446757610100808354040283529160200191614492565b820191906000526020600020905b81548152906001019060200180831161447557829003601f168201915b50505050508152602001600a820180546144ab9061599c565b80601f01602080910402602001604051908101604052809291908181526020018280546144d79061599c565b80156145245780601f106144f957610100808354040283529160200191614524565b820191906000526020600020905b81548152906001019060200180831161450757829003601f168201915b50505050508152602001600b8201805461453d9061599c565b80601f01602080910402602001604051908101604052809291908181526020018280546145699061599c565b80156145b65780601f1061458b576101008083540402835291602001916145b6565b820191906000526020600020905b81548152906001019060200180831161459957829003601f168201915b50505050508152602001600c820180546145cf9061599c565b80601f01602080910402602001604051908101604052809291908181526020018280546145fb9061599c565b80156146485780601f1061461d57610100808354040283529160200191614648565b820191906000526020600020905b81548152906001019060200180831161462b57829003601f168201915b50505050508152602001600d820180546146619061599c565b80601f016020809104026020016040519081016040528092919081815260200182805461468d9061599c565b80156146da5780601f106146af576101008083540402835291602001916146da565b820191906000526020600020905b8154815290600101906020018083116146bd57829003601f168201915b505050505081525050815260200160108201548152602001601182015481526020016012820154815260200160138201548152602001601482015481526020016015820180546147299061599c565b80601f01602080910402602001604051908101604052809291908181526020018280546147559061599c565b80156147a25780601f10614777576101008083540402835291602001916147a2565b820191906000526020600020905b81548152906001019060200180831161478557829003601f168201915b505050505081526020016016820180546147bb9061599c565b80601f01602080910402602001604051908101604052809291908181526020018280546147e79061599c565b80156148345780601f1061480957610100808354040283529160200191614834565b820191906000526020600020905b81548152906001019060200180831161481757829003601f168201915b5050505050815260200160178201805461484d9061599c565b80601f01602080910402602001604051908101604052809291908181526020018280546148799061599c565b80156148c65780601f1061489b576101008083540402835291602001916148c6565b820191906000526020600020905b8154815290600101906020018083116148a957829003601f168201915b505050505081526020016018820180546148df9061599c565b80601f016020809104026020016040519081016040528092919081815260200182805461490b9061599c565b80156149585780601f1061492d57610100808354040283529160200191614958565b820191906000526020600020905b81548152906001019060200180831161493b57829003601f168201915b505050505081526020016019820180546149719061599c565b80601f016020809104026020016040519081016040528092919081815260200182805461499d9061599c565b80156149ea5780601f106149bf576101008083540402835291602001916149ea565b820191906000526020600020905b8154815290600101906020018083116149cd57829003601f168201915b5050509183525050604080516101008082018352601a85015460ff808216151584529082900481161515602084810191909152601b87015494840194909452601c8601546060840152601d86015480821615156080850152919091048116151560a0830152601e85015460c0830152601f90940154909316151560e0840152015292915050565b919050565b600080821215614ac85760405162461bcd60e51b815260206004820181905260248201527f53616665436173743a2076616c7565206d75737420626520706f73697469766560448201526064016104d1565b5090565b6000614ad88284615c06565b9392505050565b6000614ad88284615c28565b828054614af79061599c565b90600052602060002090601f016020900481019282614b195760008555614b66565b82601f10614b2a5780548555614b66565b82800160010185558215614b6657600052602060002091601f016020900482015b82811115614b66578254825591600101919060010190614b4b565b50614ac8929150614d22565b604080516101c08101825260008082526020820152908101614b92614c34565b815260200160008152602001600081526020016000815260200160008152602001600081526020016060815260200160608152602001606081526020016060815260200160608152602001614c2f6040518061010001604052806000151581526020016000151581526020016000815260200160008152602001600015158152602001600015158152602001600081526020016000151581525090565b905290565b604051806101c001604052806000815260200160006001600160a01b0316815260200160608152602001606081526020016060815260200160608152602001606081526020016000151581526020016060815260200160608152602001606081526020016060815260200160608152602001606081525090565b828054614cba9061599c565b90600052602060002090601f016020900481019282614cdc5760008555614b66565b82601f10614cf557805160ff1916838001178555614b66565b82800160010185558215614b66579182015b82811115614b66578251825591602001919060010190614d07565b5b80821115614ac85760008155600101614d23565b6001600160a01b0381168114614d4c57600080fd5b50565b8035614a7181614d37565b600060208284031215614d6c57600080fd5b8135614ad881614d37565b6000815180845260005b81811015614d9d57602081850181015186830182015201614d81565b81811115614daf576000602083870101525b50601f01601f19169290920160200192915050565b8315158152606060208201526000614ddf6060830185614d77565b9050826040830152949350505050565b600080600060608486031215614e0457600080fd5b505081359360208301359350604090920135919050565b600060208284031215614e2d57600080fd5b5035919050565b6001600160a01b03169052565b8e8152614e51602082018f614e34565b6101c060408201526000614e696101c083018f614d77565b8281036060840152614e7b818f614d77565b90508281036080840152614e8f818e614d77565b905082810360a0840152614ea3818d614d77565b905082810360c0840152614eb7818c614d77565b8a151560e08501529050828103610100840152614ed4818a614d77565b9050828103610120840152614ee98189614d77565b9050828103610140840152614efe8188614d77565b9050828103610160840152614f138187614d77565b9050828103610180840152614f288186614d77565b90508281036101a0840152614f3d8185614d77565b9150509f9e505050505050505050505050505050565b60006101c0825184526020830151614f6e6020860182614e34565b506040830151816040860152614f8682860182614d77565b91505060608301518482036060860152614fa08282614d77565b91505060808301518482036080860152614fba8282614d77565b91505060a083015184820360a0860152614fd48282614d77565b91505060c083015184820360c0860152614fee8282614d77565b91505060e083015161500460e086018215159052565b50610100808401518583038287015261501d8382614d77565b9250505061012080840151858303828701526150398382614d77565b9250505061014080840151858303828701526150558382614d77565b9250505061016080840151858303828701526150718382614d77565b92505050610180808401518583038287015261508d8382614d77565b925050506101a080840151858303828701526150a98382614d77565b9695505050505050565b805115158252602081015115156020830152604081015160408301526060810151606083015260808101511515608083015260a0810151151560a083015260c081015160c083015260e0810151151560e08301525050565b60006102a08251845260208301516151266020860182614e34565b50604083015181604086015261513e82860182614f53565b915050606083015160608501526080830151608085015260a083015160a085015260c083015160c085015260e083015160e0850152610100808401518583038287015261518b8382614d77565b9250505061012080840151858303828701526151a78382614d77565b9250505061014080840151858303828701526151c38382614d77565b9250505061016080840151858303828701526151df8382614d77565b9250505061018080840151858303828701526151fb8382614d77565b925050506101a080840151615212828701826150b3565b5090949350505050565b6000602080830181845280855180835260408601915060408160051b870101925083870160005b8281101561527157603f1988860301845261525f85835161510b565b94509285019290850190600101615243565b5092979650505050505050565b8e815261528e602082018f614e34565b6102a0604082015260006152a66102a083018f614f53565b8d60608401528c60808401528b60a08401528a60c08401528960e08401528281036101008401526152d7818a614d77565b90508281036101208401526152ec8189614d77565b90508281036101408401526153018188614d77565b90508281036101608401526153168187614d77565b905082810361018084015261532b8186614d77565b91505061533c6101a08301846150b3565b9f9e505050505050505050505050505050565b6000806040838503121561536257600080fd5b50508035926020909101359150565b602080825282518282018190526000919060409081850190868401855b828110156153d157815180518552868101518786015285810151868601526060908101516001600160a01b0316908501526080909301929085019060010161538e565b5091979650505050505050565b6020815281511515602082015260006020830151606060408401526154066080840182614d77565b9050604084015160608401528091505092915050565b6000602080830181845280855180835260408601915060408160051b870101925083870160005b8281101561527157603f1988860301845261545f858351614f53565b94509285019290850190600101615443565b634e487b7160e01b600052604160045260246000fd5b6040516101c081016001600160401b03811182821017156154aa576154aa615471565b60405290565b600082601f8301126154c157600080fd5b81356001600160401b03808211156154db576154db615471565b604051601f8301601f19908116603f0116810190828211818310171561550357615503615471565b8160405283815286602085880101111561551c57600080fd5b836020870160208301376000602085830101528094505050505092915050565b80358015158114614a7157600080fd5b60006101c0828403121561555f57600080fd5b615567615487565b90508135815261557960208301614d4f565b602082015260408201356001600160401b038082111561559857600080fd5b6155a4858386016154b0565b604084015260608401359150808211156155bd57600080fd5b6155c9858386016154b0565b606084015260808401359150808211156155e257600080fd5b6155ee858386016154b0565b608084015260a084013591508082111561560757600080fd5b615613858386016154b0565b60a084015260c084013591508082111561562c57600080fd5b615638858386016154b0565b60c084015261564960e0850161553c565b60e08401526101009150818401358181111561566457600080fd5b615670868287016154b0565b83850152506101209150818401358181111561568b57600080fd5b615697868287016154b0565b8385015250610140915081840135818111156156b257600080fd5b6156be868287016154b0565b8385015250610160915081840135818111156156d957600080fd5b6156e5868287016154b0565b83850152506101809150818401358181111561570057600080fd5b61570c868287016154b0565b83850152506101a09150818401358181111561572757600080fd5b615733868287016154b0565b8385015250505092915050565b600061010080838503121561575457600080fd5b604051908101906001600160401b038211818310171561577657615776615471565b816040528092506157868461553c565b81526157946020850161553c565b602082015260408401356040820152606084013560608201526157b96080850161553c565b60808201526157ca60a0850161553c565b60a082015260c084013560c08201526157e560e0850161553c565b60e0820152505092915050565b6000806040838503121561580557600080fd5b82356001600160401b038082111561581c57600080fd5b908401906102a0828703121561583157600080fd5b615839615487565b8235815261584960208401614d4f565b602082015260408301358281111561586057600080fd5b61586c8882860161554c565b604083015250606083013560608201526080830135608082015260a083013560a082015260c083013560c082015260e083013560e082015261010080840135838111156158b857600080fd5b6158c4898287016154b0565b82840152505061012080840135838111156158de57600080fd5b6158ea898287016154b0565b828401525050610140808401358381111561590457600080fd5b615910898287016154b0565b828401525050610160808401358381111561592a57600080fd5b615936898287016154b0565b828401525050610180808401358381111561595057600080fd5b61595c898287016154b0565b8284015250506101a0915061597387838501615740565b9181019190915295602094909401359450505050565b602081526000614ad8602083018461510b565b600181811c908216806159b057607f821691505b602082108114156159d157634e487b7160e01b600052602260045260246000fd5b50919050565b602080825260159082015274191bdb985d1a5bdb881a59081b9bdd081d985b1a59605a1b604082015260600190565b634e487b7160e01b600052601160045260246000fd5b60008219821115615a2f57615a2f615a06565b500190565b634e487b7160e01b600052603260045260246000fd5b6000600019821415615a5e57615a5e615a06565b5060010190565b80516001600160501b0381168114614a7157600080fd5b600080600080600060a08688031215615a9457600080fd5b615a9d86615a65565b9450602086015193506040860151925060608601519150615ac060808701615a65565b90509295509295909350565b8054600090600181811c9080831680615ae657607f831692505b6020808410821415615b0857634e487b7160e01b600052602260045260246000fd5b83885260208801828015615b235760018114615b3457615b5f565b60ff19871682528282019750615b5f565b60008981526020902060005b87811015615b5957815484820152908601908401615b40565b83019850505b5050505050505092915050565b60006101808e835260018060a01b038e1660208401528c60408401528b60608401528a60808401528960a08401528860c08401528060e0840152615bb281840189615acc565b9050828103610100840152615bc78188615acc565b9050828103610120840152615bdc8187615acc565b9050828103610140840152615bf18186615acc565b905082810361016084015261533c8185615acc565b600082615c2357634e487b7160e01b600052601260045260246000fd5b500490565b600082821015615c3a57615c3a615a06565b50039056fea264697066735822122074e65eba34a2940b251d765c1bf6688bce8c80d8b5086cbf29c4c6f6ccc0778964736f6c63430008090033",
  "linkReferences": {},
  "deployedLinkReferences": {}
}